{
  "_format": "hh-sol-artifact-1",
  "contractName": "FellowNFT",
  "sourceName": "contracts/FellowNFT.sol",
  "abi": [
    {
      "inputs": [
        {
          "internalType": "contract FellowBentoBox",
          "name": "_bentobox",
          "type": "address"
        }
      ],
      "stateMutability": "nonpayable",
      "type": "constructor"
    },
    {
      "anonymous": false,
      "inputs": [
        {
          "indexed": true,
          "internalType": "address",
          "name": "owner",
          "type": "address"
        },
        {
          "indexed": true,
          "internalType": "address",
          "name": "approved",
          "type": "address"
        },
        {
          "indexed": true,
          "internalType": "uint256",
          "name": "tokenId",
          "type": "uint256"
        }
      ],
      "name": "Approval",
      "type": "event"
    },
    {
      "anonymous": false,
      "inputs": [
        {
          "indexed": true,
          "internalType": "address",
          "name": "owner",
          "type": "address"
        },
        {
          "indexed": true,
          "internalType": "address",
          "name": "operator",
          "type": "address"
        },
        {
          "indexed": false,
          "internalType": "bool",
          "name": "approved",
          "type": "bool"
        }
      ],
      "name": "ApprovalForAll",
      "type": "event"
    },
    {
      "anonymous": false,
      "inputs": [
        {
          "indexed": true,
          "internalType": "address",
          "name": "previousOwner",
          "type": "address"
        },
        {
          "indexed": true,
          "internalType": "address",
          "name": "newOwner",
          "type": "address"
        }
      ],
      "name": "OwnershipTransferred",
      "type": "event"
    },
    {
      "anonymous": false,
      "inputs": [
        {
          "indexed": true,
          "internalType": "address",
          "name": "from",
          "type": "address"
        },
        {
          "indexed": true,
          "internalType": "address",
          "name": "to",
          "type": "address"
        },
        {
          "indexed": true,
          "internalType": "uint256",
          "name": "tokenId",
          "type": "uint256"
        }
      ],
      "name": "Transfer",
      "type": "event"
    },
    {
      "inputs": [],
      "name": "_royalties",
      "outputs": [
        {
          "internalType": "address",
          "name": "recipient",
          "type": "address"
        },
        {
          "internalType": "uint24",
          "name": "amount",
          "type": "uint24"
        }
      ],
      "stateMutability": "view",
      "type": "function"
    },
    {
      "inputs": [
        {
          "internalType": "address",
          "name": "to",
          "type": "address"
        },
        {
          "internalType": "uint256",
          "name": "tokenId",
          "type": "uint256"
        }
      ],
      "name": "approve",
      "outputs": [],
      "stateMutability": "nonpayable",
      "type": "function"
    },
    {
      "inputs": [
        {
          "internalType": "address",
          "name": "owner",
          "type": "address"
        }
      ],
      "name": "balanceOf",
      "outputs": [
        {
          "internalType": "uint256",
          "name": "",
          "type": "uint256"
        }
      ],
      "stateMutability": "view",
      "type": "function"
    },
    {
      "inputs": [],
      "name": "bentobox",
      "outputs": [
        {
          "internalType": "contract FellowBentoBox",
          "name": "",
          "type": "address"
        }
      ],
      "stateMutability": "view",
      "type": "function"
    },
    {
      "inputs": [
        {
          "internalType": "uint256",
          "name": "_tokenId",
          "type": "uint256"
        },
        {
          "internalType": "address",
          "name": "_owner",
          "type": "address"
        }
      ],
      "name": "checkOwnership",
      "outputs": [
        {
          "internalType": "bool",
          "name": "",
          "type": "bool"
        }
      ],
      "stateMutability": "view",
      "type": "function"
    },
    {
      "inputs": [],
      "name": "currency",
      "outputs": [
        {
          "internalType": "address",
          "name": "",
          "type": "address"
        }
      ],
      "stateMutability": "view",
      "type": "function"
    },
    {
      "inputs": [
        {
          "internalType": "uint256",
          "name": "_tokenId",
          "type": "uint256"
        }
      ],
      "name": "evolve",
      "outputs": [],
      "stateMutability": "nonpayable",
      "type": "function"
    },
    {
      "inputs": [
        {
          "internalType": "uint256",
          "name": "",
          "type": "uint256"
        }
      ],
      "name": "fellows",
      "outputs": [
        {
          "internalType": "uint256",
          "name": "level",
          "type": "uint256"
        },
        {
          "internalType": "uint256",
          "name": "strength",
          "type": "uint256"
        },
        {
          "internalType": "uint256",
          "name": "math",
          "type": "uint256"
        },
        {
          "internalType": "uint256",
          "name": "literacy",
          "type": "uint256"
        },
        {
          "internalType": "uint256",
          "name": "science",
          "type": "uint256"
        },
        {
          "internalType": "uint256",
          "name": "wisdom",
          "type": "uint256"
        }
      ],
      "stateMutability": "view",
      "type": "function"
    },
    {
      "inputs": [
        {
          "internalType": "uint256",
          "name": "tokenId",
          "type": "uint256"
        }
      ],
      "name": "getApproved",
      "outputs": [
        {
          "internalType": "address",
          "name": "",
          "type": "address"
        }
      ],
      "stateMutability": "view",
      "type": "function"
    },
    {
      "inputs": [
        {
          "internalType": "uint256",
          "name": "_tokenId",
          "type": "uint256"
        }
      ],
      "name": "getLevel",
      "outputs": [
        {
          "internalType": "uint256",
          "name": "",
          "type": "uint256"
        },
        {
          "internalType": "uint256",
          "name": "",
          "type": "uint256"
        },
        {
          "internalType": "uint256",
          "name": "",
          "type": "uint256"
        },
        {
          "internalType": "uint256",
          "name": "",
          "type": "uint256"
        },
        {
          "internalType": "uint256",
          "name": "",
          "type": "uint256"
        },
        {
          "internalType": "uint256",
          "name": "",
          "type": "uint256"
        }
      ],
      "stateMutability": "view",
      "type": "function"
    },
    {
      "inputs": [
        {
          "internalType": "uint256",
          "name": "_tokenId",
          "type": "uint256"
        }
      ],
      "name": "getMaturity",
      "outputs": [
        {
          "internalType": "uint256",
          "name": "",
          "type": "uint256"
        }
      ],
      "stateMutability": "view",
      "type": "function"
    },
    {
      "inputs": [],
      "name": "getNewFellow",
      "outputs": [
        {
          "internalType": "bytes32",
          "name": "requestId",
          "type": "bytes32"
        }
      ],
      "stateMutability": "nonpayable",
      "type": "function"
    },
    {
      "inputs": [
        {
          "internalType": "address",
          "name": "owner",
          "type": "address"
        },
        {
          "internalType": "address",
          "name": "operator",
          "type": "address"
        }
      ],
      "name": "isApprovedForAll",
      "outputs": [
        {
          "internalType": "bool",
          "name": "",
          "type": "bool"
        }
      ],
      "stateMutability": "view",
      "type": "function"
    },
    {
      "inputs": [
        {
          "internalType": "uint256",
          "name": "_subject",
          "type": "uint256"
        },
        {
          "internalType": "uint256",
          "name": "_tokenId",
          "type": "uint256"
        },
        {
          "internalType": "uint256",
          "name": "_amount",
          "type": "uint256"
        }
      ],
      "name": "learn",
      "outputs": [],
      "stateMutability": "nonpayable",
      "type": "function"
    },
    {
      "inputs": [],
      "name": "name",
      "outputs": [
        {
          "internalType": "string",
          "name": "",
          "type": "string"
        }
      ],
      "stateMutability": "view",
      "type": "function"
    },
    {
      "inputs": [],
      "name": "owner",
      "outputs": [
        {
          "internalType": "address",
          "name": "",
          "type": "address"
        }
      ],
      "stateMutability": "view",
      "type": "function"
    },
    {
      "inputs": [
        {
          "internalType": "uint256",
          "name": "tokenId",
          "type": "uint256"
        }
      ],
      "name": "ownerOf",
      "outputs": [
        {
          "internalType": "address",
          "name": "",
          "type": "address"
        }
      ],
      "stateMutability": "view",
      "type": "function"
    },
    {
      "inputs": [
        {
          "internalType": "bytes32",
          "name": "requestId",
          "type": "bytes32"
        },
        {
          "internalType": "uint256",
          "name": "randomness",
          "type": "uint256"
        }
      ],
      "name": "rawFulfillRandomness",
      "outputs": [],
      "stateMutability": "nonpayable",
      "type": "function"
    },
    {
      "inputs": [],
      "name": "renounceOwnership",
      "outputs": [],
      "stateMutability": "nonpayable",
      "type": "function"
    },
    {
      "inputs": [
        {
          "internalType": "uint256",
          "name": "",
          "type": "uint256"
        },
        {
          "internalType": "uint256",
          "name": "value",
          "type": "uint256"
        }
      ],
      "name": "royaltyInfo",
      "outputs": [
        {
          "internalType": "address",
          "name": "receiver",
          "type": "address"
        },
        {
          "internalType": "uint256",
          "name": "royaltyAmount",
          "type": "uint256"
        }
      ],
      "stateMutability": "view",
      "type": "function"
    },
    {
      "inputs": [
        {
          "internalType": "address",
          "name": "from",
          "type": "address"
        },
        {
          "internalType": "address",
          "name": "to",
          "type": "address"
        },
        {
          "internalType": "uint256",
          "name": "tokenId",
          "type": "uint256"
        }
      ],
      "name": "safeTransferFrom",
      "outputs": [],
      "stateMutability": "nonpayable",
      "type": "function"
    },
    {
      "inputs": [
        {
          "internalType": "address",
          "name": "from",
          "type": "address"
        },
        {
          "internalType": "address",
          "name": "to",
          "type": "address"
        },
        {
          "internalType": "uint256",
          "name": "tokenId",
          "type": "uint256"
        },
        {
          "internalType": "bytes",
          "name": "_data",
          "type": "bytes"
        }
      ],
      "name": "safeTransferFrom",
      "outputs": [],
      "stateMutability": "nonpayable",
      "type": "function"
    },
    {
      "inputs": [
        {
          "internalType": "address",
          "name": "operator",
          "type": "address"
        },
        {
          "internalType": "bool",
          "name": "approved",
          "type": "bool"
        }
      ],
      "name": "setApprovalForAll",
      "outputs": [],
      "stateMutability": "nonpayable",
      "type": "function"
    },
    {
      "inputs": [
        {
          "internalType": "address",
          "name": "_gameAddress",
          "type": "address"
        }
      ],
      "name": "setGameAddress",
      "outputs": [],
      "stateMutability": "nonpayable",
      "type": "function"
    },
    {
      "inputs": [
        {
          "internalType": "bytes4",
          "name": "interfaceId",
          "type": "bytes4"
        }
      ],
      "name": "supportsInterface",
      "outputs": [
        {
          "internalType": "bool",
          "name": "",
          "type": "bool"
        }
      ],
      "stateMutability": "view",
      "type": "function"
    },
    {
      "inputs": [],
      "name": "symbol",
      "outputs": [
        {
          "internalType": "string",
          "name": "",
          "type": "string"
        }
      ],
      "stateMutability": "view",
      "type": "function"
    },
    {
      "inputs": [
        {
          "internalType": "uint256",
          "name": "tokenId",
          "type": "uint256"
        }
      ],
      "name": "tokenURI",
      "outputs": [
        {
          "internalType": "string",
          "name": "",
          "type": "string"
        }
      ],
      "stateMutability": "view",
      "type": "function"
    },
    {
      "inputs": [
        {
          "internalType": "address",
          "name": "from",
          "type": "address"
        },
        {
          "internalType": "address",
          "name": "to",
          "type": "address"
        },
        {
          "internalType": "uint256",
          "name": "tokenId",
          "type": "uint256"
        }
      ],
      "name": "transferFrom",
      "outputs": [],
      "stateMutability": "nonpayable",
      "type": "function"
    },
    {
      "inputs": [
        {
          "internalType": "address",
          "name": "newOwner",
          "type": "address"
        }
      ],
      "name": "transferOwnership",
      "outputs": [],
      "stateMutability": "nonpayable",
      "type": "function"
    }
  ],
  "bytecode": "0x6101006040523480156200001257600080fd5b5060405162004b1038038062004b108339818101604052810190620000389190620004cc565b73b3dccb4cf7a26f6cf6b120cf5a73875b7bbc655b7301be23585060835e02b77ef475b0cc51aa1e07096040518060400160405280600681526020017f46656c6c6f7700000000000000000000000000000000000000000000000000008152506040518060400160405280600281526020017f46430000000000000000000000000000000000000000000000000000000000008152508160009080519060200190620000e69291906200039e565b508060019080519060200190620000ff9291906200039e565b5050506200012262000116620002d060201b60201c565b620002d860201b60201c565b8173ffffffffffffffffffffffffffffffffffffffff1660a08173ffffffffffffffffffffffffffffffffffffffff16815250508073ffffffffffffffffffffffffffffffffffffffff1660808173ffffffffffffffffffffffffffffffffffffffff1681525050505060405180604001604052803073ffffffffffffffffffffffffffffffffffffffff16815260200161271062ffffff16815250601060008201518160000160006101000a81548173ffffffffffffffffffffffffffffffffffffffff021916908373ffffffffffffffffffffffffffffffffffffffff16021790555060208201518160000160146101000a81548162ffffff021916908362ffffff16021790555090505067016345785d8a0000600c819055506706f05b59d3b20000600d819055508073ffffffffffffffffffffffffffffffffffffffff1660c08173ffffffffffffffffffffffffffffffffffffffff1681525050738ad3aa5d5ff084307d28c8f514d7a193b2bfe72573ffffffffffffffffffffffffffffffffffffffff1660e08173ffffffffffffffffffffffffffffffffffffffff16815250505062000563565b600033905090565b6000600660009054906101000a900473ffffffffffffffffffffffffffffffffffffffff16905081600660006101000a81548173ffffffffffffffffffffffffffffffffffffffff021916908373ffffffffffffffffffffffffffffffffffffffff1602179055508173ffffffffffffffffffffffffffffffffffffffff168173ffffffffffffffffffffffffffffffffffffffff167f8be0079c531659141344cd1fd0a4f28419497f9722a3daafe3b4186f6b6457e060405160405180910390a35050565b828054620003ac906200052d565b90600052602060002090601f016020900481019282620003d057600085556200041c565b82601f10620003eb57805160ff19168380011785556200041c565b828001600101855582156200041c579182015b828111156200041b578251825591602001919060010190620003fe565b5b5090506200042b91906200042f565b5090565b5b808211156200044a57600081600090555060010162000430565b5090565b600080fd5b600073ffffffffffffffffffffffffffffffffffffffff82169050919050565b6000620004808262000453565b9050919050565b6000620004948262000473565b9050919050565b620004a68162000487565b8114620004b257600080fd5b50565b600081519050620004c6816200049b565b92915050565b600060208284031215620004e557620004e46200044e565b5b6000620004f584828501620004b5565b91505092915050565b7f4e487b7100000000000000000000000000000000000000000000000000000000600052602260045260246000fd5b600060028204905060018216806200054657607f821691505b602082108114156200055d576200055c620004fe565b5b50919050565b60805160a05160c05160e051614557620005b960003960008181610a5b0152611746015260008181610a1f01526115870152600081816112d8015261210101526000818161093501526120c501526145576000f3fe608060405234801561001057600080fd5b50600436106101cf5760003560e01c80637f1e7d4111610104578063b649d032116100a2578063e5a6b10f11610071578063e5a6b10f1461055e578063e985e9c51461057c578063f119f567146105ac578063f2fde38b146105c8576101cf565b8063b649d032146104bf578063b88d4fde146104dd578063c87b56dd146104f9578063e442174014610529576101cf565b80638da5cb5b116100de5780638da5cb5b1461044b57806394985ddd1461046957806395d89b4114610485578063a22cb465146104a3576101cf565b80637f1e7d41146103ca5780638397ff2a146103fa57806386481d4014610416576101cf565b80632a55205a1161017157806370a082311161014b57806370a0823114610344578063711953ef14610374578063715018a61461039057806377ade1901461039a576101cf565b80632a55205a146102c757806342842e0e146102f85780636352211e14610314576101cf565b8063095ea7b3116101ad578063095ea7b3146102525780630977fd731461026e57806323b872dd1461028d57806328ba5ee2146102a9576101cf565b806301ffc9a7146101d457806306fdde0314610204578063081812fc14610222575b600080fd5b6101ee60048036038101906101e99190612ca2565b6105e4565b6040516101fb9190612cea565b60405180910390f35b61020c61065e565b6040516102199190612d9e565b60405180910390f35b61023c60048036038101906102379190612df6565b6106f0565b6040516102499190612e64565b60405180910390f35b61026c60048036038101906102679190612eab565b610775565b005b61027661088d565b604051610284929190612f09565b60405180910390f35b6102a760048036038101906102a29190612f32565b6108ce565b005b6102b161092e565b6040516102be9190612f9e565b60405180910390f35b6102e160048036038101906102dc9190612fb9565b610b9b565b6040516102ef929190613008565b60405180910390f35b610312600480360381019061030d9190612f32565b610c5b565b005b61032e60048036038101906103299190612df6565b610c7b565b60405161033b9190612e64565b60405180910390f35b61035e60048036038101906103599190613031565b610d2d565b60405161036b919061305e565b60405180910390f35b61038e60048036038101906103899190613031565b610de5565b005b610398610ea5565b005b6103b460048036038101906103af9190613079565b610f2d565b6040516103c19190612cea565b60405180910390f35b6103e460048036038101906103df9190612df6565b610f85565b6040516103f1919061305e565b60405180910390f35b610414600480360381019061040f91906130b9565b611000565b005b610430600480360381019061042b9190612df6565b611202565b6040516104429695949392919061310c565b60405180910390f35b6104536112ac565b6040516104609190612e64565b60405180910390f35b610483600480360381019061047e9190613199565b6112d6565b005b61048d611372565b60405161049a9190612d9e565b60405180910390f35b6104bd60048036038101906104b89190613205565b611404565b005b6104c7611585565b6040516104d491906132a4565b60405180910390f35b6104f760048036038101906104f291906133f4565b6115a9565b005b610513600480360381019061050e9190612df6565b61160b565b6040516105209190612d9e565b60405180910390f35b610543600480360381019061053e9190612df6565b6116f8565b6040516105559695949392919061310c565b60405180910390f35b610566611744565b6040516105739190612e64565b60405180910390f35b61059660048036038101906105919190613477565b611768565b6040516105a39190612cea565b60405180910390f35b6105c660048036038101906105c19190612df6565b6117fc565b005b6105e260048036038101906105dd9190613031565b611a80565b005b60007f2a55205a000000000000000000000000000000000000000000000000000000007bffffffffffffffffffffffffffffffffffffffffffffffffffffffff1916827bffffffffffffffffffffffffffffffffffffffffffffffffffffffff19161480610657575061065682611b78565b5b9050919050565b60606000805461066d906134e6565b80601f0160208091040260200160405190810160405280929190818152602001828054610699906134e6565b80156106e65780601f106106bb576101008083540402835291602001916106e6565b820191906000526020600020905b8154815290600101906020018083116106c957829003601f168201915b5050505050905090565b60006106fb82611c5a565b61073a576040517f08c379a00000000000000000000000000000000000000000000000000000000081526004016107319061358a565b60405180910390fd5b6004600083815260200190815260200160002060009054906101000a900473ffffffffffffffffffffffffffffffffffffffff169050919050565b600061078082610c7b565b90508073ffffffffffffffffffffffffffffffffffffffff168373ffffffffffffffffffffffffffffffffffffffff1614156107f1576040517f08c379a00000000000000000000000000000000000000000000000000000000081526004016107e89061361c565b60405180910390fd5b8073ffffffffffffffffffffffffffffffffffffffff16610810611cc6565b73ffffffffffffffffffffffffffffffffffffffff16148061083f575061083e81610839611cc6565b611768565b5b61087e576040517f08c379a0000000000000000000000000000000000000000000000000000000008152600401610875906136ae565b60405180910390fd5b6108888383611cce565b505050565b60108060000160009054906101000a900473ffffffffffffffffffffffffffffffffffffffff16908060000160149054906101000a900462ffffff16905082565b6108df6108d9611cc6565b82611d87565b61091e576040517f08c379a000000000000000000000000000000000000000000000000000000000815260040161091590613740565b60405180910390fd5b610929838383611e65565b505050565b6000600c547f000000000000000000000000000000000000000000000000000000000000000073ffffffffffffffffffffffffffffffffffffffff166370a08231306040518263ffffffff1660e01b815260040161098c9190612e64565b60206040518083038186803b1580156109a457600080fd5b505afa1580156109b8573d6000803e3d6000fd5b505050506040513d601f19601f820116820180604052508101906109dc9190613775565b1015610a1d576040517f08c379a0000000000000000000000000000000000000000000000000000000008152600401610a1490613814565b60405180910390fd5b7f000000000000000000000000000000000000000000000000000000000000000073ffffffffffffffffffffffffffffffffffffffff1663518fd6c97f0000000000000000000000000000000000000000000000000000000000000000600d543360006040518563ffffffff1660e01b8152600401610a9f9493929190613834565b602060405180830381600087803b158015610ab957600080fd5b505af1158015610acd573d6000803e3d6000fd5b505050506040513d601f19601f82011682018060405250810190610af19190613775565b506000610b237f2ed0feb3e7fd2022120aa84fab1945545a9f2ffc9076fd6156fa96eaff4c131160001b600c546120c1565b9050336008600083815260200190815260200160002060006101000a81548173ffffffffffffffffffffffffffffffffffffffff021916908373ffffffffffffffffffffffffffffffffffffffff160217905550600f8054905060096000838152602001908152602001600020819055508091505090565b600080600060106040518060400160405290816000820160009054906101000a900473ffffffffffffffffffffffffffffffffffffffff1673ffffffffffffffffffffffffffffffffffffffff1673ffffffffffffffffffffffffffffffffffffffff1681526020016000820160149054906101000a900462ffffff1662ffffff1662ffffff1681525050905080600001519250612710816020015162ffffff1685610c4791906138a8565b610c519190613931565b9150509250929050565b610c76838383604051806020016040528060008152506115a9565b505050565b6000806002600084815260200190815260200160002060009054906101000a900473ffffffffffffffffffffffffffffffffffffffff169050600073ffffffffffffffffffffffffffffffffffffffff168173ffffffffffffffffffffffffffffffffffffffff161415610d24576040517f08c379a0000000000000000000000000000000000000000000000000000000008152600401610d1b906139d4565b60405180910390fd5b80915050919050565b60008073ffffffffffffffffffffffffffffffffffffffff168273ffffffffffffffffffffffffffffffffffffffff161415610d9e576040517f08c379a0000000000000000000000000000000000000000000000000000000008152600401610d9590613a66565b60405180910390fd5b600360008373ffffffffffffffffffffffffffffffffffffffff1673ffffffffffffffffffffffffffffffffffffffff168152602001908152602001600020549050919050565b610ded611cc6565b73ffffffffffffffffffffffffffffffffffffffff16610e0b6112ac565b73ffffffffffffffffffffffffffffffffffffffff1614610e61576040517f08c379a0000000000000000000000000000000000000000000000000000000008152600401610e5890613ad2565b60405180910390fd5b80600e60006101000a81548173ffffffffffffffffffffffffffffffffffffffff021916908373ffffffffffffffffffffffffffffffffffffffff16021790555050565b610ead611cc6565b73ffffffffffffffffffffffffffffffffffffffff16610ecb6112ac565b73ffffffffffffffffffffffffffffffffffffffff1614610f21576040517f08c379a0000000000000000000000000000000000000000000000000000000008152600401610f1890613ad2565b60405180910390fd5b610f2b6000612223565b565b600080610f3984610c7b565b90508273ffffffffffffffffffffffffffffffffffffffff168173ffffffffffffffffffffffffffffffffffffffff161415610f79576001915050610f7f565b60009150505b92915050565b600080600f8381548110610f9c57610f9b613af2565b5b90600052602060002090600602016040518060c0016040529081600082015481526020016001820154815260200160028201548152602001600382015481526020016004820154815260200160058201548152505090508060000151915050919050565b600e60009054906101000a900473ffffffffffffffffffffffffffffffffffffffff1673ffffffffffffffffffffffffffffffffffffffff163373ffffffffffffffffffffffffffffffffffffffff161461105a57600080fd5b6000600f83815481106110705761106f613af2565b5b9060005260206000209060060201905060008414156110cc5760028261109691906138a8565b8160000160008282546110a99190613b21565b92505081905550818160020160008282546110c49190613b21565b925050819055505b6001841415611118576002826110e291906138a8565b8160000160008282546110f59190613b21565b92505081905550818160030160008282546111109190613b21565b925050819055505b60028414156111645760028261112e91906138a8565b8160000160008282546111419190613b21565b925050819055508181600401600082825461115c9190613b21565b925050819055505b60038414156111b05760028261117a91906138a8565b81600001600082825461118d9190613b21565b92505081905550818160050160008282546111a89190613b21565b925050819055505b60048414156111fc576002826111c691906138a8565b8160000160008282546111d99190613b21565b92505081905550818160010160008282546111f49190613b21565b925050819055505b50505050565b6000806000806000806000600f888154811061122157611220613af2565b5b90600052602060002090600602016040518060c001604052908160008201548152602001600182015481526020016002820154815260200160038201548152602001600482015481526020016005820154815250509050806000015181602001518260600151836040015184608001518560a001519650965096509650965096505091939550919395565b6000600660009054906101000a900473ffffffffffffffffffffffffffffffffffffffff16905090565b7f000000000000000000000000000000000000000000000000000000000000000073ffffffffffffffffffffffffffffffffffffffff163373ffffffffffffffffffffffffffffffffffffffff1614611364576040517f08c379a000000000000000000000000000000000000000000000000000000000815260040161135b90613bc3565b60405180910390fd5b61136e82826122e9565b5050565b606060018054611381906134e6565b80601f01602080910402602001604051908101604052809291908181526020018280546113ad906134e6565b80156113fa5780601f106113cf576101008083540402835291602001916113fa565b820191906000526020600020905b8154815290600101906020018083116113dd57829003601f168201915b5050505050905090565b61140c611cc6565b73ffffffffffffffffffffffffffffffffffffffff168273ffffffffffffffffffffffffffffffffffffffff16141561147a576040517f08c379a000000000000000000000000000000000000000000000000000000000815260040161147190613c2f565b60405180910390fd5b8060056000611487611cc6565b73ffffffffffffffffffffffffffffffffffffffff1673ffffffffffffffffffffffffffffffffffffffff16815260200190815260200160002060008473ffffffffffffffffffffffffffffffffffffffff1673ffffffffffffffffffffffffffffffffffffffff16815260200190815260200160002060006101000a81548160ff0219169083151502179055508173ffffffffffffffffffffffffffffffffffffffff16611534611cc6565b73ffffffffffffffffffffffffffffffffffffffff167f17307eab39ab6107e8899845ad3d59bd9653f200f220920489ca2b5937696c31836040516115799190612cea565b60405180910390a35050565b7f000000000000000000000000000000000000000000000000000000000000000081565b6115ba6115b4611cc6565b83611d87565b6115f9576040517f08c379a00000000000000000000000000000000000000000000000000000000081526004016115f090613740565b60405180910390fd5b61160584848484612478565b50505050565b606061161682611c5a565b611655576040517f08c379a000000000000000000000000000000000000000000000000000000000815260040161164c90613cc1565b60405180910390fd5b600a60008381526020019081526020016000208054611673906134e6565b80601f016020809104026020016040519081016040528092919081815260200182805461169f906134e6565b80156116ec5780601f106116c1576101008083540402835291602001916116ec565b820191906000526020600020905b8154815290600101906020018083116116cf57829003601f168201915b50505050509050919050565b600f818154811061170857600080fd5b90600052602060002090600602016000915090508060000154908060010154908060020154908060030154908060040154908060050154905086565b7f000000000000000000000000000000000000000000000000000000000000000081565b6000600560008473ffffffffffffffffffffffffffffffffffffffff1673ffffffffffffffffffffffffffffffffffffffff16815260200190815260200160002060008373ffffffffffffffffffffffffffffffffffffffff1673ffffffffffffffffffffffffffffffffffffffff16815260200190815260200160002060009054906101000a900460ff16905092915050565b600e60009054906101000a900473ffffffffffffffffffffffffffffffffffffffff1673ffffffffffffffffffffffffffffffffffffffff163373ffffffffffffffffffffffffffffffffffffffff161461188c576040517f08c379a000000000000000000000000000000000000000000000000000000000815260040161188390613d53565b60405180910390fd5b6000600f82815481106118a2576118a1613af2565b5b9060005260206000209060060201905060058160000154106119895761190d6118c96124d4565b6118d2846124f4565b6040518060400160405280600581526020017f2e6a736f6e000000000000000000000000000000000000000000000000000000815250612655565b600a60008481526020019081526020016000209080519060200190611933929190612b93565b50600a8160020160008282546119499190613b21565b92505081905550600a8160030160008282546119659190613b21565b92505081905550600a8160040160008282546119819190613b21565b925050819055505b600a816000015410611a7c576119e46119a0612684565b6119a9846124f4565b6040518060400160405280600581526020017f2e6a736f6e000000000000000000000000000000000000000000000000000000815250612655565b600a60008481526020019081526020016000209080519060200190611a0a929190612b93565b50600a816002016000828254611a209190613b21565b92505081905550600a816003016000828254611a3c9190613b21565b92505081905550600a816004016000828254611a589190613b21565b925050819055506014816005016000828254611a749190613b21565b925050819055505b5050565b611a88611cc6565b73ffffffffffffffffffffffffffffffffffffffff16611aa66112ac565b73ffffffffffffffffffffffffffffffffffffffff1614611afc576040517f08c379a0000000000000000000000000000000000000000000000000000000008152600401611af390613ad2565b60405180910390fd5b600073ffffffffffffffffffffffffffffffffffffffff168173ffffffffffffffffffffffffffffffffffffffff161415611b6c576040517f08c379a0000000000000000000000000000000000000000000000000000000008152600401611b6390613de5565b60405180910390fd5b611b7581612223565b50565b60007f80ac58cd000000000000000000000000000000000000000000000000000000007bffffffffffffffffffffffffffffffffffffffffffffffffffffffff1916827bffffffffffffffffffffffffffffffffffffffffffffffffffffffff19161480611c4357507f5b5e139f000000000000000000000000000000000000000000000000000000007bffffffffffffffffffffffffffffffffffffffffffffffffffffffff1916827bffffffffffffffffffffffffffffffffffffffffffffffffffffffff1916145b80611c535750611c52826126a4565b5b9050919050565b60008073ffffffffffffffffffffffffffffffffffffffff166002600084815260200190815260200160002060009054906101000a900473ffffffffffffffffffffffffffffffffffffffff1673ffffffffffffffffffffffffffffffffffffffff1614159050919050565b600033905090565b816004600083815260200190815260200160002060006101000a81548173ffffffffffffffffffffffffffffffffffffffff021916908373ffffffffffffffffffffffffffffffffffffffff160217905550808273ffffffffffffffffffffffffffffffffffffffff16611d4183610c7b565b73ffffffffffffffffffffffffffffffffffffffff167f8c5be1e5ebec7d5bd14f71427d1e84f3dd0314c0f7b2291e5b200ac8c7c3b92560405160405180910390a45050565b6000611d9282611c5a565b611dd1576040517f08c379a0000000000000000000000000000000000000000000000000000000008152600401611dc890613e77565b60405180910390fd5b6000611ddc83610c7b565b90508073ffffffffffffffffffffffffffffffffffffffff168473ffffffffffffffffffffffffffffffffffffffff161480611e4b57508373ffffffffffffffffffffffffffffffffffffffff16611e33846106f0565b73ffffffffffffffffffffffffffffffffffffffff16145b80611e5c5750611e5b8185611768565b5b91505092915050565b8273ffffffffffffffffffffffffffffffffffffffff16611e8582610c7b565b73ffffffffffffffffffffffffffffffffffffffff1614611edb576040517f08c379a0000000000000000000000000000000000000000000000000000000008152600401611ed290613f09565b60405180910390fd5b600073ffffffffffffffffffffffffffffffffffffffff168273ffffffffffffffffffffffffffffffffffffffff161415611f4b576040517f08c379a0000000000000000000000000000000000000000000000000000000008152600401611f4290613f9b565b60405180910390fd5b611f5683838361270e565b611f61600082611cce565b6001600360008573ffffffffffffffffffffffffffffffffffffffff1673ffffffffffffffffffffffffffffffffffffffff1681526020019081526020016000206000828254611fb19190613fbb565b925050819055506001600360008473ffffffffffffffffffffffffffffffffffffffff1673ffffffffffffffffffffffffffffffffffffffff16815260200190815260200160002060008282546120089190613b21565b92505081905550816002600083815260200190815260200160002060006101000a81548173ffffffffffffffffffffffffffffffffffffffff021916908373ffffffffffffffffffffffffffffffffffffffff160217905550808273ffffffffffffffffffffffffffffffffffffffff168473ffffffffffffffffffffffffffffffffffffffff167fddf252ad1be2c89b69c2b068fc378daa952ba7f163c4a11628f55a4df523b3ef60405160405180910390a4505050565b60007f000000000000000000000000000000000000000000000000000000000000000073ffffffffffffffffffffffffffffffffffffffff16634000aea07f000000000000000000000000000000000000000000000000000000000000000084866000604051602001612135929190613fef565b6040516020818303038152906040526040518463ffffffff1660e01b81526004016121629392919061406d565b602060405180830381600087803b15801561217c57600080fd5b505af1158015612190573d6000803e3d6000fd5b505050506040513d601f19601f820116820180604052508101906121b491906140c0565b5060006121d7846000306007600089815260200190815260200160002054612713565b9050600160076000868152602001908152602001600020546121f99190613b21565b600760008681526020019081526020016000208190555061221a848261274f565b91505092915050565b6000600660009054906101000a900473ffffffffffffffffffffffffffffffffffffffff16905081600660006101000a81548173ffffffffffffffffffffffffffffffffffffffff021916908373ffffffffffffffffffffffffffffffffffffffff1602179055508173ffffffffffffffffffffffffffffffffffffffff168173ffffffffffffffffffffffffffffffffffffffff167f8be0079c531659141344cd1fd0a4f28419497f9722a3daafe3b4186f6b6457e060405160405180910390a35050565b6000600a826122f891906140ed565b9050600f6040518060c001604052806000815260200183815260200160008152602001600081526020016000815260200160008152509080600181540180825580915050600190039060005260206000209060060201600090919091909150600082015181600001556020820151816001015560408201518160020155606082015181600301556080820151816004015560a0820151816005015550506123e96123a0612782565b6123ae600f805490506124f4565b6040518060400160405280600581526020017f2e6a736f6e000000000000000000000000000000000000000000000000000000815250612655565b600a6000600960008781526020019081526020016000205481526020019081526020016000209080519060200190612422929190612b93565b506124736008600085815260200190815260200160002060009054906101000a900473ffffffffffffffffffffffffffffffffffffffff1660096000868152602001908152602001600020546127a2565b505050565b612483848484611e65565b61248f848484846127c0565b6124ce576040517f08c379a00000000000000000000000000000000000000000000000000000000081526004016124c590614190565b60405180910390fd5b50505050565b60606040518060600160405280603681526020016144ec60369139905090565b6060600082141561253c576040518060400160405280600181526020017f30000000000000000000000000000000000000000000000000000000000000008152509050612650565b600082905060005b6000821461256e578080612557906141b0565b915050600a826125679190613931565b9150612544565b60008167ffffffffffffffff81111561258a576125896132c9565b5b6040519080825280601f01601f1916602001820160405280156125bc5781602001600182028036833780820191505090505b5090505b60008514612649576001826125d59190613fbb565b9150600a856125e491906140ed565b60306125f09190613b21565b60f81b81838151811061260657612605613af2565b5b60200101907effffffffffffffffffffffffffffffffffffffffffffffffffffffffffffff1916908160001a905350600a856126429190613931565b94506125c0565b8093505050505b919050565b606083838360405160200161266c93929190614235565b60405160208183030381529060405290509392505050565b606060405180606001604052806036815260200161448060369139905090565b60007f01ffc9a7000000000000000000000000000000000000000000000000000000007bffffffffffffffffffffffffffffffffffffffffffffffffffffffff1916827bffffffffffffffffffffffffffffffffffffffffffffffffffffffff1916149050919050565b505050565b60008484848460405160200161272c9493929190614266565b6040516020818303038152906040528051906020012060001c9050949350505050565b600082826040516020016127649291906142ed565b60405160208183030381529060405280519060200120905092915050565b60606040518060600160405280603681526020016144b660369139905090565b6127bc828260405180602001604052806000815250612957565b5050565b60006127e18473ffffffffffffffffffffffffffffffffffffffff166129b2565b1561294a578373ffffffffffffffffffffffffffffffffffffffff1663150b7a0261280a611cc6565b8786866040518563ffffffff1660e01b815260040161282c9493929190614319565b602060405180830381600087803b15801561284657600080fd5b505af192505050801561287757506040513d601f19601f82011682018060405250810190612874919061437a565b60015b6128fa573d80600081146128a7576040519150601f19603f3d011682016040523d82523d6000602084013e6128ac565b606091505b506000815114156128f2576040517f08c379a00000000000000000000000000000000000000000000000000000000081526004016128e990614190565b60405180910390fd5b805181602001fd5b63150b7a0260e01b7bffffffffffffffffffffffffffffffffffffffffffffffffffffffff1916817bffffffffffffffffffffffffffffffffffffffffffffffffffffffff19161491505061294f565b600190505b949350505050565b61296183836129c5565b61296e60008484846127c0565b6129ad576040517f08c379a00000000000000000000000000000000000000000000000000000000081526004016129a490614190565b60405180910390fd5b505050565b600080823b905060008111915050919050565b600073ffffffffffffffffffffffffffffffffffffffff168273ffffffffffffffffffffffffffffffffffffffff161415612a35576040517f08c379a0000000000000000000000000000000000000000000000000000000008152600401612a2c906143f3565b60405180910390fd5b612a3e81611c5a565b15612a7e576040517f08c379a0000000000000000000000000000000000000000000000000000000008152600401612a759061445f565b60405180910390fd5b612a8a6000838361270e565b6001600360008473ffffffffffffffffffffffffffffffffffffffff1673ffffffffffffffffffffffffffffffffffffffff1681526020019081526020016000206000828254612ada9190613b21565b92505081905550816002600083815260200190815260200160002060006101000a81548173ffffffffffffffffffffffffffffffffffffffff021916908373ffffffffffffffffffffffffffffffffffffffff160217905550808273ffffffffffffffffffffffffffffffffffffffff16600073ffffffffffffffffffffffffffffffffffffffff167fddf252ad1be2c89b69c2b068fc378daa952ba7f163c4a11628f55a4df523b3ef60405160405180910390a45050565b828054612b9f906134e6565b90600052602060002090601f016020900481019282612bc15760008555612c08565b82601f10612bda57805160ff1916838001178555612c08565b82800160010185558215612c08579182015b82811115612c07578251825591602001919060010190612bec565b5b509050612c159190612c19565b5090565b5b80821115612c32576000816000905550600101612c1a565b5090565b6000604051905090565b600080fd5b600080fd5b60007fffffffff0000000000000000000000000000000000000000000000000000000082169050919050565b612c7f81612c4a565b8114612c8a57600080fd5b50565b600081359050612c9c81612c76565b92915050565b600060208284031215612cb857612cb7612c40565b5b6000612cc684828501612c8d565b91505092915050565b60008115159050919050565b612ce481612ccf565b82525050565b6000602082019050612cff6000830184612cdb565b92915050565b600081519050919050565b600082825260208201905092915050565b60005b83811015612d3f578082015181840152602081019050612d24565b83811115612d4e576000848401525b50505050565b6000601f19601f8301169050919050565b6000612d7082612d05565b612d7a8185612d10565b9350612d8a818560208601612d21565b612d9381612d54565b840191505092915050565b60006020820190508181036000830152612db88184612d65565b905092915050565b6000819050919050565b612dd381612dc0565b8114612dde57600080fd5b50565b600081359050612df081612dca565b92915050565b600060208284031215612e0c57612e0b612c40565b5b6000612e1a84828501612de1565b91505092915050565b600073ffffffffffffffffffffffffffffffffffffffff82169050919050565b6000612e4e82612e23565b9050919050565b612e5e81612e43565b82525050565b6000602082019050612e796000830184612e55565b92915050565b612e8881612e43565b8114612e9357600080fd5b50565b600081359050612ea581612e7f565b92915050565b60008060408385031215612ec257612ec1612c40565b5b6000612ed085828601612e96565b9250506020612ee185828601612de1565b9150509250929050565b600062ffffff82169050919050565b612f0381612eeb565b82525050565b6000604082019050612f1e6000830185612e55565b612f2b6020830184612efa565b9392505050565b600080600060608486031215612f4b57612f4a612c40565b5b6000612f5986828701612e96565b9350506020612f6a86828701612e96565b9250506040612f7b86828701612de1565b9150509250925092565b6000819050919050565b612f9881612f85565b82525050565b6000602082019050612fb36000830184612f8f565b92915050565b60008060408385031215612fd057612fcf612c40565b5b6000612fde85828601612de1565b9250506020612fef85828601612de1565b9150509250929050565b61300281612dc0565b82525050565b600060408201905061301d6000830185612e55565b61302a6020830184612ff9565b9392505050565b60006020828403121561304757613046612c40565b5b600061305584828501612e96565b91505092915050565b60006020820190506130736000830184612ff9565b92915050565b600080604083850312156130905761308f612c40565b5b600061309e85828601612de1565b92505060206130af85828601612e96565b9150509250929050565b6000806000606084860312156130d2576130d1612c40565b5b60006130e086828701612de1565b93505060206130f186828701612de1565b925050604061310286828701612de1565b9150509250925092565b600060c0820190506131216000830189612ff9565b61312e6020830188612ff9565b61313b6040830187612ff9565b6131486060830186612ff9565b6131556080830185612ff9565b61316260a0830184612ff9565b979650505050505050565b61317681612f85565b811461318157600080fd5b50565b6000813590506131938161316d565b92915050565b600080604083850312156131b0576131af612c40565b5b60006131be85828601613184565b92505060206131cf85828601612de1565b9150509250929050565b6131e281612ccf565b81146131ed57600080fd5b50565b6000813590506131ff816131d9565b92915050565b6000806040838503121561321c5761321b612c40565b5b600061322a85828601612e96565b925050602061323b858286016131f0565b9150509250929050565b6000819050919050565b600061326a61326561326084612e23565b613245565b612e23565b9050919050565b600061327c8261324f565b9050919050565b600061328e82613271565b9050919050565b61329e81613283565b82525050565b60006020820190506132b96000830184613295565b92915050565b600080fd5b600080fd5b7f4e487b7100000000000000000000000000000000000000000000000000000000600052604160045260246000fd5b61330182612d54565b810181811067ffffffffffffffff821117156133205761331f6132c9565b5b80604052505050565b6000613333612c36565b905061333f82826132f8565b919050565b600067ffffffffffffffff82111561335f5761335e6132c9565b5b61336882612d54565b9050602081019050919050565b82818337600083830152505050565b600061339761339284613344565b613329565b9050828152602081018484840111156133b3576133b26132c4565b5b6133be848285613375565b509392505050565b600082601f8301126133db576133da6132bf565b5b81356133eb848260208601613384565b91505092915050565b6000806000806080858703121561340e5761340d612c40565b5b600061341c87828801612e96565b945050602061342d87828801612e96565b935050604061343e87828801612de1565b925050606085013567ffffffffffffffff81111561345f5761345e612c45565b5b61346b878288016133c6565b91505092959194509250565b6000806040838503121561348e5761348d612c40565b5b600061349c85828601612e96565b92505060206134ad85828601612e96565b9150509250929050565b7f4e487b7100000000000000000000000000000000000000000000000000000000600052602260045260246000fd5b600060028204905060018216806134fe57607f821691505b60208210811415613512576135116134b7565b5b50919050565b7f4552433732313a20617070726f76656420717565727920666f72206e6f6e657860008201527f697374656e7420746f6b656e0000000000000000000000000000000000000000602082015250565b6000613574602c83612d10565b915061357f82613518565b604082019050919050565b600060208201905081810360008301526135a381613567565b9050919050565b7f4552433732313a20617070726f76616c20746f2063757272656e74206f776e6560008201527f7200000000000000000000000000000000000000000000000000000000000000602082015250565b6000613606602183612d10565b9150613611826135aa565b604082019050919050565b60006020820190508181036000830152613635816135f9565b9050919050565b7f4552433732313a20617070726f76652063616c6c6572206973206e6f74206f7760008201527f6e6572206e6f7220617070726f76656420666f7220616c6c0000000000000000602082015250565b6000613698603883612d10565b91506136a38261363c565b604082019050919050565b600060208201905081810360008301526136c78161368b565b9050919050565b7f4552433732313a207472616e736665722063616c6c6572206973206e6f74206f60008201527f776e6572206e6f7220617070726f766564000000000000000000000000000000602082015250565b600061372a603183612d10565b9150613735826136ce565b604082019050919050565b600060208201905081810360008301526137598161371d565b9050919050565b60008151905061376f81612dca565b92915050565b60006020828403121561378b5761378a612c40565b5b600061379984828501613760565b91505092915050565b7f4e6f7420656e6f756768204c494e4b202d2066696c6c20636f6e74726163742060008201527f7769746820666175636574000000000000000000000000000000000000000000602082015250565b60006137fe602b83612d10565b9150613809826137a2565b604082019050919050565b6000602082019050818103600083015261382d816137f1565b9050919050565b60006080820190506138496000830187612e55565b6138566020830186612ff9565b6138636040830185612e55565b6138706060830184612cdb565b95945050505050565b7f4e487b7100000000000000000000000000000000000000000000000000000000600052601160045260246000fd5b60006138b382612dc0565b91506138be83612dc0565b9250817fffffffffffffffffffffffffffffffffffffffffffffffffffffffffffffffff04831182151516156138f7576138f6613879565b5b828202905092915050565b7f4e487b7100000000000000000000000000000000000000000000000000000000600052601260045260246000fd5b600061393c82612dc0565b915061394783612dc0565b92508261395757613956613902565b5b828204905092915050565b7f4552433732313a206f776e657220717565727920666f72206e6f6e657869737460008201527f656e7420746f6b656e0000000000000000000000000000000000000000000000602082015250565b60006139be602983612d10565b91506139c982613962565b604082019050919050565b600060208201905081810360008301526139ed816139b1565b9050919050565b7f4552433732313a2062616c616e636520717565727920666f7220746865207a6560008201527f726f206164647265737300000000000000000000000000000000000000000000602082015250565b6000613a50602a83612d10565b9150613a5b826139f4565b604082019050919050565b60006020820190508181036000830152613a7f81613a43565b9050919050565b7f4f776e61626c653a2063616c6c6572206973206e6f7420746865206f776e6572600082015250565b6000613abc602083612d10565b9150613ac782613a86565b602082019050919050565b60006020820190508181036000830152613aeb81613aaf565b9050919050565b7f4e487b7100000000000000000000000000000000000000000000000000000000600052603260045260246000fd5b6000613b2c82612dc0565b9150613b3783612dc0565b9250827fffffffffffffffffffffffffffffffffffffffffffffffffffffffffffffffff03821115613b6c57613b6b613879565b5b828201905092915050565b7f4f6e6c7920565246436f6f7264696e61746f722063616e2066756c66696c6c00600082015250565b6000613bad601f83612d10565b9150613bb882613b77565b602082019050919050565b60006020820190508181036000830152613bdc81613ba0565b9050919050565b7f4552433732313a20617070726f766520746f2063616c6c657200000000000000600082015250565b6000613c19601983612d10565b9150613c2482613be3565b602082019050919050565b60006020820190508181036000830152613c4881613c0c565b9050919050565b7f4552433732314d657461646174613a2055524920717565727920666f72206e6f60008201527f6e6578697374656e7420746f6b656e0000000000000000000000000000000000602082015250565b6000613cab602f83612d10565b9150613cb682613c4f565b604082019050919050565b60006020820190508181036000830152613cda81613c9e565b9050919050565b7f796f7520646f6e277420686176652061636365737320746f2063616c6c20746860008201527f69732066756e6374696f6e000000000000000000000000000000000000000000602082015250565b6000613d3d602b83612d10565b9150613d4882613ce1565b604082019050919050565b60006020820190508181036000830152613d6c81613d30565b9050919050565b7f4f776e61626c653a206e6577206f776e657220697320746865207a65726f206160008201527f6464726573730000000000000000000000000000000000000000000000000000602082015250565b6000613dcf602683612d10565b9150613dda82613d73565b604082019050919050565b60006020820190508181036000830152613dfe81613dc2565b9050919050565b7f4552433732313a206f70657261746f7220717565727920666f72206e6f6e657860008201527f697374656e7420746f6b656e0000000000000000000000000000000000000000602082015250565b6000613e61602c83612d10565b9150613e6c82613e05565b604082019050919050565b60006020820190508181036000830152613e9081613e54565b9050919050565b7f4552433732313a207472616e73666572206f6620746f6b656e2074686174206960008201527f73206e6f74206f776e0000000000000000000000000000000000000000000000602082015250565b6000613ef3602983612d10565b9150613efe82613e97565b604082019050919050565b60006020820190508181036000830152613f2281613ee6565b9050919050565b7f4552433732313a207472616e7366657220746f20746865207a65726f2061646460008201527f7265737300000000000000000000000000000000000000000000000000000000602082015250565b6000613f85602483612d10565b9150613f9082613f29565b604082019050919050565b60006020820190508181036000830152613fb481613f78565b9050919050565b6000613fc682612dc0565b9150613fd183612dc0565b925082821015613fe457613fe3613879565b5b828203905092915050565b60006040820190506140046000830185612f8f565b6140116020830184612ff9565b9392505050565b600081519050919050565b600082825260208201905092915050565b600061403f82614018565b6140498185614023565b9350614059818560208601612d21565b61406281612d54565b840191505092915050565b60006060820190506140826000830186612e55565b61408f6020830185612ff9565b81810360408301526140a18184614034565b9050949350505050565b6000815190506140ba816131d9565b92915050565b6000602082840312156140d6576140d5612c40565b5b60006140e4848285016140ab565b91505092915050565b60006140f882612dc0565b915061410383612dc0565b92508261411357614112613902565b5b828206905092915050565b7f4552433732313a207472616e7366657220746f206e6f6e20455243373231526560008201527f63656976657220696d706c656d656e7465720000000000000000000000000000602082015250565b600061417a603283612d10565b91506141858261411e565b604082019050919050565b600060208201905081810360008301526141a98161416d565b9050919050565b60006141bb82612dc0565b91507fffffffffffffffffffffffffffffffffffffffffffffffffffffffffffffffff8214156141ee576141ed613879565b5b600182019050919050565b600081905092915050565b600061420f82612d05565b61421981856141f9565b9350614229818560208601612d21565b80840191505092915050565b60006142418286614204565b915061424d8285614204565b91506142598284614204565b9150819050949350505050565b600060808201905061427b6000830187612f8f565b6142886020830186612ff9565b6142956040830185612e55565b6142a26060830184612ff9565b95945050505050565b6000819050919050565b6142c66142c182612f85565b6142ab565b82525050565b6000819050919050565b6142e76142e282612dc0565b6142cc565b82525050565b60006142f982856142b5565b60208201915061430982846142d6565b6020820191508190509392505050565b600060808201905061432e6000830187612e55565b61433b6020830186612e55565b6143486040830185612ff9565b818103606083015261435a8184614034565b905095945050505050565b60008151905061437481612c76565b92915050565b6000602082840312156143905761438f612c40565b5b600061439e84828501614365565b91505092915050565b7f4552433732313a206d696e7420746f20746865207a65726f2061646472657373600082015250565b60006143dd602083612d10565b91506143e8826143a7565b602082019050919050565b6000602082019050818103600083015261440c816143d0565b9050919050565b7f4552433732313a20746f6b656e20616c7265616479206d696e74656400000000600082015250565b6000614449601c83612d10565b915061445482614413565b602082019050919050565b600060208201905081810360008301526144788161443c565b905091905056fe697066733a2f2f516d59543271594359544e6756786f4844675543366655424a735043766d5347757a314177386a567968573659452f697066733a2f2f516d647a36715131676b487342757869776d4c59794d38506565694271394a796a624755564e33577951654763572f697066733a2f2f516d526548614452776e6b637a6b7955523533795050337241787679504e4b31317a66613243666e44346f69746f2fa2646970667358221220c39893a8dc695d6151770804faa4ee2209fa547b2ff23a4668b9f825c446606a64736f6c63430008090033",
  "linkReferences": {},
  "deployedLinkReferences": {}
}