{
  "_format": "hh-sol-artifact-1",
  "contractName": "SafeERC20",
  "sourceName": "contracts/libraries/SafeERC20.sol",
  "abi": [
    {
      "inputs": [
        {
          "internalType": "contract IERC20",
          "name": "token",
          "type": "IERC20"
        }
      ],
      "name": "safeDecimals",
      "outputs": [
        {
          "internalType": "uint8",
          "name": "",
          "type": "uint8"
        }
      ],
      "stateMutability": "view",
      "type": "function"
    }
  ],
  "bytecode": "0x610354610053600b82828239805160001a607314610046577f4e487b7100000000000000000000000000000000000000000000000000000000600052600060045260246000fd5b30600052607381538281f3fe73000000000000000000000000000000000000000030146080604052600436106100355760003560e01c806372a58ae11461003a575b600080fd5b610054600480360381019061004f91906101d0565b61006a565b6040516100619190610219565b60405180910390f35b60008060008373ffffffffffffffffffffffffffffffffffffffff1663313ce5676040516024016040516020818303038152906040529060e01b6020820180517bffffffffffffffffffffffffffffffffffffffffffffffffffffffff83818316178352505050506040516100df91906102ae565b600060405180830381855afa9150503d806000811461011a576040519150601f19603f3d011682016040523d82523d6000602084013e61011f565b606091505b5091509150818015610132575060208151145b61013d576012610152565b8080602001905181019061015191906102f1565b5b92505050919050565b600080fd5b600073ffffffffffffffffffffffffffffffffffffffff82169050919050565b600061018b82610160565b9050919050565b600061019d82610180565b9050919050565b6101ad81610192565b81146101b857600080fd5b50565b6000813590506101ca816101a4565b92915050565b6000602082840312156101e6576101e561015b565b5b60006101f4848285016101bb565b91505092915050565b600060ff82169050919050565b610213816101fd565b82525050565b600060208201905061022e600083018461020a565b92915050565b600081519050919050565b600081905092915050565b60005b8381101561026857808201518184015260208101905061024d565b83811115610277576000848401525b50505050565b600061028882610234565b610292818561023f565b93506102a281856020860161024a565b80840191505092915050565b60006102ba828461027d565b915081905092915050565b6102ce816101fd565b81146102d957600080fd5b50565b6000815190506102eb816102c5565b92915050565b6000602082840312156103075761030661015b565b5b6000610315848285016102dc565b9150509291505056fea26469706673582212203f93b946e946ca061ca6871952425c66c7f76b46e19cbf69a73ef4193b67f5df64736f6c63430008090033",
  "linkReferences": {},
  "deployedLinkReferences": {}
}