{
  "_format": "hh-sol-artifact-1",
  "contractName": "BaseBoringBatchable",
  "sourceName": "contracts/utils/BoringBatchable.sol",
  "abi": [
    {
      "inputs": [
        {
          "internalType": "bytes[]",
          "name": "calls",
          "type": "bytes[]"
        },
        {
          "internalType": "bool",
          "name": "revertOnFail",
          "type": "bool"
        }
      ],
      "name": "batch",
      "outputs": [],
      "stateMutability": "payable",
      "type": "function"
    }
  ],
  "bytecode": "0x608060405234801561001057600080fd5b506106a1806100206000396000f3fe60806040526004361061001e5760003560e01c8063d2423b5114610023575b600080fd5b61003d6004803603810190610038919061026b565b61003f565b005b60005b83839050811015610149576000803073ffffffffffffffffffffffffffffffffffffffff1686868581811061007a576100796102cb565b5b905060200281019061008c9190610309565b60405161009a9291906103ab565b600060405180830381855af49150503d80600081146100d5576040519150601f19603f3d011682016040523d82523d6000602084013e6100da565b606091505b5091509150811580156100ea5750835b15610134576100f88161014f565b6040517f08c379a000000000000000000000000000000000000000000000000000000000815260040161012b919061045d565b60405180910390fd5b50508080610141906104b8565b915050610042565b50505050565b6060604482511015610198576040518060400160405280601d81526020017f5472616e73616374696f6e2072657665727465642073696c656e746c7900000081525090506101b5565b600482019150818060200190518101906101b29190610622565b90505b919050565b6000604051905090565b600080fd5b600080fd5b600080fd5b600080fd5b600080fd5b60008083601f8401126101f3576101f26101ce565b5b8235905067ffffffffffffffff8111156102105761020f6101d3565b5b60208301915083602082028301111561022c5761022b6101d8565b5b9250929050565b60008115159050919050565b61024881610233565b811461025357600080fd5b50565b6000813590506102658161023f565b92915050565b600080600060408486031215610284576102836101c4565b5b600084013567ffffffffffffffff8111156102a2576102a16101c9565b5b6102ae868287016101dd565b935093505060206102c186828701610256565b9150509250925092565b7f4e487b7100000000000000000000000000000000000000000000000000000000600052603260045260246000fd5b600080fd5b600080fd5b600080fd5b60008083356001602003843603038112610326576103256102fa565b5b80840192508235915067ffffffffffffffff821115610348576103476102ff565b5b60208301925060018202360383131561036457610363610304565b5b509250929050565b600081905092915050565b82818337600083830152505050565b6000610392838561036c565b935061039f838584610377565b82840190509392505050565b60006103b8828486610386565b91508190509392505050565b600081519050919050565b600082825260208201905092915050565b60005b838110156103fe5780820151818401526020810190506103e3565b8381111561040d576000848401525b50505050565b6000601f19601f8301169050919050565b600061042f826103c4565b61043981856103cf565b93506104498185602086016103e0565b61045281610413565b840191505092915050565b600060208201905081810360008301526104778184610424565b905092915050565b7f4e487b7100000000000000000000000000000000000000000000000000000000600052601160045260246000fd5b6000819050919050565b60006104c3826104ae565b91507fffffffffffffffffffffffffffffffffffffffffffffffffffffffffffffffff8214156104f6576104f561047f565b5b600182019050919050565b600080fd5b7f4e487b7100000000000000000000000000000000000000000000000000000000600052604160045260246000fd5b61053e82610413565b810181811067ffffffffffffffff8211171561055d5761055c610506565b5b80604052505050565b60006105706101ba565b905061057c8282610535565b919050565b600067ffffffffffffffff82111561059c5761059b610506565b5b6105a582610413565b9050602081019050919050565b60006105c56105c084610581565b610566565b9050828152602081018484840111156105e1576105e0610501565b5b6105ec8482856103e0565b509392505050565b600082601f830112610609576106086101ce565b5b81516106198482602086016105b2565b91505092915050565b600060208284031215610638576106376101c4565b5b600082015167ffffffffffffffff811115610656576106556101c9565b5b610662848285016105f4565b9150509291505056fea2646970667358221220ecbbf9a9ca17ff2c319f67a636653442971d492146185e25d48dc401bbd9548664736f6c63430008090033",
  "linkReferences": {},
  "deployedLinkReferences": {}
}