{
  "_format": "hh-sol-artifact-1",
  "contractName": "BoringBatchable",
  "sourceName": "contracts/utils/BoringBatchable.sol",
  "abi": [
    {
      "inputs": [
        {
          "internalType": "bytes[]",
          "name": "calls",
          "type": "bytes[]"
        },
        {
          "internalType": "bool",
          "name": "revertOnFail",
          "type": "bool"
        }
      ],
      "name": "batch",
      "outputs": [],
      "stateMutability": "payable",
      "type": "function"
    },
    {
      "inputs": [
        {
          "internalType": "contract IERC20",
          "name": "token",
          "type": "address"
        },
        {
          "internalType": "address",
          "name": "from",
          "type": "address"
        },
        {
          "internalType": "address",
          "name": "to",
          "type": "address"
        },
        {
          "internalType": "uint256",
          "name": "amount",
          "type": "uint256"
        },
        {
          "internalType": "uint256",
          "name": "deadline",
          "type": "uint256"
        },
        {
          "internalType": "uint8",
          "name": "v",
          "type": "uint8"
        },
        {
          "internalType": "bytes32",
          "name": "r",
          "type": "bytes32"
        },
        {
          "internalType": "bytes32",
          "name": "s",
          "type": "bytes32"
        }
      ],
      "name": "permitToken",
      "outputs": [],
      "stateMutability": "nonpayable",
      "type": "function"
    }
  ],
  "bytecode": "0x608060405234801561001057600080fd5b506109ee806100206000396000f3fe6080604052600436106100295760003560e01c80637c516e941461002e578063d2423b5114610057575b600080fd5b34801561003a57600080fd5b50610055600480360381019061005091906103c4565b610073565b005b610071600480360381019061006c9190610517565b6100f4565b005b8773ffffffffffffffffffffffffffffffffffffffff1663d505accf888888888888886040518863ffffffff1660e01b81526004016100b897969594939291906105b3565b600060405180830381600087803b1580156100d257600080fd5b505af11580156100e6573d6000803e3d6000fd5b505050505050505050505050565b60005b838390508110156101fe576000803073ffffffffffffffffffffffffffffffffffffffff1686868581811061012f5761012e610622565b5b90506020028101906101419190610660565b60405161014f929190610702565b600060405180830381855af49150503d806000811461018a576040519150601f19603f3d011682016040523d82523d6000602084013e61018f565b606091505b50915091508115801561019f5750835b156101e9576101ad81610204565b6040517f08c379a00000000000000000000000000000000000000000000000000000000081526004016101e091906107b4565b60405180910390fd5b505080806101f690610805565b9150506100f7565b50505050565b606060448251101561024d576040518060400160405280601d81526020017f5472616e73616374696f6e2072657665727465642073696c656e746c79000000815250905061026a565b60048201915081806020019051810190610267919061096f565b90505b919050565b6000604051905090565b600080fd5b600080fd5b600073ffffffffffffffffffffffffffffffffffffffff82169050919050565b60006102ae82610283565b9050919050565b60006102c0826102a3565b9050919050565b6102d0816102b5565b81146102db57600080fd5b50565b6000813590506102ed816102c7565b92915050565b6102fc816102a3565b811461030757600080fd5b50565b600081359050610319816102f3565b92915050565b6000819050919050565b6103328161031f565b811461033d57600080fd5b50565b60008135905061034f81610329565b92915050565b600060ff82169050919050565b61036b81610355565b811461037657600080fd5b50565b60008135905061038881610362565b92915050565b6000819050919050565b6103a18161038e565b81146103ac57600080fd5b50565b6000813590506103be81610398565b92915050565b600080600080600080600080610100898b0312156103e5576103e4610279565b5b60006103f38b828c016102de565b98505060206104048b828c0161030a565b97505060406104158b828c0161030a565b96505060606104268b828c01610340565b95505060806104378b828c01610340565b94505060a06104488b828c01610379565b93505060c06104598b828c016103af565b92505060e061046a8b828c016103af565b9150509295985092959890939650565b600080fd5b600080fd5b600080fd5b60008083601f84011261049f5761049e61047a565b5b8235905067ffffffffffffffff8111156104bc576104bb61047f565b5b6020830191508360208202830111156104d8576104d7610484565b5b9250929050565b60008115159050919050565b6104f4816104df565b81146104ff57600080fd5b50565b600081359050610511816104eb565b92915050565b6000806000604084860312156105305761052f610279565b5b600084013567ffffffffffffffff81111561054e5761054d61027e565b5b61055a86828701610489565b9350935050602061056d86828701610502565b9150509250925092565b610580816102a3565b82525050565b61058f8161031f565b82525050565b61059e81610355565b82525050565b6105ad8161038e565b82525050565b600060e0820190506105c8600083018a610577565b6105d56020830189610577565b6105e26040830188610586565b6105ef6060830187610586565b6105fc6080830186610595565b61060960a08301856105a4565b61061660c08301846105a4565b98975050505050505050565b7f4e487b7100000000000000000000000000000000000000000000000000000000600052603260045260246000fd5b600080fd5b600080fd5b600080fd5b6000808335600160200384360303811261067d5761067c610651565b5b80840192508235915067ffffffffffffffff82111561069f5761069e610656565b5b6020830192506001820236038313156106bb576106ba61065b565b5b509250929050565b600081905092915050565b82818337600083830152505050565b60006106e983856106c3565b93506106f68385846106ce565b82840190509392505050565b600061070f8284866106dd565b91508190509392505050565b600081519050919050565b600082825260208201905092915050565b60005b8381101561075557808201518184015260208101905061073a565b83811115610764576000848401525b50505050565b6000601f19601f8301169050919050565b60006107868261071b565b6107908185610726565b93506107a0818560208601610737565b6107a98161076a565b840191505092915050565b600060208201905081810360008301526107ce818461077b565b905092915050565b7f4e487b7100000000000000000000000000000000000000000000000000000000600052601160045260246000fd5b60006108108261031f565b91507fffffffffffffffffffffffffffffffffffffffffffffffffffffffffffffffff821415610843576108426107d6565b5b600182019050919050565b600080fd5b7f4e487b7100000000000000000000000000000000000000000000000000000000600052604160045260246000fd5b61088b8261076a565b810181811067ffffffffffffffff821117156108aa576108a9610853565b5b80604052505050565b60006108bd61026f565b90506108c98282610882565b919050565b600067ffffffffffffffff8211156108e9576108e8610853565b5b6108f28261076a565b9050602081019050919050565b600061091261090d846108ce565b6108b3565b90508281526020810184848401111561092e5761092d61084e565b5b610939848285610737565b509392505050565b600082601f8301126109565761095561047a565b5b81516109668482602086016108ff565b91505092915050565b60006020828403121561098557610984610279565b5b600082015167ffffffffffffffff8111156109a3576109a261027e565b5b6109af84828501610941565b9150509291505056fea264697066735822122023f064cbe4f54b440768c837b5fbadd2f8ae7ab4b317a56a15d8f15809c2229864736f6c63430008090033",
  "linkReferences": {},
  "deployedLinkReferences": {}
}