{
  "_format": "hh-sol-artifact-1",
  "contractName": "FellowBentoBox",
  "sourceName": "contracts/FellowBentoBox.sol",
  "abi": [
    {
      "inputs": [
        {
          "internalType": "contract IBentoBoxMinimal",
          "name": "_bentoBox",
          "type": "address"
        }
      ],
      "stateMutability": "nonpayable",
      "type": "constructor"
    },
    {
      "inputs": [
        {
          "internalType": "bytes[]",
          "name": "calls",
          "type": "bytes[]"
        },
        {
          "internalType": "bool",
          "name": "revertOnFail",
          "type": "bool"
        }
      ],
      "name": "batch",
      "outputs": [],
      "stateMutability": "payable",
      "type": "function"
    },
    {
      "inputs": [],
      "name": "bentoBox",
      "outputs": [
        {
          "internalType": "contract IBentoBoxMinimal",
          "name": "",
          "type": "address"
        }
      ],
      "stateMutability": "view",
      "type": "function"
    },
    {
      "inputs": [
        {
          "internalType": "address",
          "name": "token",
          "type": "address"
        },
        {
          "internalType": "uint256",
          "name": "amount",
          "type": "uint256"
        },
        {
          "internalType": "address",
          "name": "donor",
          "type": "address"
        },
        {
          "internalType": "bool",
          "name": "fromBentoBox",
          "type": "bool"
        }
      ],
      "name": "depositToFellowBentoBox",
      "outputs": [
        {
          "internalType": "uint256",
          "name": "depositedShares",
          "type": "uint256"
        }
      ],
      "stateMutability": "nonpayable",
      "type": "function"
    },
    {
      "inputs": [
        {
          "internalType": "uint256",
          "name": "",
          "type": "uint256"
        }
      ],
      "name": "deposits",
      "outputs": [
        {
          "internalType": "address",
          "name": "user",
          "type": "address"
        },
        {
          "internalType": "address",
          "name": "token",
          "type": "address"
        },
        {
          "internalType": "uint256",
          "name": "depositedShares",
          "type": "uint256"
        }
      ],
      "stateMutability": "view",
      "type": "function"
    },
    {
      "inputs": [
        {
          "internalType": "address",
          "name": "",
          "type": "address"
        }
      ],
      "name": "donatedAmount",
      "outputs": [
        {
          "internalType": "uint256",
          "name": "",
          "type": "uint256"
        }
      ],
      "stateMutability": "view",
      "type": "function"
    },
    {
      "inputs": [],
      "name": "owner",
      "outputs": [
        {
          "internalType": "address",
          "name": "",
          "type": "address"
        }
      ],
      "stateMutability": "view",
      "type": "function"
    },
    {
      "inputs": [
        {
          "internalType": "contract IERC20",
          "name": "token",
          "type": "address"
        },
        {
          "internalType": "address",
          "name": "from",
          "type": "address"
        },
        {
          "internalType": "address",
          "name": "to",
          "type": "address"
        },
        {
          "internalType": "uint256",
          "name": "amount",
          "type": "uint256"
        },
        {
          "internalType": "uint256",
          "name": "deadline",
          "type": "uint256"
        },
        {
          "internalType": "uint8",
          "name": "v",
          "type": "uint8"
        },
        {
          "internalType": "bytes32",
          "name": "r",
          "type": "bytes32"
        },
        {
          "internalType": "bytes32",
          "name": "s",
          "type": "bytes32"
        }
      ],
      "name": "permitToken",
      "outputs": [],
      "stateMutability": "nonpayable",
      "type": "function"
    },
    {
      "inputs": [],
      "name": "totalDeposits",
      "outputs": [
        {
          "internalType": "uint256",
          "name": "",
          "type": "uint256"
        }
      ],
      "stateMutability": "view",
      "type": "function"
    },
    {
      "inputs": [
        {
          "internalType": "uint256",
          "name": "depositId",
          "type": "uint256"
        },
        {
          "internalType": "uint256",
          "name": "amount",
          "type": "uint256"
        },
        {
          "internalType": "bool",
          "name": "toBentoBox",
          "type": "bool"
        }
      ],
      "name": "withdrawFromFellowBentoBox",
      "outputs": [
        {
          "internalType": "uint256",
          "name": "sharesWithdrawn",
          "type": "uint256"
        }
      ],
      "stateMutability": "nonpayable",
      "type": "function"
    }
  ],
  "bytecode": "0x60a06040523480156200001157600080fd5b5060405162001b2a38038062001b2a833981810160405281019062000037919062000193565b33600160006101000a81548173ffffffffffffffffffffffffffffffffffffffff021916908373ffffffffffffffffffffffffffffffffffffffff1602179055508073ffffffffffffffffffffffffffffffffffffffff1660808173ffffffffffffffffffffffffffffffffffffffff16815250508073ffffffffffffffffffffffffffffffffffffffff1663aee4d1b26040518163ffffffff1660e01b8152600401600060405180830381600087803b158015620000f557600080fd5b505af11580156200010a573d6000803e3d6000fd5b5050505050620001c5565b600080fd5b600073ffffffffffffffffffffffffffffffffffffffff82169050919050565b600062000147826200011a565b9050919050565b60006200015b826200013a565b9050919050565b6200016d816200014e565b81146200017957600080fd5b50565b6000815190506200018d8162000162565b92915050565b600060208284031215620001ac57620001ab62000115565b5b6000620001bc848285016200017c565b91505092915050565b60805161191f6200020b6000396000818161030b015281816104470152818161052501528181610633015281816106e30152818161077901526109a1015261191f6000f3fe6080604052600436106100865760003560e01c80637c516e94116100595780637c516e941461016d5780637d882097146101965780638da5cb5b146101c1578063b02c43d0146101ec578063d2423b511461022b57610086565b8063022f63881461008b5780632389a577146100c8578063518fd6c9146101055780636b2ace8714610142575b600080fd5b34801561009757600080fd5b506100b260048036038101906100ad9190610cc7565b610247565b6040516100bf9190610d0d565b60405180910390f35b3480156100d457600080fd5b506100ef60048036038101906100ea9190610d8c565b61025f565b6040516100fc9190610d0d565b60405180910390f35b34801561011157600080fd5b5061012c60048036038101906101279190610ddf565b610629565b6040516101399190610d0d565b60405180910390f35b34801561014e57600080fd5b5061015761099f565b6040516101649190610ea5565b60405180910390f35b34801561017957600080fd5b50610194600480360381019061018f9190610f6d565b6109c3565b005b3480156101a257600080fd5b506101ab610a44565b6040516101b89190610d0d565b60405180910390f35b3480156101cd57600080fd5b506101d6610a4a565b6040516101e39190611032565b60405180910390f35b3480156101f857600080fd5b50610213600480360381019061020e919061104d565b610a70565b6040516102229392919061107a565b60405180910390f35b61024560048036038101906102409190611116565b610ada565b005b60006020528060005260406000206000915090505481565b6000806003600086815260200190815260200160002090508060000160009054906101000a900473ffffffffffffffffffffffffffffffffffffffff1673ffffffffffffffffffffffffffffffffffffffff163373ffffffffffffffffffffffffffffffffffffffff1614610309576040517f08c379a0000000000000000000000000000000000000000000000000000000008152600401610300906111d3565b60405180910390fd5b7f000000000000000000000000000000000000000000000000000000000000000073ffffffffffffffffffffffffffffffffffffffff1663da5139ca8260010160009054906101000a900473ffffffffffffffffffffffffffffffffffffffff168660006040518463ffffffff1660e01b815260040161038b93929190611202565b60206040518083038186803b1580156103a357600080fd5b505afa1580156103b7573d6000803e3d6000fd5b505050506040513d601f19601f820116820180604052508101906103db919061124e565b91508060020154821115610424576040517f08c379a000000000000000000000000000000000000000000000000000000000815260040161041b906112c7565b60405180910390fd5b818160020160008282546104389190611316565b925050819055508215610523577f000000000000000000000000000000000000000000000000000000000000000073ffffffffffffffffffffffffffffffffffffffff1663f18d03cc8260010160009054906101000a900473ffffffffffffffffffffffffffffffffffffffff16308460000160009054906101000a900473ffffffffffffffffffffffffffffffffffffffff16866040518563ffffffff1660e01b81526004016104ec949392919061134a565b600060405180830381600087803b15801561050657600080fd5b505af115801561051a573d6000803e3d6000fd5b50505050610621565b7f000000000000000000000000000000000000000000000000000000000000000073ffffffffffffffffffffffffffffffffffffffff166397da6d308260010160009054906101000a900473ffffffffffffffffffffffffffffffffffffffff16308460000160009054906101000a900473ffffffffffffffffffffffffffffffffffffffff166000876040518663ffffffff1660e01b81526004016105cd9594939291906113ca565b6040805180830381600087803b1580156105e657600080fd5b505af11580156105fa573d6000803e3d6000fd5b505050506040513d601f19601f8201168201806040525081019061061e919061141d565b50505b509392505050565b60008115610777577f000000000000000000000000000000000000000000000000000000000000000073ffffffffffffffffffffffffffffffffffffffff1663da5139ca868660006040518463ffffffff1660e01b815260040161068f93929190611202565b60206040518083038186803b1580156106a757600080fd5b505afa1580156106bb573d6000803e3d6000fd5b505050506040513d601f19601f820116820180604052508101906106df919061124e565b90507f000000000000000000000000000000000000000000000000000000000000000073ffffffffffffffffffffffffffffffffffffffff1663f18d03cc863330856040518563ffffffff1660e01b8152600401610740949392919061134a565b600060405180830381600087803b15801561075a57600080fd5b505af115801561076e573d6000803e3d6000fd5b50505050610831565b7f000000000000000000000000000000000000000000000000000000000000000073ffffffffffffffffffffffffffffffffffffffff166302b9446c8633308860006040518663ffffffff1660e01b81526004016107d995949392919061145d565b6040805180830381600087803b1580156107f257600080fd5b505af1158015610806573d6000803e3d6000fd5b505050506040513d601f19601f8201168201806040525081019061082a919061141d565b9050809150505b836000808573ffffffffffffffffffffffffffffffffffffffff1673ffffffffffffffffffffffffffffffffffffffff168152602001908152602001600020600082825461087f91906114b0565b9250508190555060405180606001604052803373ffffffffffffffffffffffffffffffffffffffff1681526020018673ffffffffffffffffffffffffffffffffffffffff1681526020018281525060036000600254815260200190815260200160002060008201518160000160006101000a81548173ffffffffffffffffffffffffffffffffffffffff021916908373ffffffffffffffffffffffffffffffffffffffff16021790555060208201518160010160006101000a81548173ffffffffffffffffffffffffffffffffffffffff021916908373ffffffffffffffffffffffffffffffffffffffff1602179055506040820151816002015590505060016002600082825461099091906114b0565b92505081905550949350505050565b7f000000000000000000000000000000000000000000000000000000000000000081565b8773ffffffffffffffffffffffffffffffffffffffff1663d505accf888888888888886040518863ffffffff1660e01b8152600401610a089796959493929190611524565b600060405180830381600087803b158015610a2257600080fd5b505af1158015610a36573d6000803e3d6000fd5b505050505050505050505050565b60025481565b600160009054906101000a900473ffffffffffffffffffffffffffffffffffffffff1681565b60036020528060005260406000206000915090508060000160009054906101000a900473ffffffffffffffffffffffffffffffffffffffff16908060010160009054906101000a900473ffffffffffffffffffffffffffffffffffffffff16908060020154905083565b60005b83839050811015610be4576000803073ffffffffffffffffffffffffffffffffffffffff16868685818110610b1557610b14611593565b5b9050602002810190610b2791906115d1565b604051610b35929190611673565b600060405180830381855af49150503d8060008114610b70576040519150601f19603f3d011682016040523d82523d6000602084013e610b75565b606091505b509150915081158015610b855750835b15610bcf57610b9381610bea565b6040517f08c379a0000000000000000000000000000000000000000000000000000000008152600401610bc69190611714565b60405180910390fd5b50508080610bdc90611736565b915050610add565b50505050565b6060604482511015610c33576040518060400160405280601d81526020017f5472616e73616374696f6e2072657665727465642073696c656e746c790000008152509050610c50565b60048201915081806020019051810190610c4d91906118a0565b90505b919050565b6000604051905090565b600080fd5b600080fd5b600073ffffffffffffffffffffffffffffffffffffffff82169050919050565b6000610c9482610c69565b9050919050565b610ca481610c89565b8114610caf57600080fd5b50565b600081359050610cc181610c9b565b92915050565b600060208284031215610cdd57610cdc610c5f565b5b6000610ceb84828501610cb2565b91505092915050565b6000819050919050565b610d0781610cf4565b82525050565b6000602082019050610d226000830184610cfe565b92915050565b610d3181610cf4565b8114610d3c57600080fd5b50565b600081359050610d4e81610d28565b92915050565b60008115159050919050565b610d6981610d54565b8114610d7457600080fd5b50565b600081359050610d8681610d60565b92915050565b600080600060608486031215610da557610da4610c5f565b5b6000610db386828701610d3f565b9350506020610dc486828701610d3f565b9250506040610dd586828701610d77565b9150509250925092565b60008060008060808587031215610df957610df8610c5f565b5b6000610e0787828801610cb2565b9450506020610e1887828801610d3f565b9350506040610e2987828801610cb2565b9250506060610e3a87828801610d77565b91505092959194509250565b6000819050919050565b6000610e6b610e66610e6184610c69565b610e46565b610c69565b9050919050565b6000610e7d82610e50565b9050919050565b6000610e8f82610e72565b9050919050565b610e9f81610e84565b82525050565b6000602082019050610eba6000830184610e96565b92915050565b6000610ecb82610c89565b9050919050565b610edb81610ec0565b8114610ee657600080fd5b50565b600081359050610ef881610ed2565b92915050565b600060ff82169050919050565b610f1481610efe565b8114610f1f57600080fd5b50565b600081359050610f3181610f0b565b92915050565b6000819050919050565b610f4a81610f37565b8114610f5557600080fd5b50565b600081359050610f6781610f41565b92915050565b600080600080600080600080610100898b031215610f8e57610f8d610c5f565b5b6000610f9c8b828c01610ee9565b9850506020610fad8b828c01610cb2565b9750506040610fbe8b828c01610cb2565b9650506060610fcf8b828c01610d3f565b9550506080610fe08b828c01610d3f565b94505060a0610ff18b828c01610f22565b93505060c06110028b828c01610f58565b92505060e06110138b828c01610f58565b9150509295985092959890939650565b61102c81610c89565b82525050565b60006020820190506110476000830184611023565b92915050565b60006020828403121561106357611062610c5f565b5b600061107184828501610d3f565b91505092915050565b600060608201905061108f6000830186611023565b61109c6020830185611023565b6110a96040830184610cfe565b949350505050565b600080fd5b600080fd5b600080fd5b60008083601f8401126110d6576110d56110b1565b5b8235905067ffffffffffffffff8111156110f3576110f26110b6565b5b60208301915083602082028301111561110f5761110e6110bb565b5b9250929050565b60008060006040848603121561112f5761112e610c5f565b5b600084013567ffffffffffffffff81111561114d5761114c610c64565b5b611159868287016110c0565b9350935050602061116c86828701610d77565b9150509250925092565b600082825260208201905092915050565b7f75736572206e6f74206f6e776572206f66206465706f73697400000000000000600082015250565b60006111bd601983611176565b91506111c882611187565b602082019050919050565b600060208201905081810360008301526111ec816111b0565b9050919050565b6111fc81610d54565b82525050565b60006060820190506112176000830186611023565b6112246020830185610cfe565b61123160408301846111f3565b949350505050565b60008151905061124881610d28565b92915050565b60006020828403121561126457611263610c5f565b5b600061127284828501611239565b91505092915050565b7f7769746864726177206d6f7265207468616e20617661696c61626c6500000000600082015250565b60006112b1601c83611176565b91506112bc8261127b565b602082019050919050565b600060208201905081810360008301526112e0816112a4565b9050919050565b7f4e487b7100000000000000000000000000000000000000000000000000000000600052601160045260246000fd5b600061132182610cf4565b915061132c83610cf4565b92508282101561133f5761133e6112e7565b5b828203905092915050565b600060808201905061135f6000830187611023565b61136c6020830186611023565b6113796040830185611023565b6113866060830184610cfe565b95945050505050565b6000819050919050565b60006113b46113af6113aa8461138f565b610e46565b610cf4565b9050919050565b6113c481611399565b82525050565b600060a0820190506113df6000830188611023565b6113ec6020830187611023565b6113f96040830186611023565b61140660608301856113bb565b6114136080830184610cfe565b9695505050505050565b6000806040838503121561143457611433610c5f565b5b600061144285828601611239565b925050602061145385828601611239565b9150509250929050565b600060a0820190506114726000830188611023565b61147f6020830187611023565b61148c6040830186611023565b6114996060830185610cfe565b6114a660808301846113bb565b9695505050505050565b60006114bb82610cf4565b91506114c683610cf4565b9250827fffffffffffffffffffffffffffffffffffffffffffffffffffffffffffffffff038211156114fb576114fa6112e7565b5b828201905092915050565b61150f81610efe565b82525050565b61151e81610f37565b82525050565b600060e082019050611539600083018a611023565b6115466020830189611023565b6115536040830188610cfe565b6115606060830187610cfe565b61156d6080830186611506565b61157a60a0830185611515565b61158760c0830184611515565b98975050505050505050565b7f4e487b7100000000000000000000000000000000000000000000000000000000600052603260045260246000fd5b600080fd5b600080fd5b600080fd5b600080833560016020038436030381126115ee576115ed6115c2565b5b80840192508235915067ffffffffffffffff8211156116105761160f6115c7565b5b60208301925060018202360383131561162c5761162b6115cc565b5b509250929050565b600081905092915050565b82818337600083830152505050565b600061165a8385611634565b935061166783858461163f565b82840190509392505050565b600061168082848661164e565b91508190509392505050565b600081519050919050565b60005b838110156116b557808201518184015260208101905061169a565b838111156116c4576000848401525b50505050565b6000601f19601f8301169050919050565b60006116e68261168c565b6116f08185611176565b9350611700818560208601611697565b611709816116ca565b840191505092915050565b6000602082019050818103600083015261172e81846116db565b905092915050565b600061174182610cf4565b91507fffffffffffffffffffffffffffffffffffffffffffffffffffffffffffffffff821415611774576117736112e7565b5b600182019050919050565b600080fd5b7f4e487b7100000000000000000000000000000000000000000000000000000000600052604160045260246000fd5b6117bc826116ca565b810181811067ffffffffffffffff821117156117db576117da611784565b5b80604052505050565b60006117ee610c55565b90506117fa82826117b3565b919050565b600067ffffffffffffffff82111561181a57611819611784565b5b611823826116ca565b9050602081019050919050565b600061184361183e846117ff565b6117e4565b90508281526020810184848401111561185f5761185e61177f565b5b61186a848285611697565b509392505050565b600082601f830112611887576118866110b1565b5b8151611897848260208601611830565b91505092915050565b6000602082840312156118b6576118b5610c5f565b5b600082015167ffffffffffffffff8111156118d4576118d3610c64565b5b6118e084828501611872565b9150509291505056fea264697066735822122000061918d90802a34eb4908bc6b115283bb4b2e147f0daac856a7d296d1cf0c864736f6c63430008090033",
  "linkReferences": {},
  "deployedLinkReferences": {}
}