{
  "_format": "hh-sol-artifact-1",
  "contractName": "GameContract",
  "sourceName": "contracts/GameContract.sol",
  "abi": [
    {
      "inputs": [
        {
          "internalType": "contract FellowBentoBox",
          "name": "_bentobox",
          "type": "address"
        },
        {
          "internalType": "contract FellowNFT",
          "name": "_fellow",
          "type": "address"
        }
      ],
      "stateMutability": "nonpayable",
      "type": "constructor"
    },
    {
      "anonymous": false,
      "inputs": [
        {
          "indexed": true,
          "internalType": "address",
          "name": "previousOwner",
          "type": "address"
        },
        {
          "indexed": true,
          "internalType": "address",
          "name": "newOwner",
          "type": "address"
        }
      ],
      "name": "OwnershipTransferred",
      "type": "event"
    },
    {
      "anonymous": false,
      "inputs": [
        {
          "indexed": false,
          "internalType": "string",
          "name": "_subject",
          "type": "string"
        },
        {
          "indexed": false,
          "internalType": "uint256",
          "name": "_amount",
          "type": "uint256"
        }
      ],
      "name": "StartedLearning",
      "type": "event"
    },
    {
      "inputs": [
        {
          "internalType": "uint256",
          "name": "newFee",
          "type": "uint256"
        }
      ],
      "name": "changeLearningFee",
      "outputs": [],
      "stateMutability": "nonpayable",
      "type": "function"
    },
    {
      "inputs": [],
      "name": "currency",
      "outputs": [
        {
          "internalType": "address",
          "name": "",
          "type": "address"
        }
      ],
      "stateMutability": "view",
      "type": "function"
    },
    {
      "inputs": [],
      "name": "fellow",
      "outputs": [
        {
          "internalType": "contract FellowNFT",
          "name": "",
          "type": "address"
        }
      ],
      "stateMutability": "view",
      "type": "function"
    },
    {
      "inputs": [],
      "name": "fellowBentoBox",
      "outputs": [
        {
          "internalType": "contract FellowBentoBox",
          "name": "",
          "type": "address"
        }
      ],
      "stateMutability": "view",
      "type": "function"
    },
    {
      "inputs": [],
      "name": "fundRaised",
      "outputs": [
        {
          "internalType": "uint256",
          "name": "",
          "type": "uint256"
        }
      ],
      "stateMutability": "view",
      "type": "function"
    },
    {
      "inputs": [
        {
          "internalType": "uint256",
          "name": "tokenId",
          "type": "uint256"
        }
      ],
      "name": "learnLiteracy",
      "outputs": [],
      "stateMutability": "nonpayable",
      "type": "function"
    },
    {
      "inputs": [
        {
          "internalType": "uint256",
          "name": "tokenId",
          "type": "uint256"
        }
      ],
      "name": "learnMath",
      "outputs": [],
      "stateMutability": "nonpayable",
      "type": "function"
    },
    {
      "inputs": [
        {
          "internalType": "uint256",
          "name": "tokenId",
          "type": "uint256"
        }
      ],
      "name": "learnScience",
      "outputs": [],
      "stateMutability": "nonpayable",
      "type": "function"
    },
    {
      "inputs": [
        {
          "internalType": "uint256",
          "name": "tokenId",
          "type": "uint256"
        }
      ],
      "name": "learnStrength",
      "outputs": [],
      "stateMutability": "nonpayable",
      "type": "function"
    },
    {
      "inputs": [
        {
          "internalType": "uint256",
          "name": "tokenId",
          "type": "uint256"
        }
      ],
      "name": "learnWisdom",
      "outputs": [],
      "stateMutability": "nonpayable",
      "type": "function"
    },
    {
      "inputs": [],
      "name": "owner",
      "outputs": [
        {
          "internalType": "address",
          "name": "",
          "type": "address"
        }
      ],
      "stateMutability": "view",
      "type": "function"
    },
    {
      "inputs": [
        {
          "internalType": "bytes32",
          "name": "requestId",
          "type": "bytes32"
        },
        {
          "internalType": "uint256",
          "name": "randomness",
          "type": "uint256"
        }
      ],
      "name": "rawFulfillRandomness",
      "outputs": [],
      "stateMutability": "nonpayable",
      "type": "function"
    },
    {
      "inputs": [],
      "name": "renounceOwnership",
      "outputs": [],
      "stateMutability": "nonpayable",
      "type": "function"
    },
    {
      "inputs": [
        {
          "internalType": "address",
          "name": "newOwner",
          "type": "address"
        }
      ],
      "name": "transferOwnership",
      "outputs": [],
      "stateMutability": "nonpayable",
      "type": "function"
    }
  ],
  "bytecode": "0x6101206040523480156200001257600080fd5b5060405162002b5c38038062002b5c833981810160405281019062000038919062000352565b73b3dccb4cf7a26f6cf6b120cf5a73875b7bbc655b7301be23585060835e02b77ef475b0cc51aa1e07096200008262000076620001c360201b60201c565b620001cb60201b60201c565b8173ffffffffffffffffffffffffffffffffffffffff1660a08173ffffffffffffffffffffffffffffffffffffffff16815250508073ffffffffffffffffffffffffffffffffffffffff1660808173ffffffffffffffffffffffffffffffffffffffff168152505050508073ffffffffffffffffffffffffffffffffffffffff166101008173ffffffffffffffffffffffffffffffffffffffff1681525050738ad3aa5d5ff084307d28c8f514d7a193b2bfe72573ffffffffffffffffffffffffffffffffffffffff1660c08173ffffffffffffffffffffffffffffffffffffffff16815250508173ffffffffffffffffffffffffffffffffffffffff1660e08173ffffffffffffffffffffffffffffffffffffffff168152505067016345785d8a0000600381905550674563918244f40000600581905550505062000399565b600033905090565b60008060009054906101000a900473ffffffffffffffffffffffffffffffffffffffff169050816000806101000a81548173ffffffffffffffffffffffffffffffffffffffff021916908373ffffffffffffffffffffffffffffffffffffffff1602179055508173ffffffffffffffffffffffffffffffffffffffff168173ffffffffffffffffffffffffffffffffffffffff167f8be0079c531659141344cd1fd0a4f28419497f9722a3daafe3b4186f6b6457e060405160405180910390a35050565b600080fd5b600073ffffffffffffffffffffffffffffffffffffffff82169050919050565b6000620002c18262000294565b9050919050565b6000620002d582620002b4565b9050919050565b620002e781620002c8565b8114620002f357600080fd5b50565b6000815190506200030781620002dc565b92915050565b60006200031a82620002b4565b9050919050565b6200032c816200030d565b81146200033857600080fd5b50565b6000815190506200034c8162000321565b92915050565b600080604083850312156200036c576200036b6200028f565b5b60006200037c85828601620002f6565b92505060206200038f858286016200033b565b9150509250929050565b60805160a05160c05160e051610100516126c8620004946000396000818161027101528181610327015281816104d4015281816107c90152818161087f01528181610a2c01528181610b3001528181610cdd01528181610ddb01528181610e910152818161103e0152818161113c015281816111f20152818161139f01526115b90152600081816103db015281816106580152818161093301528181610be401528181610f4501526112a60152600081816104170152818161096f01528181610c2001528181610f81015281816112e2015261149d01526000818161072d015261181b0152600081816115e201526117df01526126c86000f3fe608060405234801561001057600080fd5b50600436106100ea5760003560e01c8063c71c0b401161008c578063d9ac11ce11610066578063d9ac11ce146101fb578063e5a6b10f14610217578063f2fde38b14610235578063f546cf8414610251576100ea565b8063c71c0b40146101a5578063cc72eefd146101c3578063d81e98eb146101df576100ea565b8063715018a6116100c8578063715018a6146101455780638da5cb5b1461014f57806394985ddd1461016d57806394a9466a14610189576100ea565b806311deb4a3146100ef5780634102563d1461010b57806363bc766014610127575b600080fd5b610109600480360381019061010491906119e6565b61026f565b005b610125600480360381019061012091906119e6565b6105d0565b005b61012f610656565b60405161013c9190611a92565b60405180910390f35b61014d61067a565b005b610157610702565b6040516101649190611ace565b60405180910390f35b61018760048036038101906101829190611b1f565b61072b565b005b6101a3600480360381019061019e91906119e6565b6107c7565b005b6101ad610b28565b6040516101ba9190611b6e565b60405180910390f35b6101dd60048036038101906101d891906119e6565b610b2e565b005b6101f960048036038101906101f491906119e6565b610dd9565b005b610215600480360381019061021091906119e6565b61113a565b005b61021f61149b565b60405161022c9190611ace565b60405180910390f35b61024f600480360381019061024a9190611bb5565b6114bf565b005b6102596115b7565b6040516102669190611c03565b60405180910390f35b7f000000000000000000000000000000000000000000000000000000000000000073ffffffffffffffffffffffffffffffffffffffff166377ade19082336040518363ffffffff1660e01b81526004016102ca929190611c1e565b60206040518083038186803b1580156102e257600080fd5b505afa1580156102f6573d6000803e3d6000fd5b505050506040513d601f19601f8201168201806040525081019061031a9190611c7f565b61032357600080fd5b60057f000000000000000000000000000000000000000000000000000000000000000073ffffffffffffffffffffffffffffffffffffffff16637f1e7d41836040518263ffffffff1660e01b815260040161037e9190611b6e565b60206040518083038186803b15801561039657600080fd5b505afa1580156103aa573d6000803e3d6000fd5b505050506040513d601f19601f820116820180604052508101906103ce9190611cc1565b10156103d957600080fd5b7f000000000000000000000000000000000000000000000000000000000000000073ffffffffffffffffffffffffffffffffffffffff1663518fd6c97f00000000000000000000000000000000000000000000000000000000000000006005543360006040518563ffffffff1660e01b815260040161045b9493929190611cfd565b602060405180830381600087803b15801561047557600080fd5b505af1158015610489573d6000803e3d6000fd5b505050506040513d601f19601f820116820180604052508101906104ad9190611cc1565b506104b66115db565b50600554600460008282546104cb9190611d71565b925050819055507f000000000000000000000000000000000000000000000000000000000000000073ffffffffffffffffffffffffffffffffffffffff16638397ff2a6001836001600a6002546105229190611df6565b61052c9190611d71565b6040518463ffffffff1660e01b815260040161054a93929190611e62565b600060405180830381600087803b15801561056457600080fd5b505af1158015610578573d6000803e3d6000fd5b505050507f2872630550bfeca98e30b8c17f7d5df3351c9275d303bca9626fc04711b38f216001600a6002546105ae9190611df6565b6105b89190611d71565b6040516105c59190611ef6565b60405180910390a150565b6105d8611704565b73ffffffffffffffffffffffffffffffffffffffff166105f6610702565b73ffffffffffffffffffffffffffffffffffffffff161461064c576040517f08c379a000000000000000000000000000000000000000000000000000000000815260040161064390611f70565b60405180910390fd5b8060058190555050565b7f000000000000000000000000000000000000000000000000000000000000000081565b610682611704565b73ffffffffffffffffffffffffffffffffffffffff166106a0610702565b73ffffffffffffffffffffffffffffffffffffffff16146106f6576040517f08c379a00000000000000000000000000000000000000000000000000000000081526004016106ed90611f70565b60405180910390fd5b610700600061170c565b565b60008060009054906101000a900473ffffffffffffffffffffffffffffffffffffffff16905090565b7f000000000000000000000000000000000000000000000000000000000000000073ffffffffffffffffffffffffffffffffffffffff163373ffffffffffffffffffffffffffffffffffffffff16146107b9576040517f08c379a00000000000000000000000000000000000000000000000000000000081526004016107b090611fdc565b60405180910390fd5b6107c382826117d0565b5050565b7f000000000000000000000000000000000000000000000000000000000000000073ffffffffffffffffffffffffffffffffffffffff166377ade19082336040518363ffffffff1660e01b8152600401610822929190611c1e565b60206040518083038186803b15801561083a57600080fd5b505afa15801561084e573d6000803e3d6000fd5b505050506040513d601f19601f820116820180604052508101906108729190611c7f565b61087b57600080fd5b600a7f000000000000000000000000000000000000000000000000000000000000000073ffffffffffffffffffffffffffffffffffffffff16637f1e7d41836040518263ffffffff1660e01b81526004016108d69190611b6e565b60206040518083038186803b1580156108ee57600080fd5b505afa158015610902573d6000803e3d6000fd5b505050506040513d601f19601f820116820180604052508101906109269190611cc1565b101561093157600080fd5b7f000000000000000000000000000000000000000000000000000000000000000073ffffffffffffffffffffffffffffffffffffffff1663518fd6c97f00000000000000000000000000000000000000000000000000000000000000006005543360006040518563ffffffff1660e01b81526004016109b39493929190611cfd565b602060405180830381600087803b1580156109cd57600080fd5b505af11580156109e1573d6000803e3d6000fd5b505050506040513d601f19601f82011682018060405250810190610a059190611cc1565b50610a0e6115db565b5060055460046000828254610a239190611d71565b925050819055507f000000000000000000000000000000000000000000000000000000000000000073ffffffffffffffffffffffffffffffffffffffff16638397ff2a6003836001600a600254610a7a9190611df6565b610a849190611d71565b6040518463ffffffff1660e01b8152600401610aa293929190612037565b600060405180830381600087803b158015610abc57600080fd5b505af1158015610ad0573d6000803e3d6000fd5b505050507f2872630550bfeca98e30b8c17f7d5df3351c9275d303bca9626fc04711b38f216001600a600254610b069190611df6565b610b109190611d71565b604051610b1d91906120ba565b60405180910390a150565b60045481565b7f000000000000000000000000000000000000000000000000000000000000000073ffffffffffffffffffffffffffffffffffffffff166377ade19082336040518363ffffffff1660e01b8152600401610b89929190611c1e565b60206040518083038186803b158015610ba157600080fd5b505afa158015610bb5573d6000803e3d6000fd5b505050506040513d601f19601f82011682018060405250810190610bd99190611c7f565b610be257600080fd5b7f000000000000000000000000000000000000000000000000000000000000000073ffffffffffffffffffffffffffffffffffffffff1663518fd6c97f00000000000000000000000000000000000000000000000000000000000000006005543360006040518563ffffffff1660e01b8152600401610c649493929190611cfd565b602060405180830381600087803b158015610c7e57600080fd5b505af1158015610c92573d6000803e3d6000fd5b505050506040513d601f19601f82011682018060405250810190610cb69190611cc1565b50610cbf6115db565b5060055460046000828254610cd49190611d71565b925050819055507f000000000000000000000000000000000000000000000000000000000000000073ffffffffffffffffffffffffffffffffffffffff16638397ff2a6004836001600a600254610d2b9190611df6565b610d359190611d71565b6040518463ffffffff1660e01b8152600401610d5393929190612123565b600060405180830381600087803b158015610d6d57600080fd5b505af1158015610d81573d6000803e3d6000fd5b505050507f2872630550bfeca98e30b8c17f7d5df3351c9275d303bca9626fc04711b38f216001600a600254610db79190611df6565b610dc19190611d71565b604051610dce91906121a6565b60405180910390a150565b7f000000000000000000000000000000000000000000000000000000000000000073ffffffffffffffffffffffffffffffffffffffff166377ade19082336040518363ffffffff1660e01b8152600401610e34929190611c1e565b60206040518083038186803b158015610e4c57600080fd5b505afa158015610e60573d6000803e3d6000fd5b505050506040513d601f19601f82011682018060405250810190610e849190611c7f565b610e8d57600080fd5b60057f000000000000000000000000000000000000000000000000000000000000000073ffffffffffffffffffffffffffffffffffffffff16637f1e7d41836040518263ffffffff1660e01b8152600401610ee89190611b6e565b60206040518083038186803b158015610f0057600080fd5b505afa158015610f14573d6000803e3d6000fd5b505050506040513d601f19601f82011682018060405250810190610f389190611cc1565b1015610f4357600080fd5b7f000000000000000000000000000000000000000000000000000000000000000073ffffffffffffffffffffffffffffffffffffffff1663518fd6c97f00000000000000000000000000000000000000000000000000000000000000006005543360006040518563ffffffff1660e01b8152600401610fc59493929190611cfd565b602060405180830381600087803b158015610fdf57600080fd5b505af1158015610ff3573d6000803e3d6000fd5b505050506040513d601f19601f820116820180604052508101906110179190611cc1565b506110206115db565b50600554600460008282546110359190611d71565b925050819055507f000000000000000000000000000000000000000000000000000000000000000073ffffffffffffffffffffffffffffffffffffffff16638397ff2a6000836001600a60025461108c9190611df6565b6110969190611d71565b6040518463ffffffff1660e01b81526004016110b49392919061220f565b600060405180830381600087803b1580156110ce57600080fd5b505af11580156110e2573d6000803e3d6000fd5b505050507f2872630550bfeca98e30b8c17f7d5df3351c9275d303bca9626fc04711b38f216001600a6002546111189190611df6565b6111229190611d71565b60405161112f9190612292565b60405180910390a150565b7f000000000000000000000000000000000000000000000000000000000000000073ffffffffffffffffffffffffffffffffffffffff166377ade19082336040518363ffffffff1660e01b8152600401611195929190611c1e565b60206040518083038186803b1580156111ad57600080fd5b505afa1580156111c1573d6000803e3d6000fd5b505050506040513d601f19601f820116820180604052508101906111e59190611c7f565b6111ee57600080fd5b600a7f000000000000000000000000000000000000000000000000000000000000000073ffffffffffffffffffffffffffffffffffffffff16637f1e7d41836040518263ffffffff1660e01b81526004016112499190611b6e565b60206040518083038186803b15801561126157600080fd5b505afa158015611275573d6000803e3d6000fd5b505050506040513d601f19601f820116820180604052508101906112999190611cc1565b10156112a457600080fd5b7f000000000000000000000000000000000000000000000000000000000000000073ffffffffffffffffffffffffffffffffffffffff1663518fd6c97f00000000000000000000000000000000000000000000000000000000000000006005543360006040518563ffffffff1660e01b81526004016113269493929190611cfd565b602060405180830381600087803b15801561134057600080fd5b505af1158015611354573d6000803e3d6000fd5b505050506040513d601f19601f820116820180604052508101906113789190611cc1565b506113816115db565b50600554600460008282546113969190611d71565b925050819055507f000000000000000000000000000000000000000000000000000000000000000073ffffffffffffffffffffffffffffffffffffffff16638397ff2a6002836001600a6002546113ed9190611df6565b6113f79190611d71565b6040518463ffffffff1660e01b8152600401611415939291906122fb565b600060405180830381600087803b15801561142f57600080fd5b505af1158015611443573d6000803e3d6000fd5b505050507f2872630550bfeca98e30b8c17f7d5df3351c9275d303bca9626fc04711b38f216001600a6002546114799190611df6565b6114839190611d71565b604051611490919061237e565b60405180910390a150565b7f000000000000000000000000000000000000000000000000000000000000000081565b6114c7611704565b73ffffffffffffffffffffffffffffffffffffffff166114e5610702565b73ffffffffffffffffffffffffffffffffffffffff161461153b576040517f08c379a000000000000000000000000000000000000000000000000000000000815260040161153290611f70565b60405180910390fd5b600073ffffffffffffffffffffffffffffffffffffffff168173ffffffffffffffffffffffffffffffffffffffff1614156115ab576040517f08c379a00000000000000000000000000000000000000000000000000000000081526004016115a29061241e565b60405180910390fd5b6115b48161170c565b50565b7f000000000000000000000000000000000000000000000000000000000000000081565b60006003547f000000000000000000000000000000000000000000000000000000000000000073ffffffffffffffffffffffffffffffffffffffff166370a08231306040518263ffffffff1660e01b81526004016116399190611ace565b60206040518083038186803b15801561165157600080fd5b505afa158015611665573d6000803e3d6000fd5b505050506040513d601f19601f820116820180604052508101906116899190611cc1565b10156116ca576040517f08c379a00000000000000000000000000000000000000000000000000000000081526004016116c1906124b0565b60405180910390fd5b60006116fb7f2ed0feb3e7fd2022120aa84fab1945545a9f2ffc9076fd6156fa96eaff4c131160001b6003546117db565b90508091505090565b600033905090565b60008060009054906101000a900473ffffffffffffffffffffffffffffffffffffffff169050816000806101000a81548173ffffffffffffffffffffffffffffffffffffffff021916908373ffffffffffffffffffffffffffffffffffffffff1602179055508173ffffffffffffffffffffffffffffffffffffffff168173ffffffffffffffffffffffffffffffffffffffff167f8be0079c531659141344cd1fd0a4f28419497f9722a3daafe3b4186f6b6457e060405160405180910390a35050565b806002819055505050565b60007f000000000000000000000000000000000000000000000000000000000000000073ffffffffffffffffffffffffffffffffffffffff16634000aea07f00000000000000000000000000000000000000000000000000000000000000008486600060405160200161184f9291906124df565b6040516020818303038152906040526040518463ffffffff1660e01b815260040161187c939291906125a1565b602060405180830381600087803b15801561189657600080fd5b505af11580156118aa573d6000803e3d6000fd5b505050506040513d601f19601f820116820180604052508101906118ce9190611c7f565b5060006118f184600030600160008981526020019081526020016000205461193c565b90506001806000868152602001908152602001600020546119129190611d71565b60016000868152602001908152602001600020819055506119338482611978565b91505092915050565b60008484848460405160200161195594939291906125df565b6040516020818303038152906040528051906020012060001c9050949350505050565b6000828260405160200161198d929190612666565b60405160208183030381529060405280519060200120905092915050565b600080fd5b6000819050919050565b6119c3816119b0565b81146119ce57600080fd5b50565b6000813590506119e0816119ba565b92915050565b6000602082840312156119fc576119fb6119ab565b5b6000611a0a848285016119d1565b91505092915050565b600073ffffffffffffffffffffffffffffffffffffffff82169050919050565b6000819050919050565b6000611a58611a53611a4e84611a13565b611a33565b611a13565b9050919050565b6000611a6a82611a3d565b9050919050565b6000611a7c82611a5f565b9050919050565b611a8c81611a71565b82525050565b6000602082019050611aa76000830184611a83565b92915050565b6000611ab882611a13565b9050919050565b611ac881611aad565b82525050565b6000602082019050611ae36000830184611abf565b92915050565b6000819050919050565b611afc81611ae9565b8114611b0757600080fd5b50565b600081359050611b1981611af3565b92915050565b60008060408385031215611b3657611b356119ab565b5b6000611b4485828601611b0a565b9250506020611b55858286016119d1565b9150509250929050565b611b68816119b0565b82525050565b6000602082019050611b836000830184611b5f565b92915050565b611b9281611aad565b8114611b9d57600080fd5b50565b600081359050611baf81611b89565b92915050565b600060208284031215611bcb57611bca6119ab565b5b6000611bd984828501611ba0565b91505092915050565b6000611bed82611a5f565b9050919050565b611bfd81611be2565b82525050565b6000602082019050611c186000830184611bf4565b92915050565b6000604082019050611c336000830185611b5f565b611c406020830184611abf565b9392505050565b60008115159050919050565b611c5c81611c47565b8114611c6757600080fd5b50565b600081519050611c7981611c53565b92915050565b600060208284031215611c9557611c946119ab565b5b6000611ca384828501611c6a565b91505092915050565b600081519050611cbb816119ba565b92915050565b600060208284031215611cd757611cd66119ab565b5b6000611ce584828501611cac565b91505092915050565b611cf781611c47565b82525050565b6000608082019050611d126000830187611abf565b611d1f6020830186611b5f565b611d2c6040830185611abf565b611d396060830184611cee565b95945050505050565b7f4e487b7100000000000000000000000000000000000000000000000000000000600052601160045260246000fd5b6000611d7c826119b0565b9150611d87836119b0565b9250827fffffffffffffffffffffffffffffffffffffffffffffffffffffffffffffffff03821115611dbc57611dbb611d42565b5b828201905092915050565b7f4e487b7100000000000000000000000000000000000000000000000000000000600052601260045260246000fd5b6000611e01826119b0565b9150611e0c836119b0565b925082611e1c57611e1b611dc7565b5b828206905092915050565b6000819050919050565b6000611e4c611e47611e4284611e27565b611a33565b6119b0565b9050919050565b611e5c81611e31565b82525050565b6000606082019050611e776000830186611e53565b611e846020830185611b5f565b611e916040830184611b5f565b949350505050565b600082825260208201905092915050565b7f4c69746572616379000000000000000000000000000000000000000000000000600082015250565b6000611ee0600883611e99565b9150611eeb82611eaa565b602082019050919050565b60006040820190508181036000830152611f0f81611ed3565b9050611f1e6020830184611b5f565b92915050565b7f4f776e61626c653a2063616c6c6572206973206e6f7420746865206f776e6572600082015250565b6000611f5a602083611e99565b9150611f6582611f24565b602082019050919050565b60006020820190508181036000830152611f8981611f4d565b9050919050565b7f4f6e6c7920565246436f6f7264696e61746f722063616e2066756c66696c6c00600082015250565b6000611fc6601f83611e99565b9150611fd182611f90565b602082019050919050565b60006020820190508181036000830152611ff581611fb9565b9050919050565b6000819050919050565b600061202161201c61201784611ffc565b611a33565b6119b0565b9050919050565b61203181612006565b82525050565b600060608201905061204c6000830186612028565b6120596020830185611b5f565b6120666040830184611b5f565b949350505050565b7f576973646f6d0000000000000000000000000000000000000000000000000000600082015250565b60006120a4600683611e99565b91506120af8261206e565b602082019050919050565b600060408201905081810360008301526120d381612097565b90506120e26020830184611b5f565b92915050565b6000819050919050565b600061210d612108612103846120e8565b611a33565b6119b0565b9050919050565b61211d816120f2565b82525050565b60006060820190506121386000830186612114565b6121456020830185611b5f565b6121526040830184611b5f565b949350505050565b7f537472656e677468000000000000000000000000000000000000000000000000600082015250565b6000612190600883611e99565b915061219b8261215a565b602082019050919050565b600060408201905081810360008301526121bf81612183565b90506121ce6020830184611b5f565b92915050565b6000819050919050565b60006121f96121f46121ef846121d4565b611a33565b6119b0565b9050919050565b612209816121de565b82525050565b60006060820190506122246000830186612200565b6122316020830185611b5f565b61223e6040830184611b5f565b949350505050565b7f4d61746800000000000000000000000000000000000000000000000000000000600082015250565b600061227c600483611e99565b915061228782612246565b602082019050919050565b600060408201905081810360008301526122ab8161226f565b90506122ba6020830184611b5f565b92915050565b6000819050919050565b60006122e56122e06122db846122c0565b611a33565b6119b0565b9050919050565b6122f5816122ca565b82525050565b600060608201905061231060008301866122ec565b61231d6020830185611b5f565b61232a6040830184611b5f565b949350505050565b7f536369656e636500000000000000000000000000000000000000000000000000600082015250565b6000612368600783611e99565b915061237382612332565b602082019050919050565b600060408201905081810360008301526123978161235b565b90506123a66020830184611b5f565b92915050565b7f4f776e61626c653a206e6577206f776e657220697320746865207a65726f206160008201527f6464726573730000000000000000000000000000000000000000000000000000602082015250565b6000612408602683611e99565b9150612413826123ac565b604082019050919050565b60006020820190508181036000830152612437816123fb565b9050919050565b7f4e6f7420656e6f756768204c494e4b202d2066696c6c20636f6e74726163742060008201527f7769746820666175636574000000000000000000000000000000000000000000602082015250565b600061249a602b83611e99565b91506124a58261243e565b604082019050919050565b600060208201905081810360008301526124c98161248d565b9050919050565b6124d981611ae9565b82525050565b60006040820190506124f460008301856124d0565b6125016020830184611b5f565b9392505050565b600081519050919050565b600082825260208201905092915050565b60005b83811015612542578082015181840152602081019050612527565b83811115612551576000848401525b50505050565b6000601f19601f8301169050919050565b600061257382612508565b61257d8185612513565b935061258d818560208601612524565b61259681612557565b840191505092915050565b60006060820190506125b66000830186611abf565b6125c36020830185611b5f565b81810360408301526125d58184612568565b9050949350505050565b60006080820190506125f460008301876124d0565b6126016020830186611b5f565b61260e6040830185611abf565b61261b6060830184611b5f565b95945050505050565b6000819050919050565b61263f61263a82611ae9565b612624565b82525050565b6000819050919050565b61266061265b826119b0565b612645565b82525050565b6000612672828561262e565b602082019150612682828461264f565b602082019150819050939250505056fea2646970667358221220f5013929b84110fc7a8d227406fa649ed7e453b0bb91b9f1cf425f3453336cb764736f6c63430008090033",
  "linkReferences": {},
  "deployedLinkReferences": {}
}