{
  "_format": "hh-sol-artifact-1",
  "contractName": "Marketplace",
  "sourceName": "contracts/Marketplace.sol",
  "abi": [
    {
      "inputs": [
        {
          "internalType": "contract FellowNFT",
          "name": "_fellow",
          "type": "address"
        },
        {
          "internalType": "contract FellowBentoBox",
          "name": "_bento",
          "type": "address"
        }
      ],
      "stateMutability": "nonpayable",
      "type": "constructor"
    },
    {
      "inputs": [
        {
          "internalType": "uint256",
          "name": "tokenId",
          "type": "uint256"
        }
      ],
      "name": "buyNFT",
      "outputs": [],
      "stateMutability": "nonpayable",
      "type": "function"
    },
    {
      "inputs": [
        {
          "internalType": "uint256",
          "name": "tokenId",
          "type": "uint256"
        },
        {
          "internalType": "uint256",
          "name": "price",
          "type": "uint256"
        }
      ],
      "name": "listForSale",
      "outputs": [],
      "stateMutability": "nonpayable",
      "type": "function"
    },
    {
      "inputs": [],
      "name": "listedNFTCount",
      "outputs": [
        {
          "internalType": "uint256",
          "name": "",
          "type": "uint256"
        }
      ],
      "stateMutability": "view",
      "type": "function"
    }
  ],
  "bytecode": "0x60c06040523480156200001157600080fd5b5060405162000d2138038062000d218339818101604052810190620000379190620001be565b8173ffffffffffffffffffffffffffffffffffffffff1660808173ffffffffffffffffffffffffffffffffffffffff1681525050738ad3aa5d5ff084307d28c8f514d7a193b2bfe7256000806101000a81548173ffffffffffffffffffffffffffffffffffffffff021916908373ffffffffffffffffffffffffffffffffffffffff1602179055508073ffffffffffffffffffffffffffffffffffffffff1660a08173ffffffffffffffffffffffffffffffffffffffff1681525050505062000205565b600080fd5b600073ffffffffffffffffffffffffffffffffffffffff82169050919050565b60006200012d8262000100565b9050919050565b6000620001418262000120565b9050919050565b620001538162000134565b81146200015f57600080fd5b50565b600081519050620001738162000148565b92915050565b6000620001868262000120565b9050919050565b620001988162000179565b8114620001a457600080fd5b50565b600081519050620001b8816200018d565b92915050565b60008060408385031215620001d857620001d7620000fb565b5b6000620001e88582860162000162565b9250506020620001fb85828601620001a7565b9150509250929050565b60805160a051610ae16200024060003960006103210152600081816101bd0152818161041f0152818161045b01526105590152610ae16000f3fe608060405234801561001057600080fd5b50600436106100415760003560e01c8063421d54001461004657806351ed828814610064578063e80d7fec14610080575b600080fd5b61004e61009c565b60405161005b9190610697565b60405180910390f35b61007e600480360381019061007991906106e3565b6100a2565b005b61009a60048036038101906100959190610710565b610557565b005b60025481565b60008054906101000a900473ffffffffffffffffffffffffffffffffffffffff1673ffffffffffffffffffffffffffffffffffffffff1663095ea7b330670de0b6b3a76400006001600086815260200190815260200160002054610106919061077f565b6040518363ffffffff1660e01b815260040161012392919061081a565b602060405180830381600087803b15801561013d57600080fd5b505af1158015610151573d6000803e3d6000fd5b505050506040513d601f19601f82011682018060405250810190610175919061087b565b61017e57600080fd5b60008054906101000a900473ffffffffffffffffffffffffffffffffffffffff1673ffffffffffffffffffffffffffffffffffffffff166323b872dd337f000000000000000000000000000000000000000000000000000000000000000073ffffffffffffffffffffffffffffffffffffffff16636352211e856040518263ffffffff1660e01b81526004016102149190610697565b60206040518083038186803b15801561022c57600080fd5b505afa158015610240573d6000803e3d6000fd5b505050506040513d601f19601f8201168201806040525081019061026491906108d4565b6064600a6001600088815260200190815260200160002054610286919061077f565b6102909190610930565b60016000878152602001908152602001600020546102ae9190610961565b6040518463ffffffff1660e01b81526004016102cc93929190610995565b602060405180830381600087803b1580156102e657600080fd5b505af11580156102fa573d6000803e3d6000fd5b505050506040513d601f19601f8201168201806040525081019061031e919061087b565b507f000000000000000000000000000000000000000000000000000000000000000073ffffffffffffffffffffffffffffffffffffffff1663518fd6c960008054906101000a900473ffffffffffffffffffffffffffffffffffffffff166064600a600160008781526020019081526020016000205461039e919061077f565b6103a89190610930565b3360006040518563ffffffff1660e01b81526004016103ca94939291906109db565b602060405180830381600087803b1580156103e457600080fd5b505af11580156103f8573d6000803e3d6000fd5b505050506040513d601f19601f8201168201806040525081019061041c9190610a35565b507f000000000000000000000000000000000000000000000000000000000000000073ffffffffffffffffffffffffffffffffffffffff166342842e0e7f000000000000000000000000000000000000000000000000000000000000000073ffffffffffffffffffffffffffffffffffffffff16636352211e846040518263ffffffff1660e01b81526004016104b29190610697565b60206040518083038186803b1580156104ca57600080fd5b505afa1580156104de573d6000803e3d6000fd5b505050506040513d601f19601f8201168201806040525081019061050291906108d4565b33846040518463ffffffff1660e01b815260040161052293929190610995565b600060405180830381600087803b15801561053c57600080fd5b505af1158015610550573d6000803e3d6000fd5b5050505050565b7f000000000000000000000000000000000000000000000000000000000000000073ffffffffffffffffffffffffffffffffffffffff16636352211e836040518263ffffffff1660e01b81526004016105b09190610697565b60206040518083038186803b1580156105c857600080fd5b505afa1580156105dc573d6000803e3d6000fd5b505050506040513d601f19601f8201168201806040525081019061060091906108d4565b73ffffffffffffffffffffffffffffffffffffffff163373ffffffffffffffffffffffffffffffffffffffff161461063757600080fd5b670de0b6b3a76400008161064b919061077f565b60016000848152602001908152602001600020819055506002600081548092919061067590610a62565b91905055505050565b6000819050919050565b6106918161067e565b82525050565b60006020820190506106ac6000830184610688565b92915050565b600080fd5b6106c08161067e565b81146106cb57600080fd5b50565b6000813590506106dd816106b7565b92915050565b6000602082840312156106f9576106f86106b2565b5b6000610707848285016106ce565b91505092915050565b60008060408385031215610727576107266106b2565b5b6000610735858286016106ce565b9250506020610746858286016106ce565b9150509250929050565b7f4e487b7100000000000000000000000000000000000000000000000000000000600052601160045260246000fd5b600061078a8261067e565b91506107958361067e565b9250817fffffffffffffffffffffffffffffffffffffffffffffffffffffffffffffffff04831182151516156107ce576107cd610750565b5b828202905092915050565b600073ffffffffffffffffffffffffffffffffffffffff82169050919050565b6000610804826107d9565b9050919050565b610814816107f9565b82525050565b600060408201905061082f600083018561080b565b61083c6020830184610688565b9392505050565b60008115159050919050565b61085881610843565b811461086357600080fd5b50565b6000815190506108758161084f565b92915050565b600060208284031215610891576108906106b2565b5b600061089f84828501610866565b91505092915050565b6108b1816107f9565b81146108bc57600080fd5b50565b6000815190506108ce816108a8565b92915050565b6000602082840312156108ea576108e96106b2565b5b60006108f8848285016108bf565b91505092915050565b7f4e487b7100000000000000000000000000000000000000000000000000000000600052601260045260246000fd5b600061093b8261067e565b91506109468361067e565b92508261095657610955610901565b5b828204905092915050565b600061096c8261067e565b91506109778361067e565b92508282101561098a57610989610750565b5b828203905092915050565b60006060820190506109aa600083018661080b565b6109b7602083018561080b565b6109c46040830184610688565b949350505050565b6109d581610843565b82525050565b60006080820190506109f0600083018761080b565b6109fd6020830186610688565b610a0a604083018561080b565b610a1760608301846109cc565b95945050505050565b600081519050610a2f816106b7565b92915050565b600060208284031215610a4b57610a4a6106b2565b5b6000610a5984828501610a20565b91505092915050565b6000610a6d8261067e565b91507fffffffffffffffffffffffffffffffffffffffffffffffffffffffffffffffff821415610aa057610a9f610750565b5b60018201905091905056fea264697066735822122011b4e525b6213475805316ff0e96ea7a3d8403f08958959f5bfc0d62813ae70d64736f6c63430008090033",
  "linkReferences": {},
  "deployedLinkReferences": {}
}