{
  "_format": "hh-sol-artifact-1",
  "contractName": "BentoBoxV1",
  "sourceName": "contracts/flat/BentoBoxV1Flat.sol",
  "abi": [
    {
      "inputs": [
        {
          "internalType": "contract IERC20",
          "name": "wethToken_",
          "type": "address"
        }
      ],
      "stateMutability": "nonpayable",
      "type": "constructor"
    },
    {
      "anonymous": false,
      "inputs": [
        {
          "indexed": true,
          "internalType": "address",
          "name": "masterContract",
          "type": "address"
        },
        {
          "indexed": false,
          "internalType": "bytes",
          "name": "data",
          "type": "bytes"
        },
        {
          "indexed": true,
          "internalType": "address",
          "name": "cloneAddress",
          "type": "address"
        }
      ],
      "name": "LogDeploy",
      "type": "event"
    },
    {
      "anonymous": false,
      "inputs": [
        {
          "indexed": true,
          "internalType": "contract IERC20",
          "name": "token",
          "type": "address"
        },
        {
          "indexed": true,
          "internalType": "address",
          "name": "from",
          "type": "address"
        },
        {
          "indexed": true,
          "internalType": "address",
          "name": "to",
          "type": "address"
        },
        {
          "indexed": false,
          "internalType": "uint256",
          "name": "amount",
          "type": "uint256"
        },
        {
          "indexed": false,
          "internalType": "uint256",
          "name": "share",
          "type": "uint256"
        }
      ],
      "name": "LogDeposit",
      "type": "event"
    },
    {
      "anonymous": false,
      "inputs": [
        {
          "indexed": true,
          "internalType": "address",
          "name": "borrower",
          "type": "address"
        },
        {
          "indexed": true,
          "internalType": "contract IERC20",
          "name": "token",
          "type": "address"
        },
        {
          "indexed": false,
          "internalType": "uint256",
          "name": "amount",
          "type": "uint256"
        },
        {
          "indexed": false,
          "internalType": "uint256",
          "name": "feeAmount",
          "type": "uint256"
        },
        {
          "indexed": true,
          "internalType": "address",
          "name": "receiver",
          "type": "address"
        }
      ],
      "name": "LogFlashLoan",
      "type": "event"
    },
    {
      "anonymous": false,
      "inputs": [
        {
          "indexed": true,
          "internalType": "address",
          "name": "protocol",
          "type": "address"
        }
      ],
      "name": "LogRegisterProtocol",
      "type": "event"
    },
    {
      "anonymous": false,
      "inputs": [
        {
          "indexed": true,
          "internalType": "address",
          "name": "masterContract",
          "type": "address"
        },
        {
          "indexed": true,
          "internalType": "address",
          "name": "user",
          "type": "address"
        },
        {
          "indexed": false,
          "internalType": "bool",
          "name": "approved",
          "type": "bool"
        }
      ],
      "name": "LogSetMasterContractApproval",
      "type": "event"
    },
    {
      "anonymous": false,
      "inputs": [
        {
          "indexed": true,
          "internalType": "contract IERC20",
          "name": "token",
          "type": "address"
        },
        {
          "indexed": false,
          "internalType": "uint256",
          "name": "amount",
          "type": "uint256"
        }
      ],
      "name": "LogStrategyDivest",
      "type": "event"
    },
    {
      "anonymous": false,
      "inputs": [
        {
          "indexed": true,
          "internalType": "contract IERC20",
          "name": "token",
          "type": "address"
        },
        {
          "indexed": false,
          "internalType": "uint256",
          "name": "amount",
          "type": "uint256"
        }
      ],
      "name": "LogStrategyInvest",
      "type": "event"
    },
    {
      "anonymous": false,
      "inputs": [
        {
          "indexed": true,
          "internalType": "contract IERC20",
          "name": "token",
          "type": "address"
        },
        {
          "indexed": false,
          "internalType": "uint256",
          "name": "amount",
          "type": "uint256"
        }
      ],
      "name": "LogStrategyLoss",
      "type": "event"
    },
    {
      "anonymous": false,
      "inputs": [
        {
          "indexed": true,
          "internalType": "contract IERC20",
          "name": "token",
          "type": "address"
        },
        {
          "indexed": false,
          "internalType": "uint256",
          "name": "amount",
          "type": "uint256"
        }
      ],
      "name": "LogStrategyProfit",
      "type": "event"
    },
    {
      "anonymous": false,
      "inputs": [
        {
          "indexed": true,
          "internalType": "contract IERC20",
          "name": "token",
          "type": "address"
        },
        {
          "indexed": true,
          "internalType": "contract IStrategy",
          "name": "strategy",
          "type": "address"
        }
      ],
      "name": "LogStrategyQueued",
      "type": "event"
    },
    {
      "anonymous": false,
      "inputs": [
        {
          "indexed": true,
          "internalType": "contract IERC20",
          "name": "token",
          "type": "address"
        },
        {
          "indexed": true,
          "internalType": "contract IStrategy",
          "name": "strategy",
          "type": "address"
        }
      ],
      "name": "LogStrategySet",
      "type": "event"
    },
    {
      "anonymous": false,
      "inputs": [
        {
          "indexed": true,
          "internalType": "contract IERC20",
          "name": "token",
          "type": "address"
        },
        {
          "indexed": false,
          "internalType": "uint256",
          "name": "targetPercentage",
          "type": "uint256"
        }
      ],
      "name": "LogStrategyTargetPercentage",
      "type": "event"
    },
    {
      "anonymous": false,
      "inputs": [
        {
          "indexed": true,
          "internalType": "contract IERC20",
          "name": "token",
          "type": "address"
        },
        {
          "indexed": true,
          "internalType": "address",
          "name": "from",
          "type": "address"
        },
        {
          "indexed": true,
          "internalType": "address",
          "name": "to",
          "type": "address"
        },
        {
          "indexed": false,
          "internalType": "uint256",
          "name": "share",
          "type": "uint256"
        }
      ],
      "name": "LogTransfer",
      "type": "event"
    },
    {
      "anonymous": false,
      "inputs": [
        {
          "indexed": true,
          "internalType": "address",
          "name": "masterContract",
          "type": "address"
        },
        {
          "indexed": false,
          "internalType": "bool",
          "name": "approved",
          "type": "bool"
        }
      ],
      "name": "LogWhiteListMasterContract",
      "type": "event"
    },
    {
      "anonymous": false,
      "inputs": [
        {
          "indexed": true,
          "internalType": "contract IERC20",
          "name": "token",
          "type": "address"
        },
        {
          "indexed": true,
          "internalType": "address",
          "name": "from",
          "type": "address"
        },
        {
          "indexed": true,
          "internalType": "address",
          "name": "to",
          "type": "address"
        },
        {
          "indexed": false,
          "internalType": "uint256",
          "name": "amount",
          "type": "uint256"
        },
        {
          "indexed": false,
          "internalType": "uint256",
          "name": "share",
          "type": "uint256"
        }
      ],
      "name": "LogWithdraw",
      "type": "event"
    },
    {
      "anonymous": false,
      "inputs": [
        {
          "indexed": true,
          "internalType": "address",
          "name": "previousOwner",
          "type": "address"
        },
        {
          "indexed": true,
          "internalType": "address",
          "name": "newOwner",
          "type": "address"
        }
      ],
      "name": "OwnershipTransferred",
      "type": "event"
    },
    {
      "inputs": [],
      "name": "DOMAIN_SEPARATOR",
      "outputs": [
        {
          "internalType": "bytes32",
          "name": "",
          "type": "bytes32"
        }
      ],
      "stateMutability": "view",
      "type": "function"
    },
    {
      "inputs": [
        {
          "internalType": "contract IERC20",
          "name": "",
          "type": "address"
        },
        {
          "internalType": "address",
          "name": "",
          "type": "address"
        }
      ],
      "name": "balanceOf",
      "outputs": [
        {
          "internalType": "uint256",
          "name": "",
          "type": "uint256"
        }
      ],
      "stateMutability": "view",
      "type": "function"
    },
    {
      "inputs": [
        {
          "internalType": "bytes[]",
          "name": "calls",
          "type": "bytes[]"
        },
        {
          "internalType": "bool",
          "name": "revertOnFail",
          "type": "bool"
        }
      ],
      "name": "batch",
      "outputs": [
        {
          "internalType": "bool[]",
          "name": "successes",
          "type": "bool[]"
        },
        {
          "internalType": "bytes[]",
          "name": "results",
          "type": "bytes[]"
        }
      ],
      "stateMutability": "payable",
      "type": "function"
    },
    {
      "inputs": [
        {
          "internalType": "contract IBatchFlashBorrower",
          "name": "borrower",
          "type": "address"
        },
        {
          "internalType": "address[]",
          "name": "receivers",
          "type": "address[]"
        },
        {
          "internalType": "contract IERC20[]",
          "name": "tokens",
          "type": "address[]"
        },
        {
          "internalType": "uint256[]",
          "name": "amounts",
          "type": "uint256[]"
        },
        {
          "internalType": "bytes",
          "name": "data",
          "type": "bytes"
        }
      ],
      "name": "batchFlashLoan",
      "outputs": [],
      "stateMutability": "nonpayable",
      "type": "function"
    },
    {
      "inputs": [],
      "name": "claimOwnership",
      "outputs": [],
      "stateMutability": "nonpayable",
      "type": "function"
    },
    {
      "inputs": [
        {
          "internalType": "address",
          "name": "masterContract",
          "type": "address"
        },
        {
          "internalType": "bytes",
          "name": "data",
          "type": "bytes"
        },
        {
          "internalType": "bool",
          "name": "useCreate2",
          "type": "bool"
        }
      ],
      "name": "deploy",
      "outputs": [
        {
          "internalType": "address",
          "name": "cloneAddress",
          "type": "address"
        }
      ],
      "stateMutability": "payable",
      "type": "function"
    },
    {
      "inputs": [
        {
          "internalType": "contract IERC20",
          "name": "token_",
          "type": "address"
        },
        {
          "internalType": "address",
          "name": "from",
          "type": "address"
        },
        {
          "internalType": "address",
          "name": "to",
          "type": "address"
        },
        {
          "internalType": "uint256",
          "name": "amount",
          "type": "uint256"
        },
        {
          "internalType": "uint256",
          "name": "share",
          "type": "uint256"
        }
      ],
      "name": "deposit",
      "outputs": [
        {
          "internalType": "uint256",
          "name": "amountOut",
          "type": "uint256"
        },
        {
          "internalType": "uint256",
          "name": "shareOut",
          "type": "uint256"
        }
      ],
      "stateMutability": "payable",
      "type": "function"
    },
    {
      "inputs": [
        {
          "internalType": "contract IFlashBorrower",
          "name": "borrower",
          "type": "address"
        },
        {
          "internalType": "address",
          "name": "receiver",
          "type": "address"
        },
        {
          "internalType": "contract IERC20",
          "name": "token",
          "type": "address"
        },
        {
          "internalType": "uint256",
          "name": "amount",
          "type": "uint256"
        },
        {
          "internalType": "bytes",
          "name": "data",
          "type": "bytes"
        }
      ],
      "name": "flashLoan",
      "outputs": [],
      "stateMutability": "nonpayable",
      "type": "function"
    },
    {
      "inputs": [
        {
          "internalType": "contract IERC20",
          "name": "token",
          "type": "address"
        },
        {
          "internalType": "bool",
          "name": "balance",
          "type": "bool"
        },
        {
          "internalType": "uint256",
          "name": "maxChangeAmount",
          "type": "uint256"
        }
      ],
      "name": "harvest",
      "outputs": [],
      "stateMutability": "nonpayable",
      "type": "function"
    },
    {
      "inputs": [
        {
          "internalType": "address",
          "name": "",
          "type": "address"
        },
        {
          "internalType": "address",
          "name": "",
          "type": "address"
        }
      ],
      "name": "masterContractApproved",
      "outputs": [
        {
          "internalType": "bool",
          "name": "",
          "type": "bool"
        }
      ],
      "stateMutability": "view",
      "type": "function"
    },
    {
      "inputs": [
        {
          "internalType": "address",
          "name": "",
          "type": "address"
        }
      ],
      "name": "masterContractOf",
      "outputs": [
        {
          "internalType": "address",
          "name": "",
          "type": "address"
        }
      ],
      "stateMutability": "view",
      "type": "function"
    },
    {
      "inputs": [
        {
          "internalType": "address",
          "name": "",
          "type": "address"
        }
      ],
      "name": "nonces",
      "outputs": [
        {
          "internalType": "uint256",
          "name": "",
          "type": "uint256"
        }
      ],
      "stateMutability": "view",
      "type": "function"
    },
    {
      "inputs": [],
      "name": "owner",
      "outputs": [
        {
          "internalType": "address",
          "name": "",
          "type": "address"
        }
      ],
      "stateMutability": "view",
      "type": "function"
    },
    {
      "inputs": [],
      "name": "pendingOwner",
      "outputs": [
        {
          "internalType": "address",
          "name": "",
          "type": "address"
        }
      ],
      "stateMutability": "view",
      "type": "function"
    },
    {
      "inputs": [
        {
          "internalType": "contract IERC20",
          "name": "",
          "type": "address"
        }
      ],
      "name": "pendingStrategy",
      "outputs": [
        {
          "internalType": "contract IStrategy",
          "name": "",
          "type": "address"
        }
      ],
      "stateMutability": "view",
      "type": "function"
    },
    {
      "inputs": [
        {
          "internalType": "contract IERC20",
          "name": "token",
          "type": "address"
        },
        {
          "internalType": "address",
          "name": "from",
          "type": "address"
        },
        {
          "internalType": "address",
          "name": "to",
          "type": "address"
        },
        {
          "internalType": "uint256",
          "name": "amount",
          "type": "uint256"
        },
        {
          "internalType": "uint256",
          "name": "deadline",
          "type": "uint256"
        },
        {
          "internalType": "uint8",
          "name": "v",
          "type": "uint8"
        },
        {
          "internalType": "bytes32",
          "name": "r",
          "type": "bytes32"
        },
        {
          "internalType": "bytes32",
          "name": "s",
          "type": "bytes32"
        }
      ],
      "name": "permitToken",
      "outputs": [],
      "stateMutability": "nonpayable",
      "type": "function"
    },
    {
      "inputs": [],
      "name": "registerProtocol",
      "outputs": [],
      "stateMutability": "nonpayable",
      "type": "function"
    },
    {
      "inputs": [
        {
          "internalType": "address",
          "name": "user",
          "type": "address"
        },
        {
          "internalType": "address",
          "name": "masterContract",
          "type": "address"
        },
        {
          "internalType": "bool",
          "name": "approved",
          "type": "bool"
        },
        {
          "internalType": "uint8",
          "name": "v",
          "type": "uint8"
        },
        {
          "internalType": "bytes32",
          "name": "r",
          "type": "bytes32"
        },
        {
          "internalType": "bytes32",
          "name": "s",
          "type": "bytes32"
        }
      ],
      "name": "setMasterContractApproval",
      "outputs": [],
      "stateMutability": "nonpayable",
      "type": "function"
    },
    {
      "inputs": [
        {
          "internalType": "contract IERC20",
          "name": "token",
          "type": "address"
        },
        {
          "internalType": "contract IStrategy",
          "name": "newStrategy",
          "type": "address"
        }
      ],
      "name": "setStrategy",
      "outputs": [],
      "stateMutability": "nonpayable",
      "type": "function"
    },
    {
      "inputs": [
        {
          "internalType": "contract IERC20",
          "name": "token",
          "type": "address"
        },
        {
          "internalType": "uint64",
          "name": "targetPercentage_",
          "type": "uint64"
        }
      ],
      "name": "setStrategyTargetPercentage",
      "outputs": [],
      "stateMutability": "nonpayable",
      "type": "function"
    },
    {
      "inputs": [
        {
          "internalType": "contract IERC20",
          "name": "",
          "type": "address"
        }
      ],
      "name": "strategy",
      "outputs": [
        {
          "internalType": "contract IStrategy",
          "name": "",
          "type": "address"
        }
      ],
      "stateMutability": "view",
      "type": "function"
    },
    {
      "inputs": [
        {
          "internalType": "contract IERC20",
          "name": "",
          "type": "address"
        }
      ],
      "name": "strategyData",
      "outputs": [
        {
          "internalType": "uint64",
          "name": "strategyStartDate",
          "type": "uint64"
        },
        {
          "internalType": "uint64",
          "name": "targetPercentage",
          "type": "uint64"
        },
        {
          "internalType": "uint128",
          "name": "balance",
          "type": "uint128"
        }
      ],
      "stateMutability": "view",
      "type": "function"
    },
    {
      "inputs": [
        {
          "internalType": "contract IERC20",
          "name": "token",
          "type": "address"
        },
        {
          "internalType": "uint256",
          "name": "share",
          "type": "uint256"
        },
        {
          "internalType": "bool",
          "name": "roundUp",
          "type": "bool"
        }
      ],
      "name": "toAmount",
      "outputs": [
        {
          "internalType": "uint256",
          "name": "amount",
          "type": "uint256"
        }
      ],
      "stateMutability": "view",
      "type": "function"
    },
    {
      "inputs": [
        {
          "internalType": "contract IERC20",
          "name": "token",
          "type": "address"
        },
        {
          "internalType": "uint256",
          "name": "amount",
          "type": "uint256"
        },
        {
          "internalType": "bool",
          "name": "roundUp",
          "type": "bool"
        }
      ],
      "name": "toShare",
      "outputs": [
        {
          "internalType": "uint256",
          "name": "share",
          "type": "uint256"
        }
      ],
      "stateMutability": "view",
      "type": "function"
    },
    {
      "inputs": [
        {
          "internalType": "contract IERC20",
          "name": "",
          "type": "address"
        }
      ],
      "name": "totals",
      "outputs": [
        {
          "internalType": "uint128",
          "name": "elastic",
          "type": "uint128"
        },
        {
          "internalType": "uint128",
          "name": "base",
          "type": "uint128"
        }
      ],
      "stateMutability": "view",
      "type": "function"
    },
    {
      "inputs": [
        {
          "internalType": "contract IERC20",
          "name": "token",
          "type": "address"
        },
        {
          "internalType": "address",
          "name": "from",
          "type": "address"
        },
        {
          "internalType": "address",
          "name": "to",
          "type": "address"
        },
        {
          "internalType": "uint256",
          "name": "share",
          "type": "uint256"
        }
      ],
      "name": "transfer",
      "outputs": [],
      "stateMutability": "nonpayable",
      "type": "function"
    },
    {
      "inputs": [
        {
          "internalType": "contract IERC20",
          "name": "token",
          "type": "address"
        },
        {
          "internalType": "address",
          "name": "from",
          "type": "address"
        },
        {
          "internalType": "address[]",
          "name": "tos",
          "type": "address[]"
        },
        {
          "internalType": "uint256[]",
          "name": "shares",
          "type": "uint256[]"
        }
      ],
      "name": "transferMultiple",
      "outputs": [],
      "stateMutability": "nonpayable",
      "type": "function"
    },
    {
      "inputs": [
        {
          "internalType": "address",
          "name": "newOwner",
          "type": "address"
        },
        {
          "internalType": "bool",
          "name": "direct",
          "type": "bool"
        },
        {
          "internalType": "bool",
          "name": "renounce",
          "type": "bool"
        }
      ],
      "name": "transferOwnership",
      "outputs": [],
      "stateMutability": "nonpayable",
      "type": "function"
    },
    {
      "inputs": [
        {
          "internalType": "address",
          "name": "masterContract",
          "type": "address"
        },
        {
          "internalType": "bool",
          "name": "approved",
          "type": "bool"
        }
      ],
      "name": "whitelistMasterContract",
      "outputs": [],
      "stateMutability": "nonpayable",
      "type": "function"
    },
    {
      "inputs": [
        {
          "internalType": "address",
          "name": "",
          "type": "address"
        }
      ],
      "name": "whitelistedMasterContracts",
      "outputs": [
        {
          "internalType": "bool",
          "name": "",
          "type": "bool"
        }
      ],
      "stateMutability": "view",
      "type": "function"
    },
    {
      "inputs": [
        {
          "internalType": "contract IERC20",
          "name": "token_",
          "type": "address"
        },
        {
          "internalType": "address",
          "name": "from",
          "type": "address"
        },
        {
          "internalType": "address",
          "name": "to",
          "type": "address"
        },
        {
          "internalType": "uint256",
          "name": "amount",
          "type": "uint256"
        },
        {
          "internalType": "uint256",
          "name": "share",
          "type": "uint256"
        }
      ],
      "name": "withdraw",
      "outputs": [
        {
          "internalType": "uint256",
          "name": "amountOut",
          "type": "uint256"
        },
        {
          "internalType": "uint256",
          "name": "shareOut",
          "type": "uint256"
        }
      ],
      "stateMutability": "nonpayable",
      "type": "function"
    },
    {
      "stateMutability": "payable",
      "type": "receive"
    }
  ],
  "bytecode": "0x60e06040523480156200001157600080fd5b5060405162008905380380620089058339818101604052810190620000379190620001c3565b336000806101000a81548173ffffffffffffffffffffffffffffffffffffffff021916908373ffffffffffffffffffffffffffffffffffffffff1602179055503373ffffffffffffffffffffffffffffffffffffffff16600073ffffffffffffffffffffffffffffffffffffffff167f8be0079c531659141344cd1fd0a4f28419497f9722a3daafe3b4186f6b6457e060405160405180910390a36000469050620000ee8160a0818152506200013460201b60201c565b60808181525050508073ffffffffffffffffffffffffffffffffffffffff1660c08173ffffffffffffffffffffffffffffffffffffffff1660601b8152505050620002e5565b60007f8cad95687ba82c2ce50e74f7b754645e5117c3a5bec8151c0726d5857980a8667fd7df266aff736d415a9dc14b4158201d612e70d75b9c7f4e375ccfd20aa5166f83306040516020016200018f949392919062000222565b604051602081830303815290604052805190602001209050919050565b600081519050620001bd81620002cb565b92915050565b600060208284031215620001d657600080fd5b6000620001e684828501620001ac565b91505092915050565b620001fa816200026f565b82525050565b6200020b8162000283565b82525050565b6200021c81620002c1565b82525050565b600060808201905062000239600083018762000200565b62000248602083018662000200565b62000257604083018562000211565b620002666060830184620001ef565b95945050505050565b60006200027c82620002a1565b9050919050565b6000819050919050565b60006200029a826200026f565b9050919050565b600073ffffffffffffffffffffffffffffffffffffffff82169050919050565b6000819050919050565b620002d6816200028d565b8114620002e257600080fd5b50565b60805160a05160c05160601c6185e16200032460003980610a8952806110b65280613aba5280613f46525080611d68525080611d9d52506185e16000f3fe6080604052600436106101dc5760003560e01c80637c516e9411610102578063d2423b5111610095578063f1676d3711610064578063f1676d3714610714578063f18d03cc1461073d578063f483b3da14610766578063f7888aec1461078f576101e3565b8063d2423b511461063c578063da5139ca1461066d578063df23b45b146106aa578063e30c3978146106e9576101e3565b806397da6d30116100d157806397da6d3014610581578063aee4d1b2146105bf578063bafe4f14146105d6578063c0a47c9314610613576101e3565b80637c516e94146104b35780637ecebe00146104dc5780638da5cb5b1461051957806391e0eab514610544576101e3565b80633e2a9d4e1161017a578063566231181161014957806356623118146103fb57806366c6bb0b1461043857806372cb5d9714610461578063733a9d7c1461048a576101e3565b80633e2a9d4e146103405780634e71e0c8146103695780634ffe34db146103805780635108a558146103be576101e3565b806312a90c8a116101b657806312a90c8a1461026b5780631f54245b146102a8578063228bfd9f146102d85780633644e51514610315576101e3565b806302b9446c146101e8578063078dfbe7146102195780630fca884314610242576101e3565b366101e357005b600080fd5b61020260048036038101906101fd919061686c565b6107cc565b60405161021092919061805a565b60405180910390f35b34801561022557600080fd5b50610240600480360381019061023b9190616580565b61122e565b005b34801561024e57600080fd5b5061026960048036038101906102649190616995565b611482565b005b34801561027757600080fd5b50610292600480360381019061028d9190616456565b611a58565b60405161029f9190617ab0565b60405180910390f35b6102c260048036038101906102bd91906165cf565b611a78565b6040516102cf91906178a3565b60405180910390f35b3480156102e457600080fd5b506102ff60048036038101906102fa91906167a4565b611d2d565b60405161030c9190617bf5565b60405180910390f35b34801561032157600080fd5b5061032a611d60565b6040516103379190617acb565b60405180910390f35b34801561034c57600080fd5b5061036760048036038101906103629190616b0a565b611dc3565b005b34801561037557600080fd5b5061037e611f5a565b005b34801561038c57600080fd5b506103a760048036038101906103a291906167a4565b6120ee565b6040516103b5929190618016565b60405180910390f35b3480156103ca57600080fd5b506103e560048036038101906103e091906167a4565b61214a565b6040516103f29190617bf5565b60405180910390f35b34801561040757600080fd5b50610422600480360381019061041d9190616abb565b61217d565b60405161042f919061803f565b60405180910390f35b34801561044457600080fd5b5061045f600480360381019061045a9190616a30565b61227a565b005b34801561046d57600080fd5b5061048860048036038101906104839190616a7f565b612be3565b005b34801561049657600080fd5b506104b160048036038101906104ac9190616544565b61356a565b005b3480156104bf57600080fd5b506104da60048036038101906104d591906168e3565b613711565b005b3480156104e857600080fd5b5061050360048036038101906104fe9190616456565b613792565b604051610510919061803f565b60405180910390f35b34801561052557600080fd5b5061052e6137aa565b60405161053b91906178a3565b60405180910390f35b34801561055057600080fd5b5061056b6004803603810190610566919061647f565b6137ce565b6040516105789190617ab0565b60405180910390f35b34801561058d57600080fd5b506105a860048036038101906105a3919061686c565b6137fd565b6040516105b692919061805a565b60405180910390f35b3480156105cb57600080fd5b506105d461413e565b005b3480156105e257600080fd5b506105fd60048036038101906105f89190616456565b614201565b60405161060a91906178a3565b60405180910390f35b34801561061f57600080fd5b5061063a600480360381019061063591906164bb565b614234565b005b6106566004803603810190610651919061663b565b614822565b604051610664929190617a79565b60405180910390f35b34801561067957600080fd5b50610694600480360381019061068f9190616abb565b614a00565b6040516106a1919061803f565b60405180910390f35b3480156106b657600080fd5b506106d160048036038101906106cc91906167a4565b614afd565b6040516106e09392919061809e565b60405180910390f35b3480156106f557600080fd5b506106fe614b6b565b60405161070b91906178a3565b60405180910390f35b34801561072057600080fd5b5061073b60048036038101906107369190616b46565b614b91565b005b34801561074957600080fd5b50610764600480360381019061075f9190616809565b614d91565b005b34801561077257600080fd5b5061078d600480360381019061078891906166bc565b6152af565b005b34801561079b57600080fd5b506107b660048036038101906107b191906167cd565b61563b565b6040516107c3919061803f565b60405180910390f35b600080853373ffffffffffffffffffffffffffffffffffffffff168173ffffffffffffffffffffffffffffffffffffffff161415801561083857503073ffffffffffffffffffffffffffffffffffffffff168173ffffffffffffffffffffffffffffffffffffffff1614155b156109dc576000600260003373ffffffffffffffffffffffffffffffffffffffff1673ffffffffffffffffffffffffffffffffffffffff16815260200190815260200160002060009054906101000a900473ffffffffffffffffffffffffffffffffffffffff169050600073ffffffffffffffffffffffffffffffffffffffff168173ffffffffffffffffffffffffffffffffffffffff161415610911576040517f08c379a000000000000000000000000000000000000000000000000000000000815260040161090890617ed2565b60405180910390fd5b600360008273ffffffffffffffffffffffffffffffffffffffff1673ffffffffffffffffffffffffffffffffffffffff16815260200190815260200160002060008373ffffffffffffffffffffffffffffffffffffffff1673ffffffffffffffffffffffffffffffffffffffff16815260200190815260200160002060009054906101000a900460ff166109da576040517f08c379a00000000000000000000000000000000000000000000000000000000081526004016109d190617df2565b60405180910390fd5b505b600073ffffffffffffffffffffffffffffffffffffffff168673ffffffffffffffffffffffffffffffffffffffff161415610a4c576040517f08c379a0000000000000000000000000000000000000000000000000000000008152600401610a4390617d92565b60405180910390fd5b60008073ffffffffffffffffffffffffffffffffffffffff168973ffffffffffffffffffffffffffffffffffffffff1614610a875788610aa9565b7f00000000000000000000000000000000000000000000000000000000000000005b9050610ab36160fa565b600760008373ffffffffffffffffffffffffffffffffffffffff1673ffffffffffffffffffffffffffffffffffffffff1681526020019081526020016000206040518060400160405290816000820160009054906101000a90046fffffffffffffffffffffffffffffffff166fffffffffffffffffffffffffffffffff166fffffffffffffffffffffffffffffffff1681526020016000820160109054906101000a90046fffffffffffffffffffffffffffffffff166fffffffffffffffffffffffffffffffff166fffffffffffffffffffffffffffffffff16815250509050600081600001516fffffffffffffffffffffffffffffffff16141580610c36575060008273ffffffffffffffffffffffffffffffffffffffff166318160ddd6040518163ffffffff1660e01b815260040160206040518083038186803b158015610bfc57600080fd5b505afa158015610c10573d6000803e3d6000fd5b505050506040513d601f19601f82011682018060405250810190610c349190616c42565b115b610c75576040517f08c379a0000000000000000000000000000000000000000000000000000000008152600401610c6c90617d12565b60405180910390fd5b6000861415610cf557610c94876000836156609092919063ffffffff16565b95506103e8610cca610ca588615749565b83602001516fffffffffffffffffffffffffffffffff166157c890919063ffffffff16565b6fffffffffffffffffffffffffffffffff161015610cf057600080945094505050611223565b610d0e565b610d0b8660018361583c9092919063ffffffff16565b96505b3073ffffffffffffffffffffffffffffffffffffffff168973ffffffffffffffffffffffffffffffffffffffff16141580610d755750600073ffffffffffffffffffffffffffffffffffffffff168a73ffffffffffffffffffffffffffffffffffffffff16145b80610db05750610dac81600001516fffffffffffffffffffffffffffffffff16610d9e84615925565b615a3990919063ffffffff16565b8711155b610def576040517f08c379a0000000000000000000000000000000000000000000000000000000008152600401610de690617c52565b60405180910390fd5b610e7e86600660008573ffffffffffffffffffffffffffffffffffffffff1673ffffffffffffffffffffffffffffffffffffffff16815260200190815260200160002060008b73ffffffffffffffffffffffffffffffffffffffff1673ffffffffffffffffffffffffffffffffffffffff16815260200190815260200160002054615a8990919063ffffffff16565b600660008473ffffffffffffffffffffffffffffffffffffffff1673ffffffffffffffffffffffffffffffffffffffff16815260200190815260200160002060008a73ffffffffffffffffffffffffffffffffffffffff1673ffffffffffffffffffffffffffffffffffffffff16815260200190815260200160002081905550610f2f610f0a87615749565b82602001516fffffffffffffffffffffffffffffffff166157c890919063ffffffff16565b81602001906fffffffffffffffffffffffffffffffff1690816fffffffffffffffffffffffffffffffff1681525050610f8f610f6a88615749565b82600001516fffffffffffffffffffffffffffffffff166157c890919063ffffffff16565b81600001906fffffffffffffffffffffffffffffffff1690816fffffffffffffffffffffffffffffffff168152505080600760008473ffffffffffffffffffffffffffffffffffffffff1673ffffffffffffffffffffffffffffffffffffffff16815260200190815260200160002060008201518160000160006101000a8154816fffffffffffffffffffffffffffffffff02191690836fffffffffffffffffffffffffffffffff16021790555060208201518160000160106101000a8154816fffffffffffffffffffffffffffffffff02191690836fffffffffffffffffffffffffffffffff160217905550905050600073ffffffffffffffffffffffffffffffffffffffff168a73ffffffffffffffffffffffffffffffffffffffff16141561113a577f000000000000000000000000000000000000000000000000000000000000000073ffffffffffffffffffffffffffffffffffffffff1663d0e30db0886040518263ffffffff1660e01b81526004016000604051808303818588803b15801561111c57600080fd5b505af1158015611130573d6000803e3d6000fd5b505050505061119c565b3073ffffffffffffffffffffffffffffffffffffffff168973ffffffffffffffffffffffffffffffffffffffff161461119b5761119a8930898573ffffffffffffffffffffffffffffffffffffffff16615ad9909392919063ffffffff16565b5b5b8773ffffffffffffffffffffffffffffffffffffffff168973ffffffffffffffffffffffffffffffffffffffff168373ffffffffffffffffffffffffffffffffffffffff167fb2346165e782564f17f5b7e555c21f4fd96fbc93458572bf0113ea35a958fc558a8a60405161121292919061805a565b60405180910390a486945085935050505b509550959350505050565b60008054906101000a900473ffffffffffffffffffffffffffffffffffffffff1673ffffffffffffffffffffffffffffffffffffffff163373ffffffffffffffffffffffffffffffffffffffff16146112bc576040517f08c379a00000000000000000000000000000000000000000000000000000000081526004016112b390617dd2565b60405180910390fd5b811561143b57600073ffffffffffffffffffffffffffffffffffffffff168373ffffffffffffffffffffffffffffffffffffffff161415806112fb5750805b61133a576040517f08c379a000000000000000000000000000000000000000000000000000000000815260040161133190617cf2565b60405180910390fd5b8273ffffffffffffffffffffffffffffffffffffffff1660008054906101000a900473ffffffffffffffffffffffffffffffffffffffff1673ffffffffffffffffffffffffffffffffffffffff167f8be0079c531659141344cd1fd0a4f28419497f9722a3daafe3b4186f6b6457e060405160405180910390a3826000806101000a81548173ffffffffffffffffffffffffffffffffffffffff021916908373ffffffffffffffffffffffffffffffffffffffff1602179055506000600160006101000a81548173ffffffffffffffffffffffffffffffffffffffff021916908373ffffffffffffffffffffffffffffffffffffffff16021790555061147d565b82600160006101000a81548173ffffffffffffffffffffffffffffffffffffffff021916908373ffffffffffffffffffffffffffffffffffffffff1602179055505b505050565b843373ffffffffffffffffffffffffffffffffffffffff168173ffffffffffffffffffffffffffffffffffffffff16141580156114eb57503073ffffffffffffffffffffffffffffffffffffffff168173ffffffffffffffffffffffffffffffffffffffff1614155b1561168f576000600260003373ffffffffffffffffffffffffffffffffffffffff1673ffffffffffffffffffffffffffffffffffffffff16815260200190815260200160002060009054906101000a900473ffffffffffffffffffffffffffffffffffffffff169050600073ffffffffffffffffffffffffffffffffffffffff168173ffffffffffffffffffffffffffffffffffffffff1614156115c4576040517f08c379a00000000000000000000000000000000000000000000000000000000081526004016115bb90617ed2565b60405180910390fd5b600360008273ffffffffffffffffffffffffffffffffffffffff1673ffffffffffffffffffffffffffffffffffffffff16815260200190815260200160002060008373ffffffffffffffffffffffffffffffffffffffff1673ffffffffffffffffffffffffffffffffffffffff16815260200190815260200160002060009054906101000a900460ff1661168d576040517f08c379a000000000000000000000000000000000000000000000000000000000815260040161168490617df2565b60405180910390fd5b505b600073ffffffffffffffffffffffffffffffffffffffff16858560008181106116b457fe5b90506020020160208101906116c99190616456565b73ffffffffffffffffffffffffffffffffffffffff161415611720576040517f08c379a000000000000000000000000000000000000000000000000000000000815260040161171790617d72565b60405180910390fd5b60008086869050905060005b8181101561193d57600088888381811061174257fe5b90506020020160208101906117579190616456565b90506117fa87878481811061176857fe5b90506020020135600660008e73ffffffffffffffffffffffffffffffffffffffff1673ffffffffffffffffffffffffffffffffffffffff16815260200190815260200160002060008473ffffffffffffffffffffffffffffffffffffffff1673ffffffffffffffffffffffffffffffffffffffff16815260200190815260200160002054615a8990919063ffffffff16565b600660008d73ffffffffffffffffffffffffffffffffffffffff1673ffffffffffffffffffffffffffffffffffffffff16815260200190815260200160002060008373ffffffffffffffffffffffffffffffffffffffff1673ffffffffffffffffffffffffffffffffffffffff1681526020019081526020016000208190555061189f87878481811061188957fe5b9050602002013585615a8990919063ffffffff16565b93508073ffffffffffffffffffffffffffffffffffffffff168a73ffffffffffffffffffffffffffffffffffffffff168c73ffffffffffffffffffffffffffffffffffffffff167f6eabe333476233fd382224f233210cb808a7bc4c4de64f9d76628bf63c677b1a8a8a8781811061191357fe5b90506020020135604051611927919061803f565b60405180910390a450808060010191505061172c565b506119cd82600660008c73ffffffffffffffffffffffffffffffffffffffff1673ffffffffffffffffffffffffffffffffffffffff16815260200190815260200160002060008b73ffffffffffffffffffffffffffffffffffffffff1673ffffffffffffffffffffffffffffffffffffffff16815260200190815260200160002054615a3990919063ffffffff16565b600660008b73ffffffffffffffffffffffffffffffffffffffff1673ffffffffffffffffffffffffffffffffffffffff16815260200190815260200160002060008a73ffffffffffffffffffffffffffffffffffffffff1673ffffffffffffffffffffffffffffffffffffffff16815260200190815260200160002081905550505050505050505050565b60046020528060005260406000206000915054906101000a900460ff1681565b60008073ffffffffffffffffffffffffffffffffffffffff168573ffffffffffffffffffffffffffffffffffffffff161415611ae9576040517f08c379a0000000000000000000000000000000000000000000000000000000008152600401611ae090617e92565b60405180910390fd5b60008560601b90508215611b755760008585604051611b09929190617825565b604051809103902090506040517f3d602d80600a3d3981f3363d3d373d3d3d363d7300000000000000000000000081528260148201527f5af43d82803e903d91602b57fd5bf300000000000000000000000000000000006028820152816037826000f593505050611bd1565b6040517f3d602d80600a3d3981f3363d3d373d3d3d363d7300000000000000000000000081528160148201527f5af43d82803e903d91602b57fd5bf3000000000000000000000000000000000060288201526037816000f09250505b85600260008473ffffffffffffffffffffffffffffffffffffffff1673ffffffffffffffffffffffffffffffffffffffff16815260200190815260200160002060006101000a81548173ffffffffffffffffffffffffffffffffffffffff021916908373ffffffffffffffffffffffffffffffffffffffff1602179055508173ffffffffffffffffffffffffffffffffffffffff16634ddf47d43487876040518463ffffffff1660e01b8152600401611c8b929190617bd1565b6000604051808303818588803b158015611ca457600080fd5b505af1158015611cb8573d6000803e3d6000fd5b50505050508173ffffffffffffffffffffffffffffffffffffffff168673ffffffffffffffffffffffffffffffffffffffff167fd62166f3c2149208e51788b1401cc356bf5da1fc6c7886a32e18570f57d88b3b8787604051611d1c929190617bd1565b60405180910390a350949350505050565b60086020528060005260406000206000915054906101000a900473ffffffffffffffffffffffffffffffffffffffff1681565b6000804690507f00000000000000000000000000000000000000000000000000000000000000008114611d9b57611d9681615c32565b611dbd565b7f00000000000000000000000000000000000000000000000000000000000000005b91505090565b60008054906101000a900473ffffffffffffffffffffffffffffffffffffffff1673ffffffffffffffffffffffffffffffffffffffff163373ffffffffffffffffffffffffffffffffffffffff1614611e51576040517f08c379a0000000000000000000000000000000000000000000000000000000008152600401611e4890617dd2565b60405180910390fd5b605f8167ffffffffffffffff161115611e9f576040517f08c379a0000000000000000000000000000000000000000000000000000000008152600401611e9690617fb2565b60405180910390fd5b80600a60008473ffffffffffffffffffffffffffffffffffffffff1673ffffffffffffffffffffffffffffffffffffffff16815260200190815260200160002060000160086101000a81548167ffffffffffffffff021916908367ffffffffffffffff1602179055508173ffffffffffffffffffffffffffffffffffffffff167f7543af99b5602c06e62da0631b5308489a5ff859150105a623b6eb15e8deae0b82604051611f4e9190618083565b60405180910390a25050565b6000600160009054906101000a900473ffffffffffffffffffffffffffffffffffffffff1690508073ffffffffffffffffffffffffffffffffffffffff163373ffffffffffffffffffffffffffffffffffffffff1614611fef576040517f08c379a0000000000000000000000000000000000000000000000000000000008152600401611fe690617e12565b60405180910390fd5b8073ffffffffffffffffffffffffffffffffffffffff1660008054906101000a900473ffffffffffffffffffffffffffffffffffffffff1673ffffffffffffffffffffffffffffffffffffffff167f8be0079c531659141344cd1fd0a4f28419497f9722a3daafe3b4186f6b6457e060405160405180910390a3806000806101000a81548173ffffffffffffffffffffffffffffffffffffffff021916908373ffffffffffffffffffffffffffffffffffffffff1602179055506000600160006101000a81548173ffffffffffffffffffffffffffffffffffffffff021916908373ffffffffffffffffffffffffffffffffffffffff16021790555050565b60076020528060005260406000206000915090508060000160009054906101000a90046fffffffffffffffffffffffffffffffff16908060000160109054906101000a90046fffffffffffffffffffffffffffffffff16905082565b60096020528060005260406000206000915054906101000a900473ffffffffffffffffffffffffffffffffffffffff1681565b60006122718383600760008873ffffffffffffffffffffffffffffffffffffffff1673ffffffffffffffffffffffffffffffffffffffff1681526020019081526020016000206040518060400160405290816000820160009054906101000a90046fffffffffffffffffffffffffffffffff166fffffffffffffffffffffffffffffffff166fffffffffffffffffffffffffffffffff1681526020016000820160109054906101000a90046fffffffffffffffffffffffffffffffff166fffffffffffffffffffffffffffffffff166fffffffffffffffffffffffffffffffff168152505061583c9092919063ffffffff16565b90509392505050565b612282616138565b600a60008573ffffffffffffffffffffffffffffffffffffffff1673ffffffffffffffffffffffffffffffffffffffff1681526020019081526020016000206040518060600160405290816000820160009054906101000a900467ffffffffffffffff1667ffffffffffffffff1667ffffffffffffffff1681526020016000820160089054906101000a900467ffffffffffffffff1667ffffffffffffffff1667ffffffffffffffff1681526020016000820160109054906101000a90046fffffffffffffffffffffffffffffffff166fffffffffffffffffffffffffffffffff166fffffffffffffffffffffffffffffffff168152505090506000600860008673ffffffffffffffffffffffffffffffffffffffff1673ffffffffffffffffffffffffffffffffffffffff16815260200190815260200160002060009054906101000a900473ffffffffffffffffffffffffffffffffffffffff16905060008173ffffffffffffffffffffffffffffffffffffffff166318fccc768460400151336040518363ffffffff1660e01b8152600401612421929190617fed565b602060405180830381600087803b15801561243b57600080fd5b505af115801561244f573d6000803e3d6000fd5b505050506040513d601f19601f820116820180604052508101906124739190616bd8565b9050600081148015612483575084155b1561249057505050612bde565b6000600760008873ffffffffffffffffffffffffffffffffffffffff1673ffffffffffffffffffffffffffffffffffffffff16815260200190815260200160002060000160009054906101000a90046fffffffffffffffffffffffffffffffff166fffffffffffffffffffffffffffffffff16905060008213156125fd5760008290506125268183615a8990919063ffffffff16565b915061253182615749565b600760008a73ffffffffffffffffffffffffffffffffffffffff1673ffffffffffffffffffffffffffffffffffffffff16815260200190815260200160002060000160006101000a8154816fffffffffffffffffffffffffffffffff02191690836fffffffffffffffffffffffffffffffff1602179055508773ffffffffffffffffffffffffffffffffffffffff167f911c9f20a03edabcbcbd18dca1174cce47a91b234ced7a5a3c60ba0d5b56c5d2826040516125ef919061803f565b60405180910390a250612755565b60008212156127545760008260000390506126218183615a3990919063ffffffff16565b915061262c82615749565b600760008a73ffffffffffffffffffffffffffffffffffffffff1673ffffffffffffffffffffffffffffffffffffffff16815260200190815260200160002060000160006101000a8154816fffffffffffffffffffffffffffffffff02191690836fffffffffffffffffffffffffffffffff1602179055506126d56126b082615749565b86604001516fffffffffffffffffffffffffffffffff16615ca890919063ffffffff16565b85604001906fffffffffffffffffffffffffffffffff1690816fffffffffffffffffffffffffffffffff16815250508773ffffffffffffffffffffffffffffffffffffffff167f8f1f26eb9b6aa8689dbdd519ead1999d9c8819d4738e403b2003b18197d9cf978260405161274a919061803f565b60405180910390a2505b5b8515612af95760006064612780866020015167ffffffffffffffff1684615d1c90919063ffffffff16565b8161278757fe5b0490508085604001516fffffffffffffffffffffffffffffffff1610156129385760006127d386604001516fffffffffffffffffffffffffffffffff1683615a3990919063ffffffff16565b9050600087141580156127e557508681115b156127ee578690505b61281985828b73ffffffffffffffffffffffffffffffffffffffff16615d7e9092919063ffffffff16565b61284a61282582615749565b87604001516fffffffffffffffffffffffffffffffff166157c890919063ffffffff16565b86604001906fffffffffffffffffffffffffffffffff1690816fffffffffffffffffffffffffffffffff16815250508473ffffffffffffffffffffffffffffffffffffffff16636939aaf5826040518263ffffffff1660e01b81526004016128b2919061803f565b600060405180830381600087803b1580156128cc57600080fd5b505af11580156128e0573d6000803e3d6000fd5b505050508873ffffffffffffffffffffffffffffffffffffffff167fb18e7e4f6eac147a63a3bb6beb2d9039c88698623aff3efc4febbc20b0164ee58260405161292a919061803f565b60405180910390a250612af7565b8085604001516fffffffffffffffffffffffffffffffff161115612af657600061298961296483615749565b87604001516fffffffffffffffffffffffffffffffff16615ca890919063ffffffff16565b6fffffffffffffffffffffffffffffffff169050600087141580156129ad57508681115b156129b6578690505b60008573ffffffffffffffffffffffffffffffffffffffff16632e1a7d4d836040518263ffffffff1660e01b81526004016129f1919061803f565b602060405180830381600087803b158015612a0b57600080fd5b505af1158015612a1f573d6000803e3d6000fd5b505050506040513d601f19601f82011682018060405250810190612a439190616c42565b9050612a76612a5182615749565b88604001516fffffffffffffffffffffffffffffffff16615ca890919063ffffffff16565b87604001906fffffffffffffffffffffffffffffffff1690816fffffffffffffffffffffffffffffffff16815250508973ffffffffffffffffffffffffffffffffffffffff167f39aa22060f8dd4d291720311feedf3b72fef47c06c66ccf5c22b502c62e7550a82604051612aeb919061803f565b60405180910390a250505b5b505b83600a60008973ffffffffffffffffffffffffffffffffffffffff1673ffffffffffffffffffffffffffffffffffffffff16815260200190815260200160002060008201518160000160006101000a81548167ffffffffffffffff021916908367ffffffffffffffff16021790555060208201518160000160086101000a81548167ffffffffffffffff021916908367ffffffffffffffff16021790555060408201518160000160106101000a8154816fffffffffffffffffffffffffffffffff02191690836fffffffffffffffffffffffffffffffff160217905550905050505050505b505050565b60008054906101000a900473ffffffffffffffffffffffffffffffffffffffff1673ffffffffffffffffffffffffffffffffffffffff163373ffffffffffffffffffffffffffffffffffffffff1614612c71576040517f08c379a0000000000000000000000000000000000000000000000000000000008152600401612c6890617dd2565b60405180910390fd5b612c79616138565b600a60008473ffffffffffffffffffffffffffffffffffffffff1673ffffffffffffffffffffffffffffffffffffffff1681526020019081526020016000206040518060600160405290816000820160009054906101000a900467ffffffffffffffff1667ffffffffffffffff1667ffffffffffffffff1681526020016000820160089054906101000a900467ffffffffffffffff1667ffffffffffffffff1667ffffffffffffffff1681526020016000820160109054906101000a90046fffffffffffffffffffffffffffffffff166fffffffffffffffffffffffffffffffff166fffffffffffffffffffffffffffffffff168152505090506000600960008573ffffffffffffffffffffffffffffffffffffffff1673ffffffffffffffffffffffffffffffffffffffff16815260200190815260200160002060009054906101000a900473ffffffffffffffffffffffffffffffffffffffff1690506000826000015167ffffffffffffffff161480612e2057508273ffffffffffffffffffffffffffffffffffffffff168173ffffffffffffffffffffffffffffffffffffffff1614155b15612f2d5782600960008673ffffffffffffffffffffffffffffffffffffffff1673ffffffffffffffffffffffffffffffffffffffff16815260200190815260200160002060006101000a81548173ffffffffffffffffffffffffffffffffffffffff021916908373ffffffffffffffffffffffffffffffffffffffff160217905550612eaf60004201615ed4565b826000019067ffffffffffffffff16908167ffffffffffffffff16815250508273ffffffffffffffffffffffffffffffffffffffff168473ffffffffffffffffffffffffffffffffffffffff167f6f7ccdf3f86039e5a1dcf6028bf7b4773cbf7a234716ba2e5392b12bb0f8558f60405160405180910390a3613484565b6000826000015167ffffffffffffffff1614158015612f5a5750816000015167ffffffffffffffff164210155b612f99576040517f08c379a0000000000000000000000000000000000000000000000000000000008152600401612f9090617db2565b60405180910390fd5b600073ffffffffffffffffffffffffffffffffffffffff16600860008673ffffffffffffffffffffffffffffffffffffffff1673ffffffffffffffffffffffffffffffffffffffff16815260200190815260200160002060009054906101000a900473ffffffffffffffffffffffffffffffffffffffff1673ffffffffffffffffffffffffffffffffffffffff16146132da576000600860008673ffffffffffffffffffffffffffffffffffffffff1673ffffffffffffffffffffffffffffffffffffffff16815260200190815260200160002060009054906101000a900473ffffffffffffffffffffffffffffffffffffffff1673ffffffffffffffffffffffffffffffffffffffff16637f8661a184604001516040518263ffffffff1660e01b81526004016130ca9190617fd2565b602060405180830381600087803b1580156130e457600080fd5b505af11580156130f8573d6000803e3d6000fd5b505050506040513d601f19601f8201168201806040525081019061311c9190616bd8565b905060008113156131d257600081905061317d81600760008973ffffffffffffffffffffffffffffffffffffffff1673ffffffffffffffffffffffffffffffffffffffff168152602001908152602001600020615f4b90919063ffffffff16565b508573ffffffffffffffffffffffffffffffffffffffff167f911c9f20a03edabcbcbd18dca1174cce47a91b234ced7a5a3c60ba0d5b56c5d2826040516131c4919061803f565b60405180910390a250613286565b600081121561328557600081600003905061323481600760008973ffffffffffffffffffffffffffffffffffffffff1673ffffffffffffffffffffffffffffffffffffffff168152602001908152602001600020615fed90919063ffffffff16565b508573ffffffffffffffffffffffffffffffffffffffff167f8f1f26eb9b6aa8689dbdd519ead1999d9c8819d4738e403b2003b18197d9cf978260405161327b919061803f565b60405180910390a2505b5b8473ffffffffffffffffffffffffffffffffffffffff167f39aa22060f8dd4d291720311feedf3b72fef47c06c66ccf5c22b502c62e7550a84604001516040516132d09190617fd2565b60405180910390a2505b80600860008673ffffffffffffffffffffffffffffffffffffffff1673ffffffffffffffffffffffffffffffffffffffff16815260200190815260200160002060006101000a81548173ffffffffffffffffffffffffffffffffffffffff021916908373ffffffffffffffffffffffffffffffffffffffff1602179055506000826000019067ffffffffffffffff16908167ffffffffffffffff1681525050600082604001906fffffffffffffffffffffffffffffffff1690816fffffffffffffffffffffffffffffffff16815250506000600960008673ffffffffffffffffffffffffffffffffffffffff1673ffffffffffffffffffffffffffffffffffffffff16815260200190815260200160002060006101000a81548173ffffffffffffffffffffffffffffffffffffffff021916908373ffffffffffffffffffffffffffffffffffffffff1602179055508273ffffffffffffffffffffffffffffffffffffffff168473ffffffffffffffffffffffffffffffffffffffff167f03e6352a885adc4cc54767592939c3b1bbd65685658c3beaaba66a888120e21760405160405180910390a35b81600a60008673ffffffffffffffffffffffffffffffffffffffff1673ffffffffffffffffffffffffffffffffffffffff16815260200190815260200160002060008201518160000160006101000a81548167ffffffffffffffff021916908367ffffffffffffffff16021790555060208201518160000160086101000a81548167ffffffffffffffff021916908367ffffffffffffffff16021790555060408201518160000160106101000a8154816fffffffffffffffffffffffffffffffff02191690836fffffffffffffffffffffffffffffffff16021790555090505050505050565b60008054906101000a900473ffffffffffffffffffffffffffffffffffffffff1673ffffffffffffffffffffffffffffffffffffffff163373ffffffffffffffffffffffffffffffffffffffff16146135f8576040517f08c379a00000000000000000000000000000000000000000000000000000000081526004016135ef90617dd2565b60405180910390fd5b600073ffffffffffffffffffffffffffffffffffffffff168273ffffffffffffffffffffffffffffffffffffffff161415613668576040517f08c379a000000000000000000000000000000000000000000000000000000000815260040161365f90617c72565b60405180910390fd5b80600460008473ffffffffffffffffffffffffffffffffffffffff1673ffffffffffffffffffffffffffffffffffffffff16815260200190815260200160002060006101000a81548160ff0219169083151502179055508173ffffffffffffffffffffffffffffffffffffffff167f31a1e0eac44b54ac6c2a2efa87e92c83405ffcf33fceef02a7bca695130e2600826040516137059190617ab0565b60405180910390a25050565b8773ffffffffffffffffffffffffffffffffffffffff1663d505accf888888888888886040518863ffffffff1660e01b815260040161375697969594939291906179e1565b600060405180830381600087803b15801561377057600080fd5b505af1158015613784573d6000803e3d6000fd5b505050505050505050505050565b60056020528060005260406000206000915090505481565b60008054906101000a900473ffffffffffffffffffffffffffffffffffffffff1681565b60036020528160005260406000206020528060005260406000206000915091509054906101000a900460ff1681565b600080853373ffffffffffffffffffffffffffffffffffffffff168173ffffffffffffffffffffffffffffffffffffffff161415801561386957503073ffffffffffffffffffffffffffffffffffffffff168173ffffffffffffffffffffffffffffffffffffffff1614155b15613a0d576000600260003373ffffffffffffffffffffffffffffffffffffffff1673ffffffffffffffffffffffffffffffffffffffff16815260200190815260200160002060009054906101000a900473ffffffffffffffffffffffffffffffffffffffff169050600073ffffffffffffffffffffffffffffffffffffffff168173ffffffffffffffffffffffffffffffffffffffff161415613942576040517f08c379a000000000000000000000000000000000000000000000000000000000815260040161393990617ed2565b60405180910390fd5b600360008273ffffffffffffffffffffffffffffffffffffffff1673ffffffffffffffffffffffffffffffffffffffff16815260200190815260200160002060008373ffffffffffffffffffffffffffffffffffffffff1673ffffffffffffffffffffffffffffffffffffffff16815260200190815260200160002060009054906101000a900460ff16613a0b576040517f08c379a0000000000000000000000000000000000000000000000000000000008152600401613a0290617df2565b60405180910390fd5b505b600073ffffffffffffffffffffffffffffffffffffffff168673ffffffffffffffffffffffffffffffffffffffff161415613a7d576040517f08c379a0000000000000000000000000000000000000000000000000000000008152600401613a7490617d92565b60405180910390fd5b60008073ffffffffffffffffffffffffffffffffffffffff168973ffffffffffffffffffffffffffffffffffffffff1614613ab85788613ada565b7f00000000000000000000000000000000000000000000000000000000000000005b9050613ae46160fa565b600760008373ffffffffffffffffffffffffffffffffffffffff1673ffffffffffffffffffffffffffffffffffffffff1681526020019081526020016000206040518060400160405290816000820160009054906101000a90046fffffffffffffffffffffffffffffffff166fffffffffffffffffffffffffffffffff166fffffffffffffffffffffffffffffffff1681526020016000820160109054906101000a90046fffffffffffffffffffffffffffffffff166fffffffffffffffffffffffffffffffff166fffffffffffffffffffffffffffffffff168152505090506000861415613bea57613be3876001836156609092919063ffffffff16565b9550613c03565b613c008660008361583c9092919063ffffffff16565b96505b613c9286600660008573ffffffffffffffffffffffffffffffffffffffff1673ffffffffffffffffffffffffffffffffffffffff16815260200190815260200160002060008c73ffffffffffffffffffffffffffffffffffffffff1673ffffffffffffffffffffffffffffffffffffffff16815260200190815260200160002054615a3990919063ffffffff16565b600660008473ffffffffffffffffffffffffffffffffffffffff1673ffffffffffffffffffffffffffffffffffffffff16815260200190815260200160002060008b73ffffffffffffffffffffffffffffffffffffffff1673ffffffffffffffffffffffffffffffffffffffff16815260200190815260200160002081905550613d43613d1e88615749565b82600001516fffffffffffffffffffffffffffffffff16615ca890919063ffffffff16565b81600001906fffffffffffffffffffffffffffffffff1690816fffffffffffffffffffffffffffffffff1681525050613da3613d7e87615749565b82602001516fffffffffffffffffffffffffffffffff16615ca890919063ffffffff16565b81602001906fffffffffffffffffffffffffffffffff1690816fffffffffffffffffffffffffffffffff16815250506103e881602001516fffffffffffffffffffffffffffffffff16101580613e0f5750600081602001516fffffffffffffffffffffffffffffffff16145b613e4e576040517f08c379a0000000000000000000000000000000000000000000000000000000008152600401613e4590617cd2565b60405180910390fd5b80600760008473ffffffffffffffffffffffffffffffffffffffff1673ffffffffffffffffffffffffffffffffffffffff16815260200190815260200160002060008201518160000160006101000a8154816fffffffffffffffffffffffffffffffff02191690836fffffffffffffffffffffffffffffffff16021790555060208201518160000160106101000a8154816fffffffffffffffffffffffffffffffff02191690836fffffffffffffffffffffffffffffffff160217905550905050600073ffffffffffffffffffffffffffffffffffffffff168a73ffffffffffffffffffffffffffffffffffffffff161415614081577f000000000000000000000000000000000000000000000000000000000000000073ffffffffffffffffffffffffffffffffffffffff16632e1a7d4d886040518263ffffffff1660e01b8152600401613f9d919061803f565b600060405180830381600087803b158015613fb757600080fd5b505af1158015613fcb573d6000803e3d6000fd5b5050505060008873ffffffffffffffffffffffffffffffffffffffff1688604051613ff59061788e565b60006040518083038185875af1925050503d8060008114614032576040519150601f19603f3d011682016040523d82523d6000602084013e614037565b606091505b505090508061407b576040517f08c379a000000000000000000000000000000000000000000000000000000000815260040161407290617f72565b60405180910390fd5b506140ad565b6140ac88888473ffffffffffffffffffffffffffffffffffffffff16615d7e9092919063ffffffff16565b5b8773ffffffffffffffffffffffffffffffffffffffff168973ffffffffffffffffffffffffffffffffffffffff168373ffffffffffffffffffffffffffffffffffffffff167fad9ab9ee6953d4d177f4a03b3a3ac3178ffcb9816319f348060194aa76b144868a8a60405161412392919061805a565b60405180910390a48694508593505050509550959350505050565b33600260003373ffffffffffffffffffffffffffffffffffffffff1673ffffffffffffffffffffffffffffffffffffffff16815260200190815260200160002060006101000a81548173ffffffffffffffffffffffffffffffffffffffff021916908373ffffffffffffffffffffffffffffffffffffffff1602179055503373ffffffffffffffffffffffffffffffffffffffff167fdfb44ffabf0d3a8f650d3ce43eff98f6d050e7ea1a396d5794f014e7dadabacb60405160405180910390a2565b60026020528060005260406000206000915054906101000a900473ffffffffffffffffffffffffffffffffffffffff1681565b600073ffffffffffffffffffffffffffffffffffffffff168573ffffffffffffffffffffffffffffffffffffffff1614156142a4576040517f08c379a000000000000000000000000000000000000000000000000000000000815260040161429b90617eb2565b60405180910390fd5b6000801b821480156142b857506000801b81145b80156142c7575060008360ff16145b15614499573373ffffffffffffffffffffffffffffffffffffffff168673ffffffffffffffffffffffffffffffffffffffff161461433a576040517f08c379a000000000000000000000000000000000000000000000000000000000815260040161433190617c92565b60405180910390fd5b600073ffffffffffffffffffffffffffffffffffffffff16600260008873ffffffffffffffffffffffffffffffffffffffff1673ffffffffffffffffffffffffffffffffffffffff16815260200190815260200160002060009054906101000a900473ffffffffffffffffffffffffffffffffffffffff1673ffffffffffffffffffffffffffffffffffffffff1614614408576040517f08c379a00000000000000000000000000000000000000000000000000000000081526004016143ff90617e52565b60405180910390fd5b600460008673ffffffffffffffffffffffffffffffffffffffff1673ffffffffffffffffffffffffffffffffffffffff16815260200190815260200160002060009054906101000a900460ff16614494576040517f08c379a000000000000000000000000000000000000000000000000000000000815260040161448b90617f52565b60405180910390fd5b614721565b600073ffffffffffffffffffffffffffffffffffffffff168673ffffffffffffffffffffffffffffffffffffffff161415614509576040517f08c379a000000000000000000000000000000000000000000000000000000000815260040161450090617f12565b60405180910390fd5b60006040518060400160405280600281526020017f1901000000000000000000000000000000000000000000000000000000000000815250614549611d60565b7f1962bc9f5484cb7a998701b81090e966ee1fce5771af884cceee7c081b14ade287614595577fb426802f1f7dc850a7b6b38805edea2442f3992878a9ab985abfe8091d95d0b16145b7565b7f422ac5323fe049241dee67716229a1cc1bc7b313b23dfe3ef6d42ab177a3b2845b8a8a8a600560008f73ffffffffffffffffffffffffffffffffffffffff1673ffffffffffffffffffffffffffffffffffffffff16815260200190815260200160002060008154809291906001019190505560405160200161461d96959493929190617ae6565b6040516020818303038152906040528051906020012060405160200161464593929190617855565b6040516020818303038152906040528051906020012090506000600182868686604051600081526020016040526040516146829493929190617b8c565b6020604051602081039080840390855afa1580156146a4573d6000803e3d6000fd5b5050506020604051035190508773ffffffffffffffffffffffffffffffffffffffff168173ffffffffffffffffffffffffffffffffffffffff161461471e576040517f08c379a000000000000000000000000000000000000000000000000000000000815260040161471590617e72565b60405180910390fd5b50505b83600360008773ffffffffffffffffffffffffffffffffffffffff1673ffffffffffffffffffffffffffffffffffffffff16815260200190815260200160002060008873ffffffffffffffffffffffffffffffffffffffff1673ffffffffffffffffffffffffffffffffffffffff16815260200190815260200160002060006101000a81548160ff0219169083151502179055508573ffffffffffffffffffffffffffffffffffffffff168573ffffffffffffffffffffffffffffffffffffffff167f5f6ebb64ba012a851c6f014e6cad458ddf213d1512049b31cd06365c2b059257866040516148129190617ab0565b60405180910390a3505050505050565b6060808484905067ffffffffffffffff8111801561483f57600080fd5b5060405190808252806020026020018201604052801561486e5781602001602082028036833780820191505090505b5091508484905067ffffffffffffffff8111801561488b57600080fd5b506040519080825280602002602001820160405280156148bf57816020015b60608152602001906001900390816148aa5790505b50905060005b858590508110156149f757600060603073ffffffffffffffffffffffffffffffffffffffff168888858181106148f757fe5b905060200281019061490991906180d5565b604051614917929190617825565b600060405180830381855af49150503d8060008114614952576040519150601f19603f3d011682016040523d82523d6000602084013e614957565b606091505b50915091508180614966575085155b61496f8261608f565b906149b0576040517f08c379a00000000000000000000000000000000000000000000000000000000081526004016149a79190617c10565b60405180910390fd5b50818584815181106149be57fe5b602002602001019015159081151581525050808484815181106149dd57fe5b6020026020010181905250505080806001019150506148c5565b50935093915050565b6000614af48383600760008873ffffffffffffffffffffffffffffffffffffffff1673ffffffffffffffffffffffffffffffffffffffff1681526020019081526020016000206040518060400160405290816000820160009054906101000a90046fffffffffffffffffffffffffffffffff166fffffffffffffffffffffffffffffffff166fffffffffffffffffffffffffffffffff1681526020016000820160109054906101000a90046fffffffffffffffffffffffffffffffff166fffffffffffffffffffffffffffffffff166fffffffffffffffffffffffffffffffff16815250506156609092919063ffffffff16565b90509392505050565b600a6020528060005260406000206000915090508060000160009054906101000a900467ffffffffffffffff16908060000160089054906101000a900467ffffffffffffffff16908060000160109054906101000a90046fffffffffffffffffffffffffffffffff16905083565b600160009054906101000a900473ffffffffffffffffffffffffffffffffffffffff1681565b6000620186a0614bab603286615d1c90919063ffffffff16565b81614bb257fe5b049050614be086858773ffffffffffffffffffffffffffffffffffffffff16615d7e9092919063ffffffff16565b8673ffffffffffffffffffffffffffffffffffffffff166323e30c8b3387878588886040518763ffffffff1660e01b8152600401614c239695949392919061794e565b600060405180830381600087803b158015614c3d57600080fd5b505af1158015614c51573d6000803e3d6000fd5b50505050614cc0614c6182615749565b6fffffffffffffffffffffffffffffffff16600760008873ffffffffffffffffffffffffffffffffffffffff1673ffffffffffffffffffffffffffffffffffffffff168152602001908152602001600020615f4b90919063ffffffff16565b614cc986615925565b1015614d0a576040517f08c379a0000000000000000000000000000000000000000000000000000000008152600401614d0190617f32565b60405180910390fd5b8573ffffffffffffffffffffffffffffffffffffffff168573ffffffffffffffffffffffffffffffffffffffff168873ffffffffffffffffffffffffffffffffffffffff167f3be9b85936d5d30a1655ea116a17ee3d827b2cd428cc026ce5bf2ac46a2232048785604051614d8092919061805a565b60405180910390a450505050505050565b823373ffffffffffffffffffffffffffffffffffffffff168173ffffffffffffffffffffffffffffffffffffffff1614158015614dfa57503073ffffffffffffffffffffffffffffffffffffffff168173ffffffffffffffffffffffffffffffffffffffff1614155b15614f9e576000600260003373ffffffffffffffffffffffffffffffffffffffff1673ffffffffffffffffffffffffffffffffffffffff16815260200190815260200160002060009054906101000a900473ffffffffffffffffffffffffffffffffffffffff169050600073ffffffffffffffffffffffffffffffffffffffff168173ffffffffffffffffffffffffffffffffffffffff161415614ed3576040517f08c379a0000000000000000000000000000000000000000000000000000000008152600401614eca90617ed2565b60405180910390fd5b600360008273ffffffffffffffffffffffffffffffffffffffff1673ffffffffffffffffffffffffffffffffffffffff16815260200190815260200160002060008373ffffffffffffffffffffffffffffffffffffffff1673ffffffffffffffffffffffffffffffffffffffff16815260200190815260200160002060009054906101000a900460ff16614f9c576040517f08c379a0000000000000000000000000000000000000000000000000000000008152600401614f9390617df2565b60405180910390fd5b505b600073ffffffffffffffffffffffffffffffffffffffff168373ffffffffffffffffffffffffffffffffffffffff16141561500e576040517f08c379a000000000000000000000000000000000000000000000000000000000815260040161500590617d92565b60405180910390fd5b61509d82600660008873ffffffffffffffffffffffffffffffffffffffff1673ffffffffffffffffffffffffffffffffffffffff16815260200190815260200160002060008773ffffffffffffffffffffffffffffffffffffffff1673ffffffffffffffffffffffffffffffffffffffff16815260200190815260200160002054615a3990919063ffffffff16565b600660008773ffffffffffffffffffffffffffffffffffffffff1673ffffffffffffffffffffffffffffffffffffffff16815260200190815260200160002060008673ffffffffffffffffffffffffffffffffffffffff1673ffffffffffffffffffffffffffffffffffffffff168152602001908152602001600020819055506151ac82600660008873ffffffffffffffffffffffffffffffffffffffff1673ffffffffffffffffffffffffffffffffffffffff16815260200190815260200160002060008673ffffffffffffffffffffffffffffffffffffffff1673ffffffffffffffffffffffffffffffffffffffff16815260200190815260200160002054615a8990919063ffffffff16565b600660008773ffffffffffffffffffffffffffffffffffffffff1673ffffffffffffffffffffffffffffffffffffffff16815260200190815260200160002060008573ffffffffffffffffffffffffffffffffffffffff1673ffffffffffffffffffffffffffffffffffffffff168152602001908152602001600020819055508273ffffffffffffffffffffffffffffffffffffffff168473ffffffffffffffffffffffffffffffffffffffff168673ffffffffffffffffffffffffffffffffffffffff167f6eabe333476233fd382224f233210cb808a7bc4c4de64f9d76628bf63c677b1a856040516152a0919061803f565b60405180910390a45050505050565b60608686905067ffffffffffffffff811180156152cb57600080fd5b506040519080825280602002602001820160405280156152fa5781602001602082028036833780820191505090505b509050600087879050905060005b818110156153ea57600087878381811061531e57fe5b905060200201359050620186a061533f603283615d1c90919063ffffffff16565b8161534657fe5b0484838151811061535357fe5b6020026020010181815250506153dc8c8c8481811061536e57fe5b90506020020160208101906153839190616456565b89898581811061538f57fe5b905060200201358c8c868181106153a257fe5b90506020020160208101906153b791906167a4565b73ffffffffffffffffffffffffffffffffffffffff16615d7e9092919063ffffffff16565b508080600101915050615308565b508a73ffffffffffffffffffffffffffffffffffffffff1663d9d17623338a8a8a8a888b8b6040518963ffffffff1660e01b81526004016154329897969594939291906178d9565b600060405180830381600087803b15801561544c57600080fd5b505af1158015615460573d6000803e3d6000fd5b5050505060005b8181101561562d57600089898381811061547d57fe5b905060200201602081019061549291906167a4565b90506155126154b38584815181106154a657fe5b6020026020010151615749565b6fffffffffffffffffffffffffffffffff16600760008473ffffffffffffffffffffffffffffffffffffffff1673ffffffffffffffffffffffffffffffffffffffff168152602001908152602001600020615f4b90919063ffffffff16565b61551b82615925565b101561555c576040517f08c379a000000000000000000000000000000000000000000000000000000000815260040161555390617f32565b60405180910390fd5b8b8b8381811061556857fe5b905060200201602081019061557d9190616456565b73ffffffffffffffffffffffffffffffffffffffff168173ffffffffffffffffffffffffffffffffffffffff168e73ffffffffffffffffffffffffffffffffffffffff167f3be9b85936d5d30a1655ea116a17ee3d827b2cd428cc026ce5bf2ac46a2232048b8b878181106155ee57fe5b9050602002013588878151811061560157fe5b602002602001015160405161561792919061805a565b60405180910390a4508080600101915050615467565b505050505050505050505050565b6006602052816000526040600020602052806000526040600020600091509150505481565b60008084600001516fffffffffffffffffffffffffffffffff16141561568857829050615742565b83600001516fffffffffffffffffffffffffffffffff166156c885602001516fffffffffffffffffffffffffffffffff1685615d1c90919063ffffffff16565b816156cf57fe5b04905081801561572557508284602001516fffffffffffffffffffffffffffffffff1661571b86600001516fffffffffffffffffffffffffffffffff1684615d1c90919063ffffffff16565b8161572257fe5b04105b156157415761573e600182615a8990919063ffffffff16565b90505b5b9392505050565b60007fffffffffffffffffffffffffffffffffffffffffffffffffffffffffffffffff6fffffffffffffffffffffffffffffffff168211156157c0576040517f08c379a00000000000000000000000000000000000000000000000000000000081526004016157b790617d32565b60405180910390fd5b819050919050565b6000816fffffffffffffffffffffffffffffffff168284019150816fffffffffffffffffffffffffffffffff161015615836576040517f08c379a000000000000000000000000000000000000000000000000000000000815260040161582d90617d52565b60405180910390fd5b92915050565b60008084602001516fffffffffffffffffffffffffffffffff1614156158645782905061591e565b83602001516fffffffffffffffffffffffffffffffff166158a485600001516fffffffffffffffffffffffffffffffff1685615d1c90919063ffffffff16565b816158ab57fe5b04905081801561590157508284600001516fffffffffffffffffffffffffffffffff166158f786602001516fffffffffffffffffffffffffffffffff1684615d1c90919063ffffffff16565b816158fe57fe5b04105b1561591d5761591a600182615a8990919063ffffffff16565b90505b5b9392505050565b6000615a32600a60008473ffffffffffffffffffffffffffffffffffffffff1673ffffffffffffffffffffffffffffffffffffffff16815260200190815260200160002060000160109054906101000a90046fffffffffffffffffffffffffffffffff166fffffffffffffffffffffffffffffffff168373ffffffffffffffffffffffffffffffffffffffff166370a08231306040518263ffffffff1660e01b81526004016159d491906178be565b60206040518083038186803b1580156159ec57600080fd5b505afa158015615a00573d6000803e3d6000fd5b505050506040513d601f19601f82011682018060405250810190615a249190616c42565b615a8990919063ffffffff16565b9050919050565b6000828284039150811115615a83576040517f08c379a0000000000000000000000000000000000000000000000000000000008152600401615a7a90617c32565b60405180910390fd5b92915050565b6000818284019150811015615ad3576040517f08c379a0000000000000000000000000000000000000000000000000000000008152600401615aca90617d52565b60405180910390fd5b92915050565b600060608573ffffffffffffffffffffffffffffffffffffffff166323b872dd60e01b868686604051602401615b11939291906179aa565b604051602081830303815290604052907bffffffffffffffffffffffffffffffffffffffffffffffffffffffff19166020820180517bffffffffffffffffffffffffffffffffffffffffffffffffffffffff8381831617835250505050604051615b7b919061783e565b6000604051808303816000865af19150503d8060008114615bb8576040519150601f19603f3d011682016040523d82523d6000602084013e615bbd565b606091505b5091509150818015615beb5750600081511480615bea575080806020019051810190615be99190616693565b5b5b615c2a576040517f08c379a0000000000000000000000000000000000000000000000000000000008152600401615c2190617ef2565b60405180910390fd5b505050505050565b60007f8cad95687ba82c2ce50e74f7b754645e5117c3a5bec8151c0726d5857980a8667fd7df266aff736d415a9dc14b4158201d612e70d75b9c7f4e375ccfd20aa5166f8330604051602001615c8b9493929190617b47565b604051602081830303815290604052805190602001209050919050565b6000826fffffffffffffffffffffffffffffffff168284039150816fffffffffffffffffffffffffffffffff161115615d16576040517f08c379a0000000000000000000000000000000000000000000000000000000008152600401615d0d90617c32565b60405180910390fd5b92915050565b600080821480615d395750828283850292508281615d3657fe5b04145b615d78576040517f08c379a0000000000000000000000000000000000000000000000000000000008152600401615d6f90617f92565b60405180910390fd5b92915050565b600060608473ffffffffffffffffffffffffffffffffffffffff1663a9059cbb60e01b8585604051602401615db4929190617a50565b604051602081830303815290604052907bffffffffffffffffffffffffffffffffffffffffffffffffffffffff19166020820180517bffffffffffffffffffffffffffffffffffffffffffffffffffffffff8381831617835250505050604051615e1e919061783e565b6000604051808303816000865af19150503d8060008114615e5b576040519150601f19603f3d011682016040523d82523d6000602084013e615e60565b606091505b5091509150818015615e8e5750600081511480615e8d575080806020019051810190615e8c9190616693565b5b5b615ecd576040517f08c379a0000000000000000000000000000000000000000000000000000000008152600401615ec490617cb2565b60405180910390fd5b5050505050565b60007fffffffffffffffffffffffffffffffffffffffffffffffffffffffffffffffff67ffffffffffffffff16821115615f43576040517f08c379a0000000000000000000000000000000000000000000000000000000008152600401615f3a90617e32565b60405180910390fd5b819050919050565b6000615f9a615f5983615749565b8460000160009054906101000a90046fffffffffffffffffffffffffffffffff166fffffffffffffffffffffffffffffffff166157c890919063ffffffff16565b8360000160006101000a8154816fffffffffffffffffffffffffffffffff02191690836fffffffffffffffffffffffffffffffff16021790556fffffffffffffffffffffffffffffffff16905092915050565b600061603c615ffb83615749565b8460000160009054906101000a90046fffffffffffffffffffffffffffffffff166fffffffffffffffffffffffffffffffff16615ca890919063ffffffff16565b8360000160006101000a8154816fffffffffffffffffffffffffffffffff02191690836fffffffffffffffffffffffffffffffff16021790556fffffffffffffffffffffffffffffffff16905092915050565b60606044825110156160d8576040518060400160405280601d81526020017f5472616e73616374696f6e2072657665727465642073696c656e746c7900000081525090506160f5565b600482019150818060200190518101906160f29190616c01565b90505b919050565b604051806040016040528060006fffffffffffffffffffffffffffffffff16815260200160006fffffffffffffffffffffffffffffffff1681525090565b6040518060600160405280600067ffffffffffffffff168152602001600067ffffffffffffffff16815260200160006fffffffffffffffffffffffffffffffff1681525090565b60008135905061618e816184ae565b92915050565b60008083601f8401126161a657600080fd5b8235905067ffffffffffffffff8111156161bf57600080fd5b6020830191508360208202830111156161d757600080fd5b9250929050565b60008083601f8401126161f057600080fd5b8235905067ffffffffffffffff81111561620957600080fd5b60208301915083602082028301111561622157600080fd5b9250929050565b60008083601f84011261623a57600080fd5b8235905067ffffffffffffffff81111561625357600080fd5b60208301915083602082028301111561626b57600080fd5b9250929050565b60008083601f84011261628457600080fd5b8235905067ffffffffffffffff81111561629d57600080fd5b6020830191508360208202830111156162b557600080fd5b9250929050565b6000813590506162cb816184c5565b92915050565b6000815190506162e0816184c5565b92915050565b6000813590506162f5816184dc565b92915050565b60008083601f84011261630d57600080fd5b8235905067ffffffffffffffff81111561632657600080fd5b60208301915083600182028301111561633e57600080fd5b9250929050565b600081359050616354816184f3565b92915050565b6000813590506163698161850a565b92915050565b60008135905061637e81618521565b92915050565b60008135905061639381618538565b92915050565b6000815190506163a88161854f565b92915050565b600082601f8301126163bf57600080fd5b81516163d26163cd82618159565b61812c565b915080825260208301602083018583830111156163ee57600080fd5b6163f9838284618460565b50505092915050565b60008135905061641181618566565b92915050565b60008151905061642681618566565b92915050565b60008135905061643b8161857d565b92915050565b60008135905061645081618594565b92915050565b60006020828403121561646857600080fd5b60006164768482850161617f565b91505092915050565b6000806040838503121561649257600080fd5b60006164a08582860161617f565b92505060206164b18582860161617f565b9150509250929050565b60008060008060008060c087890312156164d457600080fd5b60006164e289828a0161617f565b96505060206164f389828a0161617f565b955050604061650489828a016162bc565b945050606061651589828a01616441565b935050608061652689828a016162e6565b92505060a061653789828a016162e6565b9150509295509295509295565b6000806040838503121561655757600080fd5b60006165658582860161617f565b9250506020616576858286016162bc565b9150509250929050565b60008060006060848603121561659557600080fd5b60006165a38682870161617f565b93505060206165b4868287016162bc565b92505060406165c5868287016162bc565b9150509250925092565b600080600080606085870312156165e557600080fd5b60006165f38782880161617f565b945050602085013567ffffffffffffffff81111561661057600080fd5b61661c878288016162fb565b9350935050604061662f878288016162bc565b91505092959194509250565b60008060006040848603121561665057600080fd5b600084013567ffffffffffffffff81111561666a57600080fd5b616676868287016161de565b93509350506020616689868287016162bc565b9150509250925092565b6000602082840312156166a557600080fd5b60006166b3848285016162d1565b91505092915050565b600080600080600080600080600060a08a8c0312156166da57600080fd5b60006166e88c828d01616345565b99505060208a013567ffffffffffffffff81111561670557600080fd5b6167118c828d01616194565b985098505060408a013567ffffffffffffffff81111561673057600080fd5b61673c8c828d01616228565b965096505060608a013567ffffffffffffffff81111561675b57600080fd5b6167678c828d01616272565b945094505060808a013567ffffffffffffffff81111561678657600080fd5b6167928c828d016162fb565b92509250509295985092959850929598565b6000602082840312156167b657600080fd5b60006167c48482850161635a565b91505092915050565b600080604083850312156167e057600080fd5b60006167ee8582860161635a565b92505060206167ff8582860161617f565b9150509250929050565b6000806000806080858703121561681f57600080fd5b600061682d8782880161635a565b945050602061683e8782880161617f565b935050604061684f8782880161617f565b925050606061686087828801616402565b91505092959194509250565b600080600080600060a0868803121561688457600080fd5b60006168928882890161635a565b95505060206168a38882890161617f565b94505060406168b48882890161617f565b93505060606168c588828901616402565b92505060806168d688828901616402565b9150509295509295909350565b600080600080600080600080610100898b03121561690057600080fd5b600061690e8b828c0161635a565b985050602061691f8b828c0161617f565b97505060406169308b828c0161617f565b96505060606169418b828c01616402565b95505060806169528b828c01616402565b94505060a06169638b828c01616441565b93505060c06169748b828c016162e6565b92505060e06169858b828c016162e6565b9150509295985092959890939650565b600080600080600080608087890312156169ae57600080fd5b60006169bc89828a0161635a565b96505060206169cd89828a0161617f565b955050604087013567ffffffffffffffff8111156169ea57600080fd5b6169f689828a01616194565b9450945050606087013567ffffffffffffffff811115616a1557600080fd5b616a2189828a01616272565b92509250509295509295509295565b600080600060608486031215616a4557600080fd5b6000616a538682870161635a565b9350506020616a64868287016162bc565b9250506040616a7586828701616402565b9150509250925092565b60008060408385031215616a9257600080fd5b6000616aa08582860161635a565b9250506020616ab185828601616384565b9150509250929050565b600080600060608486031215616ad057600080fd5b6000616ade8682870161635a565b9350506020616aef86828701616402565b9250506040616b00868287016162bc565b9150509250925092565b60008060408385031215616b1d57600080fd5b6000616b2b8582860161635a565b9250506020616b3c8582860161642c565b9150509250929050565b60008060008060008060a08789031215616b5f57600080fd5b6000616b6d89828a0161636f565b9650506020616b7e89828a0161617f565b9550506040616b8f89828a0161635a565b9450506060616ba089828a01616402565b935050608087013567ffffffffffffffff811115616bbd57600080fd5b616bc989828a016162fb565b92509250509295509295509295565b600060208284031215616bea57600080fd5b6000616bf884828501616399565b91505092915050565b600060208284031215616c1357600080fd5b600082015167ffffffffffffffff811115616c2d57600080fd5b616c39848285016163ae565b91505092915050565b600060208284031215616c5457600080fd5b6000616c6284828501616417565b91505092915050565b6000616c778383616ecb565b60208301905092915050565b6000616c8f8383616f61565b905092915050565b6000616ca38383616fcb565b60208301905092915050565b6000616cbb83836177da565b60208301905092915050565b616cd0816183af565b82525050565b616cdf816182ce565b82525050565b6000616cf0826181bf565b616cfa818561823b565b9350616d0583618185565b8060005b83811015616d36578151616d1d8882616c6b565b9750616d28836181f6565b925050600181019050616d09565b5085935050505092915050565b6000616d4e826181ca565b616d58818561824c565b935083602082028501616d6a85618195565b8060005b85811015616da65784840389528151616d878582616c83565b9450616d9283618203565b925060208a01995050600181019050616d6e565b50829750879550505050505092915050565b6000616dc4838561822a565b9350616dcf826181a5565b8060005b85811015616e0857616de582846182b7565b616def8882616c97565b9750616dfa83618210565b925050600181019050616dd3565b5085925050509392505050565b6000616e21838561825d565b93507f07ffffffffffffffffffffffffffffffffffffffffffffffffffffffffffffff831115616e5057600080fd5b602083029250616e61838584618451565b82840190509392505050565b6000616e78826181d5565b616e82818561825d565b9350616e8d836181af565b8060005b83811015616ebe578151616ea58882616caf565b9750616eb08361821d565b925050600181019050616e91565b5085935050505092915050565b616ed4816182e0565b82525050565b616ee3816182e0565b82525050565b616ef2816182ec565b82525050565b616f09616f04826182ec565b618493565b82525050565b6000616f1b838561827f565b9350616f28838584618451565b616f318361849d565b840190509392505050565b6000616f488385618290565b9350616f55838584618451565b82840190509392505050565b6000616f6c826181e0565b616f76818561826e565b9350616f86818560208601618460565b616f8f8161849d565b840191505092915050565b6000616fa5826181e0565b616faf8185618290565b9350616fbf818560208601618460565b80840191505092915050565b616fd4816183c1565b82525050565b616fe3816183c1565b82525050565b616ff2816183e5565b82525050565b6000617003826181eb565b61700d818561829b565b935061701d818560208601618460565b6170268161849d565b840191505092915050565b600061703c826181eb565b61704681856182ac565b9350617056818560208601618460565b80840191505092915050565b600061706f60158361829b565b91507f426f72696e674d6174683a20556e646572666c6f7700000000000000000000006000830152602082019050919050565b60006170af60178361829b565b91507f42656e746f426f783a20536b696d20746f6f206d7563680000000000000000006000830152602082019050919050565b60006170ef601c8361829b565b91507f4d6173746572434d67723a2043616e6e6f7420617070726f76652030000000006000830152602082019050919050565b600061712f601b8361829b565b91507f4d6173746572434d67723a2075736572206e6f742073656e64657200000000006000830152602082019050919050565b600061716f601c8361829b565b91507f426f72696e6745524332303a205472616e73666572206661696c6564000000006000830152602082019050919050565b60006171af60168361829b565b91507f42656e746f426f783a2063616e6e6f7420656d707479000000000000000000006000830152602082019050919050565b60006171ef60158361829b565b91507f4f776e61626c653a207a65726f206164647265737300000000000000000000006000830152602082019050919050565b600061722f60138361829b565b91507f42656e746f426f783a204e6f20746f6b656e73000000000000000000000000006000830152602082019050919050565b600061726f601c8361829b565b91507f426f72696e674d6174683a2075696e74313238204f766572666c6f77000000006000830152602082019050919050565b60006172af60188361829b565b91507f426f72696e674d6174683a20416464204f766572666c6f7700000000000000006000830152602082019050919050565b60006172ef60178361829b565b91507f42656e746f426f783a20746f5b305d206e6f74207365740000000000000000006000830152602082019050919050565b600061732f60148361829b565b91507f42656e746f426f783a20746f206e6f74207365740000000000000000000000006000830152602082019050919050565b600061736f601a8361829b565b91507f53747261746567794d616e616765723a20546f6f206561726c790000000000006000830152602082019050919050565b60006173af60208361829b565b91507f4f776e61626c653a2063616c6c6572206973206e6f7420746865206f776e65726000830152602082019050919050565b60006173ef601f8361829b565b91507f42656e746f426f783a205472616e73666572206e6f7420617070726f766564006000830152602082019050919050565b600061742f60208361829b565b91507f4f776e61626c653a2063616c6c657220213d2070656e64696e67206f776e65726000830152602082019050919050565b600061746f601b8361829b565b91507f426f72696e674d6174683a2075696e743634204f766572666c6f7700000000006000830152602082019050919050565b60006174af60198361829b565b91507f4d6173746572434d67723a207573657220697320636c6f6e65000000000000006000830152602082019050919050565b60006174ef601d8361829b565b91507f4d6173746572434d67723a20496e76616c6964205369676e61747572650000006000830152602082019050919050565b600061752f600083618290565b9150600082019050919050565b600061754960208361829b565b91507f426f72696e67466163746f72793a204e6f206d6173746572436f6e74726163746000830152602082019050919050565b6000617589601b8361829b565b91507f4d6173746572434d67723a206d617374657243206e6f742073657400000000006000830152602082019050919050565b60006175c9601b8361829b565b91507f42656e746f426f783a206e6f206d6173746572436f6e747261637400000000006000830152602082019050919050565b600061760960208361829b565b91507f426f72696e6745524332303a205472616e7366657246726f6d206661696c65646000830152602082019050919050565b6000617649601c8361829b565b91507f4d6173746572434d67723a20557365722063616e6e6f742062652030000000006000830152602082019050919050565b600061768960168361829b565b91507f42656e746f426f783a2057726f6e6720616d6f756e74000000000000000000006000830152602082019050919050565b60006176c9601b8361829b565b91507f4d6173746572434d67723a206e6f742077686974656c697374656400000000006000830152602082019050919050565b6000617709601d8361829b565b91507f42656e746f426f783a20455448207472616e73666572206661696c65640000006000830152602082019050919050565b600061774960188361829b565b91507f426f72696e674d6174683a204d756c204f766572666c6f7700000000000000006000830152602082019050919050565b600061778960208361829b565b91507f53747261746567794d616e616765723a2054617267657420746f6f20686967686000830152602082019050919050565b6177c581618348565b82525050565b6177d481618409565b82525050565b6177e381618384565b82525050565b6177f281618384565b82525050565b6178018161843f565b82525050565b6178108161838e565b82525050565b61781f816183a2565b82525050565b6000617832828486616f3c565b91508190509392505050565b600061784a8284616f9a565b915081905092915050565b60006178618286617031565b915061786d8285616ef8565b60208201915061787d8284616ef8565b602082019150819050949350505050565b600061789982617522565b9150819050919050565b60006020820190506178b86000830184616cd6565b92915050565b60006020820190506178d36000830184616cc7565b92915050565b600060a0820190506178ee600083018b616cc7565b818103602083015261790181898b616db8565b90508181036040830152617916818789616e15565b9050818103606083015261792a8186616e6d565b9050818103608083015261793f818486616f0f565b90509998505050505050505050565b600060a0820190506179636000830189616cc7565b6179706020830188616fda565b61797d60408301876177e9565b61798a60608301866177e9565b818103608083015261799d818486616f0f565b9050979650505050505050565b60006060820190506179bf6000830186616cd6565b6179cc6020830185616cd6565b6179d960408301846177e9565b949350505050565b600060e0820190506179f6600083018a616cd6565b617a036020830189616cd6565b617a1060408301886177e9565b617a1d60608301876177e9565b617a2a6080830186617816565b617a3760a0830185616ee9565b617a4460c0830184616ee9565b98975050505050505050565b6000604082019050617a656000830185616cd6565b617a7260208301846177e9565b9392505050565b60006040820190508181036000830152617a938185616ce5565b90508181036020830152617aa78184616d43565b90509392505050565b6000602082019050617ac56000830184616eda565b92915050565b6000602082019050617ae06000830184616ee9565b92915050565b600060c082019050617afb6000830189616ee9565b617b086020830188616ee9565b617b156040830187616cd6565b617b226060830186616cd6565b617b2f6080830185616eda565b617b3c60a08301846177e9565b979650505050505050565b6000608082019050617b5c6000830187616ee9565b617b696020830186616ee9565b617b7660408301856177e9565b617b836060830184616cd6565b95945050505050565b6000608082019050617ba16000830187616ee9565b617bae6020830186617816565b617bbb6040830185616ee9565b617bc86060830184616ee9565b95945050505050565b60006020820190508181036000830152617bec818486616f0f565b90509392505050565b6000602082019050617c0a6000830184616fe9565b92915050565b60006020820190508181036000830152617c2a8184616ff8565b905092915050565b60006020820190508181036000830152617c4b81617062565b9050919050565b60006020820190508181036000830152617c6b816170a2565b9050919050565b60006020820190508181036000830152617c8b816170e2565b9050919050565b60006020820190508181036000830152617cab81617122565b9050919050565b60006020820190508181036000830152617ccb81617162565b9050919050565b60006020820190508181036000830152617ceb816171a2565b9050919050565b60006020820190508181036000830152617d0b816171e2565b9050919050565b60006020820190508181036000830152617d2b81617222565b9050919050565b60006020820190508181036000830152617d4b81617262565b9050919050565b60006020820190508181036000830152617d6b816172a2565b9050919050565b60006020820190508181036000830152617d8b816172e2565b9050919050565b60006020820190508181036000830152617dab81617322565b9050919050565b60006020820190508181036000830152617dcb81617362565b9050919050565b60006020820190508181036000830152617deb816173a2565b9050919050565b60006020820190508181036000830152617e0b816173e2565b9050919050565b60006020820190508181036000830152617e2b81617422565b9050919050565b60006020820190508181036000830152617e4b81617462565b9050919050565b60006020820190508181036000830152617e6b816174a2565b9050919050565b60006020820190508181036000830152617e8b816174e2565b9050919050565b60006020820190508181036000830152617eab8161753c565b9050919050565b60006020820190508181036000830152617ecb8161757c565b9050919050565b60006020820190508181036000830152617eeb816175bc565b9050919050565b60006020820190508181036000830152617f0b816175fc565b9050919050565b60006020820190508181036000830152617f2b8161763c565b9050919050565b60006020820190508181036000830152617f4b8161767c565b9050919050565b60006020820190508181036000830152617f6b816176bc565b9050919050565b60006020820190508181036000830152617f8b816176fc565b9050919050565b60006020820190508181036000830152617fab8161773c565b9050919050565b60006020820190508181036000830152617fcb8161777c565b9050919050565b6000602082019050617fe760008301846177cb565b92915050565b600060408201905061800260008301856177cb565b61800f6020830184616cc7565b9392505050565b600060408201905061802b60008301856177bc565b61803860208301846177bc565b9392505050565b600060208201905061805460008301846177e9565b92915050565b600060408201905061806f60008301856177e9565b61807c60208301846177e9565b9392505050565b600060208201905061809860008301846177f8565b92915050565b60006060820190506180b36000830186617807565b6180c06020830185617807565b6180cd60408301846177bc565b949350505050565b600080833560016020038436030381126180ee57600080fd5b80840192508235915067ffffffffffffffff82111561810c57600080fd5b60208301925060018202360383131561812457600080fd5b509250929050565b6000604051905081810181811067ffffffffffffffff8211171561814f57600080fd5b8060405250919050565b600067ffffffffffffffff82111561817057600080fd5b601f19601f8301169050602081019050919050565b6000819050602082019050919050565b6000819050602082019050919050565b6000819050919050565b6000819050602082019050919050565b600081519050919050565b600081519050919050565b600081519050919050565b600081519050919050565b600081519050919050565b6000602082019050919050565b6000602082019050919050565b6000602082019050919050565b6000602082019050919050565b600082825260208201905092915050565b600082825260208201905092915050565b600082825260208201905092915050565b600082825260208201905092915050565b600082825260208201905092915050565b600082825260208201905092915050565b600081905092915050565b600082825260208201905092915050565b600081905092915050565b60006182c6602084018461635a565b905092915050565b60006182d982618364565b9050919050565b60008115159050919050565b6000819050919050565b6000618301826182ce565b9050919050565b6000618313826182ce565b9050919050565b6000618325826182ce565b9050919050565b6000618337826182ce565b9050919050565b6000819050919050565b60006fffffffffffffffffffffffffffffffff82169050919050565b600073ffffffffffffffffffffffffffffffffffffffff82169050919050565b6000819050919050565b600067ffffffffffffffff82169050919050565b600060ff82169050919050565b60006183ba8261841b565b9050919050565b60006183cc826183d3565b9050919050565b60006183de82618364565b9050919050565b60006183f0826183f7565b9050919050565b600061840282618364565b9050919050565b600061841482618348565b9050919050565b60006184268261842d565b9050919050565b600061843882618364565b9050919050565b600061844a8261838e565b9050919050565b82818337600083830152505050565b60005b8381101561847e578082015181840152602081019050618463565b8381111561848d576000848401525b50505050565b6000819050919050565b6000601f19601f8301169050919050565b6184b7816182ce565b81146184c257600080fd5b50565b6184ce816182e0565b81146184d957600080fd5b50565b6184e5816182ec565b81146184f057600080fd5b50565b6184fc816182f6565b811461850757600080fd5b50565b61851381618308565b811461851e57600080fd5b50565b61852a8161831a565b811461853557600080fd5b50565b6185418161832c565b811461854c57600080fd5b50565b6185588161833e565b811461856357600080fd5b50565b61856f81618384565b811461857a57600080fd5b50565b6185868161838e565b811461859157600080fd5b50565b61859d816183a2565b81146185a857600080fd5b5056fea2646970667358221220ddd11d6ef985d3cfe9debc2c73c5d32f00cc6a0839bdc5cac9a09338595ba8ea64736f6c634300060c0033",
  "linkReferences": {},
  "deployedLinkReferences": {}
}