{
  "_format": "hh-sol-artifact-1",
  "contractName": "MasterContractManager",
  "sourceName": "contracts/flat/BentoBoxV1Flat.sol",
  "abi": [
    {
      "inputs": [],
      "stateMutability": "nonpayable",
      "type": "constructor"
    },
    {
      "anonymous": false,
      "inputs": [
        {
          "indexed": true,
          "internalType": "address",
          "name": "masterContract",
          "type": "address"
        },
        {
          "indexed": false,
          "internalType": "bytes",
          "name": "data",
          "type": "bytes"
        },
        {
          "indexed": true,
          "internalType": "address",
          "name": "cloneAddress",
          "type": "address"
        }
      ],
      "name": "LogDeploy",
      "type": "event"
    },
    {
      "anonymous": false,
      "inputs": [
        {
          "indexed": true,
          "internalType": "address",
          "name": "protocol",
          "type": "address"
        }
      ],
      "name": "LogRegisterProtocol",
      "type": "event"
    },
    {
      "anonymous": false,
      "inputs": [
        {
          "indexed": true,
          "internalType": "address",
          "name": "masterContract",
          "type": "address"
        },
        {
          "indexed": true,
          "internalType": "address",
          "name": "user",
          "type": "address"
        },
        {
          "indexed": false,
          "internalType": "bool",
          "name": "approved",
          "type": "bool"
        }
      ],
      "name": "LogSetMasterContractApproval",
      "type": "event"
    },
    {
      "anonymous": false,
      "inputs": [
        {
          "indexed": true,
          "internalType": "address",
          "name": "masterContract",
          "type": "address"
        },
        {
          "indexed": false,
          "internalType": "bool",
          "name": "approved",
          "type": "bool"
        }
      ],
      "name": "LogWhiteListMasterContract",
      "type": "event"
    },
    {
      "anonymous": false,
      "inputs": [
        {
          "indexed": true,
          "internalType": "address",
          "name": "previousOwner",
          "type": "address"
        },
        {
          "indexed": true,
          "internalType": "address",
          "name": "newOwner",
          "type": "address"
        }
      ],
      "name": "OwnershipTransferred",
      "type": "event"
    },
    {
      "inputs": [],
      "name": "DOMAIN_SEPARATOR",
      "outputs": [
        {
          "internalType": "bytes32",
          "name": "",
          "type": "bytes32"
        }
      ],
      "stateMutability": "view",
      "type": "function"
    },
    {
      "inputs": [],
      "name": "claimOwnership",
      "outputs": [],
      "stateMutability": "nonpayable",
      "type": "function"
    },
    {
      "inputs": [
        {
          "internalType": "address",
          "name": "masterContract",
          "type": "address"
        },
        {
          "internalType": "bytes",
          "name": "data",
          "type": "bytes"
        },
        {
          "internalType": "bool",
          "name": "useCreate2",
          "type": "bool"
        }
      ],
      "name": "deploy",
      "outputs": [
        {
          "internalType": "address",
          "name": "cloneAddress",
          "type": "address"
        }
      ],
      "stateMutability": "payable",
      "type": "function"
    },
    {
      "inputs": [
        {
          "internalType": "address",
          "name": "",
          "type": "address"
        },
        {
          "internalType": "address",
          "name": "",
          "type": "address"
        }
      ],
      "name": "masterContractApproved",
      "outputs": [
        {
          "internalType": "bool",
          "name": "",
          "type": "bool"
        }
      ],
      "stateMutability": "view",
      "type": "function"
    },
    {
      "inputs": [
        {
          "internalType": "address",
          "name": "",
          "type": "address"
        }
      ],
      "name": "masterContractOf",
      "outputs": [
        {
          "internalType": "address",
          "name": "",
          "type": "address"
        }
      ],
      "stateMutability": "view",
      "type": "function"
    },
    {
      "inputs": [
        {
          "internalType": "address",
          "name": "",
          "type": "address"
        }
      ],
      "name": "nonces",
      "outputs": [
        {
          "internalType": "uint256",
          "name": "",
          "type": "uint256"
        }
      ],
      "stateMutability": "view",
      "type": "function"
    },
    {
      "inputs": [],
      "name": "owner",
      "outputs": [
        {
          "internalType": "address",
          "name": "",
          "type": "address"
        }
      ],
      "stateMutability": "view",
      "type": "function"
    },
    {
      "inputs": [],
      "name": "pendingOwner",
      "outputs": [
        {
          "internalType": "address",
          "name": "",
          "type": "address"
        }
      ],
      "stateMutability": "view",
      "type": "function"
    },
    {
      "inputs": [],
      "name": "registerProtocol",
      "outputs": [],
      "stateMutability": "nonpayable",
      "type": "function"
    },
    {
      "inputs": [
        {
          "internalType": "address",
          "name": "user",
          "type": "address"
        },
        {
          "internalType": "address",
          "name": "masterContract",
          "type": "address"
        },
        {
          "internalType": "bool",
          "name": "approved",
          "type": "bool"
        },
        {
          "internalType": "uint8",
          "name": "v",
          "type": "uint8"
        },
        {
          "internalType": "bytes32",
          "name": "r",
          "type": "bytes32"
        },
        {
          "internalType": "bytes32",
          "name": "s",
          "type": "bytes32"
        }
      ],
      "name": "setMasterContractApproval",
      "outputs": [],
      "stateMutability": "nonpayable",
      "type": "function"
    },
    {
      "inputs": [
        {
          "internalType": "address",
          "name": "newOwner",
          "type": "address"
        },
        {
          "internalType": "bool",
          "name": "direct",
          "type": "bool"
        },
        {
          "internalType": "bool",
          "name": "renounce",
          "type": "bool"
        }
      ],
      "name": "transferOwnership",
      "outputs": [],
      "stateMutability": "nonpayable",
      "type": "function"
    },
    {
      "inputs": [
        {
          "internalType": "address",
          "name": "masterContract",
          "type": "address"
        },
        {
          "internalType": "bool",
          "name": "approved",
          "type": "bool"
        }
      ],
      "name": "whitelistMasterContract",
      "outputs": [],
      "stateMutability": "nonpayable",
      "type": "function"
    },
    {
      "inputs": [
        {
          "internalType": "address",
          "name": "",
          "type": "address"
        }
      ],
      "name": "whitelistedMasterContracts",
      "outputs": [
        {
          "internalType": "bool",
          "name": "",
          "type": "bool"
        }
      ],
      "stateMutability": "view",
      "type": "function"
    }
  ],
  "bytecode": "0x60c06040523480156200001157600080fd5b50336000806101000a81548173ffffffffffffffffffffffffffffffffffffffff021916908373ffffffffffffffffffffffffffffffffffffffff1602179055503373ffffffffffffffffffffffffffffffffffffffff16600073ffffffffffffffffffffffffffffffffffffffff167f8be0079c531659141344cd1fd0a4f28419497f9722a3daafe3b4186f6b6457e060405160405180910390a36000469050620000c98160a081815250620000d760201b60201c565b608081815250505062000217565b60007f8cad95687ba82c2ce50e74f7b754645e5117c3a5bec8151c0726d5857980a8667fd7df266aff736d415a9dc14b4158201d612e70d75b9c7f4e375ccfd20aa5166f833060405160200162000132949392919062000182565b604051602081830303815290604052805190602001209050919050565b6200015a81620001cf565b82525050565b6200016b81620001e3565b82525050565b6200017c816200020d565b82525050565b600060808201905062000199600083018762000160565b620001a8602083018662000160565b620001b7604083018562000171565b620001c660608301846200014f565b95945050505050565b6000620001dc82620001ed565b9050919050565b6000819050919050565b600073ffffffffffffffffffffffffffffffffffffffff82169050919050565b6000819050919050565b60805160a051611ead6200023b6000398061084652508061087b5250611ead6000f3fe6080604052600436106100c25760003560e01c80637ecebe001161007f578063aee4d1b211610059578063aee4d1b21461026d578063bafe4f1414610284578063c0a47c93146102c1578063e30c3978146102ea576100c2565b80637ecebe00146101c85780638da5cb5b1461020557806391e0eab514610230576100c2565b8063078dfbe7146100c757806312a90c8a146100f05780631f54245b1461012d5780633644e5151461015d5780634e71e0c814610188578063733a9d7c1461019f575b600080fd5b3480156100d357600080fd5b506100ee60048036038101906100e9919061158f565b610315565b005b3480156100fc57600080fd5b5061011760048036038101906101129190611465565b610569565b6040516101249190611a5c565b60405180910390f35b610147600480360381019061014291906115de565b610589565b6040516101549190611a41565b60405180910390f35b34801561016957600080fd5b5061017261083e565b60405161017f9190611a77565b60405180910390f35b34801561019457600080fd5b5061019d6108a1565b005b3480156101ab57600080fd5b506101c660048036038101906101c19190611553565b610a35565b005b3480156101d457600080fd5b506101ef60048036038101906101ea9190611465565b610bdc565b6040516101fc9190611d01565b60405180910390f35b34801561021157600080fd5b5061021a610bf4565b6040516102279190611a41565b60405180910390f35b34801561023c57600080fd5b506102576004803603810190610252919061148e565b610c18565b6040516102649190611a5c565b60405180910390f35b34801561027957600080fd5b50610282610c47565b005b34801561029057600080fd5b506102ab60048036038101906102a69190611465565b610d0a565b6040516102b89190611a41565b60405180910390f35b3480156102cd57600080fd5b506102e860048036038101906102e391906114ca565b610d3d565b005b3480156102f657600080fd5b506102ff61132b565b60405161030c9190611a41565b60405180910390f35b60008054906101000a900473ffffffffffffffffffffffffffffffffffffffff1673ffffffffffffffffffffffffffffffffffffffff163373ffffffffffffffffffffffffffffffffffffffff16146103a3576040517f08c379a000000000000000000000000000000000000000000000000000000000815260040161039a90611c01565b60405180910390fd5b811561052257600073ffffffffffffffffffffffffffffffffffffffff168373ffffffffffffffffffffffffffffffffffffffff161415806103e25750805b610421576040517f08c379a000000000000000000000000000000000000000000000000000000000815260040161041890611be1565b60405180910390fd5b8273ffffffffffffffffffffffffffffffffffffffff1660008054906101000a900473ffffffffffffffffffffffffffffffffffffffff1673ffffffffffffffffffffffffffffffffffffffff167f8be0079c531659141344cd1fd0a4f28419497f9722a3daafe3b4186f6b6457e060405160405180910390a3826000806101000a81548173ffffffffffffffffffffffffffffffffffffffff021916908373ffffffffffffffffffffffffffffffffffffffff1602179055506000600160006101000a81548173ffffffffffffffffffffffffffffffffffffffff021916908373ffffffffffffffffffffffffffffffffffffffff160217905550610564565b82600160006101000a81548173ffffffffffffffffffffffffffffffffffffffff021916908373ffffffffffffffffffffffffffffffffffffffff1602179055505b505050565b60046020528060005260406000206000915054906101000a900460ff1681565b60008073ffffffffffffffffffffffffffffffffffffffff168573ffffffffffffffffffffffffffffffffffffffff1614156105fa576040517f08c379a00000000000000000000000000000000000000000000000000000000081526004016105f190611c81565b60405180910390fd5b60008560601b90508215610686576000858560405161061a9291906119ef565b604051809103902090506040517f3d602d80600a3d3981f3363d3d373d3d3d363d7300000000000000000000000081528260148201527f5af43d82803e903d91602b57fd5bf300000000000000000000000000000000006028820152816037826000f5935050506106e2565b6040517f3d602d80600a3d3981f3363d3d373d3d3d363d7300000000000000000000000081528160148201527f5af43d82803e903d91602b57fd5bf3000000000000000000000000000000000060288201526037816000f09250505b85600260008473ffffffffffffffffffffffffffffffffffffffff1673ffffffffffffffffffffffffffffffffffffffff16815260200190815260200160002060006101000a81548173ffffffffffffffffffffffffffffffffffffffff021916908373ffffffffffffffffffffffffffffffffffffffff1602179055508173ffffffffffffffffffffffffffffffffffffffff16634ddf47d43487876040518463ffffffff1660e01b815260040161079c929190611b7d565b6000604051808303818588803b1580156107b557600080fd5b505af11580156107c9573d6000803e3d6000fd5b50505050508173ffffffffffffffffffffffffffffffffffffffff168673ffffffffffffffffffffffffffffffffffffffff167fd62166f3c2149208e51788b1401cc356bf5da1fc6c7886a32e18570f57d88b3b878760405161082d929190611b7d565b60405180910390a350949350505050565b6000804690507f000000000000000000000000000000000000000000000000000000000000000081146108795761087481611351565b61089b565b7f00000000000000000000000000000000000000000000000000000000000000005b91505090565b6000600160009054906101000a900473ffffffffffffffffffffffffffffffffffffffff1690508073ffffffffffffffffffffffffffffffffffffffff163373ffffffffffffffffffffffffffffffffffffffff1614610936576040517f08c379a000000000000000000000000000000000000000000000000000000000815260040161092d90611c21565b60405180910390fd5b8073ffffffffffffffffffffffffffffffffffffffff1660008054906101000a900473ffffffffffffffffffffffffffffffffffffffff1673ffffffffffffffffffffffffffffffffffffffff167f8be0079c531659141344cd1fd0a4f28419497f9722a3daafe3b4186f6b6457e060405160405180910390a3806000806101000a81548173ffffffffffffffffffffffffffffffffffffffff021916908373ffffffffffffffffffffffffffffffffffffffff1602179055506000600160006101000a81548173ffffffffffffffffffffffffffffffffffffffff021916908373ffffffffffffffffffffffffffffffffffffffff16021790555050565b60008054906101000a900473ffffffffffffffffffffffffffffffffffffffff1673ffffffffffffffffffffffffffffffffffffffff163373ffffffffffffffffffffffffffffffffffffffff1614610ac3576040517f08c379a0000000000000000000000000000000000000000000000000000000008152600401610aba90611c01565b60405180910390fd5b600073ffffffffffffffffffffffffffffffffffffffff168273ffffffffffffffffffffffffffffffffffffffff161415610b33576040517f08c379a0000000000000000000000000000000000000000000000000000000008152600401610b2a90611ba1565b60405180910390fd5b80600460008473ffffffffffffffffffffffffffffffffffffffff1673ffffffffffffffffffffffffffffffffffffffff16815260200190815260200160002060006101000a81548160ff0219169083151502179055508173ffffffffffffffffffffffffffffffffffffffff167f31a1e0eac44b54ac6c2a2efa87e92c83405ffcf33fceef02a7bca695130e260082604051610bd09190611a5c565b60405180910390a25050565b60056020528060005260406000206000915090505481565b60008054906101000a900473ffffffffffffffffffffffffffffffffffffffff1681565b60036020528160005260406000206020528060005260406000206000915091509054906101000a900460ff1681565b33600260003373ffffffffffffffffffffffffffffffffffffffff1673ffffffffffffffffffffffffffffffffffffffff16815260200190815260200160002060006101000a81548173ffffffffffffffffffffffffffffffffffffffff021916908373ffffffffffffffffffffffffffffffffffffffff1602179055503373ffffffffffffffffffffffffffffffffffffffff167fdfb44ffabf0d3a8f650d3ce43eff98f6d050e7ea1a396d5794f014e7dadabacb60405160405180910390a2565b60026020528060005260406000206000915054906101000a900473ffffffffffffffffffffffffffffffffffffffff1681565b600073ffffffffffffffffffffffffffffffffffffffff168573ffffffffffffffffffffffffffffffffffffffff161415610dad576040517f08c379a0000000000000000000000000000000000000000000000000000000008152600401610da490611ca1565b60405180910390fd5b6000801b82148015610dc157506000801b81145b8015610dd0575060008360ff16145b15610fa2573373ffffffffffffffffffffffffffffffffffffffff168673ffffffffffffffffffffffffffffffffffffffff1614610e43576040517f08c379a0000000000000000000000000000000000000000000000000000000008152600401610e3a90611bc1565b60405180910390fd5b600073ffffffffffffffffffffffffffffffffffffffff16600260008873ffffffffffffffffffffffffffffffffffffffff1673ffffffffffffffffffffffffffffffffffffffff16815260200190815260200160002060009054906101000a900473ffffffffffffffffffffffffffffffffffffffff1673ffffffffffffffffffffffffffffffffffffffff1614610f11576040517f08c379a0000000000000000000000000000000000000000000000000000000008152600401610f0890611c41565b60405180910390fd5b600460008673ffffffffffffffffffffffffffffffffffffffff1673ffffffffffffffffffffffffffffffffffffffff16815260200190815260200160002060009054906101000a900460ff16610f9d576040517f08c379a0000000000000000000000000000000000000000000000000000000008152600401610f9490611ce1565b60405180910390fd5b61122a565b600073ffffffffffffffffffffffffffffffffffffffff168673ffffffffffffffffffffffffffffffffffffffff161415611012576040517f08c379a000000000000000000000000000000000000000000000000000000000815260040161100990611cc1565b60405180910390fd5b60006040518060400160405280600281526020017f190100000000000000000000000000000000000000000000000000000000000081525061105261083e565b7f1962bc9f5484cb7a998701b81090e966ee1fce5771af884cceee7c081b14ade28761109e577fb426802f1f7dc850a7b6b38805edea2442f3992878a9ab985abfe8091d95d0b16110c0565b7f422ac5323fe049241dee67716229a1cc1bc7b313b23dfe3ef6d42ab177a3b2845b8a8a8a600560008f73ffffffffffffffffffffffffffffffffffffffff1673ffffffffffffffffffffffffffffffffffffffff16815260200190815260200160002060008154809291906001019190505560405160200161112696959493929190611a92565b6040516020818303038152906040528051906020012060405160200161114e93929190611a08565b60405160208183030381529060405280519060200120905060006001828686866040516000815260200160405260405161118b9493929190611b38565b6020604051602081039080840390855afa1580156111ad573d6000803e3d6000fd5b5050506020604051035190508773ffffffffffffffffffffffffffffffffffffffff168173ffffffffffffffffffffffffffffffffffffffff1614611227576040517f08c379a000000000000000000000000000000000000000000000000000000000815260040161121e90611c61565b60405180910390fd5b50505b83600360008773ffffffffffffffffffffffffffffffffffffffff1673ffffffffffffffffffffffffffffffffffffffff16815260200190815260200160002060008873ffffffffffffffffffffffffffffffffffffffff1673ffffffffffffffffffffffffffffffffffffffff16815260200190815260200160002060006101000a81548160ff0219169083151502179055508573ffffffffffffffffffffffffffffffffffffffff168573ffffffffffffffffffffffffffffffffffffffff167f5f6ebb64ba012a851c6f014e6cad458ddf213d1512049b31cd06365c2b0592578660405161131b9190611a5c565b60405180910390a3505050505050565b600160009054906101000a900473ffffffffffffffffffffffffffffffffffffffff1681565b60007f8cad95687ba82c2ce50e74f7b754645e5117c3a5bec8151c0726d5857980a8667fd7df266aff736d415a9dc14b4158201d612e70d75b9c7f4e375ccfd20aa5166f83306040516020016113aa9493929190611af3565b604051602081830303815290604052805190602001209050919050565b6000813590506113d681611e1b565b92915050565b6000813590506113eb81611e32565b92915050565b60008135905061140081611e49565b92915050565b60008083601f84011261141857600080fd5b8235905067ffffffffffffffff81111561143157600080fd5b60208301915083600182028301111561144957600080fd5b9250929050565b60008135905061145f81611e60565b92915050565b60006020828403121561147757600080fd5b6000611485848285016113c7565b91505092915050565b600080604083850312156114a157600080fd5b60006114af858286016113c7565b92505060206114c0858286016113c7565b9150509250929050565b60008060008060008060c087890312156114e357600080fd5b60006114f189828a016113c7565b965050602061150289828a016113c7565b955050604061151389828a016113dc565b945050606061152489828a01611450565b935050608061153589828a016113f1565b92505060a061154689828a016113f1565b9150509295509295509295565b6000806040838503121561156657600080fd5b6000611574858286016113c7565b9250506020611585858286016113dc565b9150509250929050565b6000806000606084860312156115a457600080fd5b60006115b2868287016113c7565b93505060206115c3868287016113dc565b92505060406115d4868287016113dc565b9150509250925092565b600080600080606085870312156115f457600080fd5b6000611602878288016113c7565b945050602085013567ffffffffffffffff81111561161f57600080fd5b61162b87828801611406565b9350935050604061163e878288016113dc565b91505092959194509250565b61165381611d5f565b82525050565b61166281611d71565b82525050565b61167181611d7d565b82525050565b61168861168382611d7d565b611e00565b82525050565b600061169a8385611d27565b93506116a7838584611dbe565b6116b083611e0a565b840190509392505050565b60006116c78385611d38565b93506116d4838584611dbe565b82840190509392505050565b60006116eb82611d1c565b6116f58185611d54565b9350611705818560208601611dcd565b80840191505092915050565b600061171e601c83611d43565b91507f4d6173746572434d67723a2043616e6e6f7420617070726f76652030000000006000830152602082019050919050565b600061175e601b83611d43565b91507f4d6173746572434d67723a2075736572206e6f742073656e64657200000000006000830152602082019050919050565b600061179e601583611d43565b91507f4f776e61626c653a207a65726f206164647265737300000000000000000000006000830152602082019050919050565b60006117de602083611d43565b91507f4f776e61626c653a2063616c6c6572206973206e6f7420746865206f776e65726000830152602082019050919050565b600061181e602083611d43565b91507f4f776e61626c653a2063616c6c657220213d2070656e64696e67206f776e65726000830152602082019050919050565b600061185e601983611d43565b91507f4d6173746572434d67723a207573657220697320636c6f6e65000000000000006000830152602082019050919050565b600061189e601d83611d43565b91507f4d6173746572434d67723a20496e76616c6964205369676e61747572650000006000830152602082019050919050565b60006118de602083611d43565b91507f426f72696e67466163746f72793a204e6f206d6173746572436f6e74726163746000830152602082019050919050565b600061191e601b83611d43565b91507f4d6173746572434d67723a206d617374657243206e6f742073657400000000006000830152602082019050919050565b600061195e601c83611d43565b91507f4d6173746572434d67723a20557365722063616e6e6f742062652030000000006000830152602082019050919050565b600061199e601b83611d43565b91507f4d6173746572434d67723a206e6f742077686974656c697374656400000000006000830152602082019050919050565b6119da81611da7565b82525050565b6119e981611db1565b82525050565b60006119fc8284866116bb565b91508190509392505050565b6000611a1482866116e0565b9150611a208285611677565b602082019150611a308284611677565b602082019150819050949350505050565b6000602082019050611a56600083018461164a565b92915050565b6000602082019050611a716000830184611659565b92915050565b6000602082019050611a8c6000830184611668565b92915050565b600060c082019050611aa76000830189611668565b611ab46020830188611668565b611ac1604083018761164a565b611ace606083018661164a565b611adb6080830185611659565b611ae860a08301846119d1565b979650505050505050565b6000608082019050611b086000830187611668565b611b156020830186611668565b611b2260408301856119d1565b611b2f606083018461164a565b95945050505050565b6000608082019050611b4d6000830187611668565b611b5a60208301866119e0565b611b676040830185611668565b611b746060830184611668565b95945050505050565b60006020820190508181036000830152611b9881848661168e565b90509392505050565b60006020820190508181036000830152611bba81611711565b9050919050565b60006020820190508181036000830152611bda81611751565b9050919050565b60006020820190508181036000830152611bfa81611791565b9050919050565b60006020820190508181036000830152611c1a816117d1565b9050919050565b60006020820190508181036000830152611c3a81611811565b9050919050565b60006020820190508181036000830152611c5a81611851565b9050919050565b60006020820190508181036000830152611c7a81611891565b9050919050565b60006020820190508181036000830152611c9a816118d1565b9050919050565b60006020820190508181036000830152611cba81611911565b9050919050565b60006020820190508181036000830152611cda81611951565b9050919050565b60006020820190508181036000830152611cfa81611991565b9050919050565b6000602082019050611d1660008301846119d1565b92915050565b600081519050919050565b600082825260208201905092915050565b600081905092915050565b600082825260208201905092915050565b600081905092915050565b6000611d6a82611d87565b9050919050565b60008115159050919050565b6000819050919050565b600073ffffffffffffffffffffffffffffffffffffffff82169050919050565b6000819050919050565b600060ff82169050919050565b82818337600083830152505050565b60005b83811015611deb578082015181840152602081019050611dd0565b83811115611dfa576000848401525b50505050565b6000819050919050565b6000601f19601f8301169050919050565b611e2481611d5f565b8114611e2f57600080fd5b50565b611e3b81611d71565b8114611e4657600080fd5b50565b611e5281611d7d565b8114611e5d57600080fd5b50565b611e6981611db1565b8114611e7457600080fd5b5056fea2646970667358221220b106937291695ef3edfccf2317e038a9d9ef9df9239dceed971e78ccbfecf68064736f6c634300060c0033",
  "linkReferences": {},
  "deployedLinkReferences": {}
}